{"contracts/ETHTickets.sol":{"ETHTickets":{"abi":[{"inputs":[],"stateMutability":"nonpayable","type":"constructor"},{"anonymous":false,"inputs":[{"indexed":true,"internalType":"address","name":"owner","type":"address"},{"indexed":true,"internalType":"address","name":"approved","type":"address"},{"indexed":true,"internalType":"uint256","name":"tokenId","type":"uint256"}],"name":"Approval","type":"event"},{"anonymous":false,"inputs":[{"indexed":true,"internalType":"address","name":"owner","type":"address"},{"indexed":true,"internalType":"address","name":"operator","type":"address"},{"indexed":false,"internalType":"bool","name":"approved","type":"bool"}],"name":"ApprovalForAll","type":"event"},{"anonymous":false,"inputs":[{"indexed":true,"internalType":"address","name":"previousOwner","type":"address"},{"indexed":true,"internalType":"address","name":"newOwner","type":"address"}],"name":"OwnershipTransferred","type":"event"},{"anonymous":false,"inputs":[{"indexed":true,"internalType":"address","name":"from","type":"address"},{"indexed":true,"internalType":"address","name":"to","type":"address"},{"indexed":true,"internalType":"uint256","name":"tokenId","type":"uint256"}],"name":"Transfer","type":"event"},{"inputs":[],"name":"MAX_SUPPLY","outputs":[{"internalType":"uint16","name":"","type":"uint16"}],"stateMutability":"view","type":"function"},{"inputs":[{"internalType":"address","name":"to","type":"address"},{"internalType":"uint256","name":"tokenId","type":"uint256"}],"name":"approve","outputs":[],"stateMutability":"nonpayable","type":"function"},{"inputs":[{"internalType":"address","name":"owner","type":"address"}],"name":"balanceOf","outputs":[{"internalType":"uint256","name":"","type":"uint256"}],"stateMutability":"view","type":"function"},{"inputs":[{"internalType":"uint256","name":"","type":"uint256"}],"name":"color","outputs":[{"internalType":"bytes3","name":"","type":"bytes3"}],"stateMutability":"view","type":"function"},{"inputs":[],"name":"contractURI","outputs":[{"internalType":"string","name":"","type":"string"}],"stateMutability":"pure","type":"function"},{"inputs":[],"name":"gaTicketPrice","outputs":[{"internalType":"uint256","name":"","type":"uint256"}],"stateMutability":"view","type":"function"},{"inputs":[{"internalType":"uint256","name":"id","type":"uint256"}],"name":"generateNftSvgByTokenId","outputs":[{"internalType":"string","name":"","type":"string"}],"stateMutability":"view","type":"function"},{"inputs":[{"internalType":"uint256","name":"tokenId","type":"uint256"}],"name":"getApproved","outputs":[{"internalType":"address","name":"","type":"address"}],"stateMutability":"view","type":"function"},{"inputs":[{"internalType":"address","name":"owner","type":"address"},{"internalType":"address","name":"operator","type":"address"}],"name":"isApprovedForAll","outputs":[{"internalType":"bool","name":"","type":"bool"}],"stateMutability":"view","type":"function"},{"inputs":[],"name":"mintNFT","outputs":[{"internalType":"uint256","name":"","type":"uint256"}],"stateMutability":"payable","type":"function"},{"inputs":[],"name":"name","outputs":[{"internalType":"string","name":"","type":"string"}],"stateMutability":"view","type":"function"},{"inputs":[],"name":"owner","outputs":[{"internalType":"address","name":"","type":"address"}],"stateMutability":"view","type":"function"},{"inputs":[{"internalType":"uint256","name":"tokenId","type":"uint256"}],"name":"ownerOf","outputs":[{"internalType":"address","name":"","type":"address"}],"stateMutability":"view","type":"function"},{"inputs":[],"name":"renounceOwnership","outputs":[],"stateMutability":"nonpayable","type":"function"},{"inputs":[{"internalType":"address","name":"from","type":"address"},{"internalType":"address","name":"to","type":"address"},{"internalType":"uint256","name":"tokenId","type":"uint256"}],"name":"safeTransferFrom","outputs":[],"stateMutability":"nonpayable","type":"function"},{"inputs":[{"internalType":"address","name":"from","type":"address"},{"internalType":"address","name":"to","type":"address"},{"internalType":"uint256","name":"tokenId","type":"uint256"},{"internalType":"bytes","name":"data","type":"bytes"}],"name":"safeTransferFrom","outputs":[],"stateMutability":"nonpayable","type":"function"},{"inputs":[{"internalType":"address","name":"operator","type":"address"},{"internalType":"bool","name":"approved","type":"bool"}],"name":"setApprovalForAll","outputs":[],"stateMutability":"nonpayable","type":"function"},{"inputs":[{"internalType":"bytes4","name":"interfaceId","type":"bytes4"}],"name":"supportsInterface","outputs":[{"internalType":"bool","name":"","type":"bool"}],"stateMutability":"view","type":"function"},{"inputs":[],"name":"symbol","outputs":[{"internalType":"string","name":"","type":"string"}],"stateMutability":"view","type":"function"},{"inputs":[{"internalType":"uint256","name":"index","type":"uint256"}],"name":"tokenByIndex","outputs":[{"internalType":"uint256","name":"","type":"uint256"}],"stateMutability":"view","type":"function"},{"inputs":[{"internalType":"address","name":"owner","type":"address"},{"internalType":"uint256","name":"index","type":"uint256"}],"name":"tokenOfOwnerByIndex","outputs":[{"internalType":"uint256","name":"","type":"uint256"}],"stateMutability":"view","type":"function"},{"inputs":[{"internalType":"uint256","name":"id","type":"uint256"}],"name":"tokenURI","outputs":[{"internalType":"string","name":"","type":"string"}],"stateMutability":"view","type":"function"},{"inputs":[],"name":"totalSupply","outputs":[{"internalType":"uint256","name":"","type":"uint256"}],"stateMutability":"view","type":"function"},{"inputs":[{"internalType":"address","name":"from","type":"address"},{"internalType":"address","name":"to","type":"address"},{"internalType":"uint256","name":"tokenId","type":"uint256"}],"name":"transferFrom","outputs":[],"stateMutability":"nonpayable","type":"function"},{"inputs":[{"internalType":"address","name":"newOwner","type":"address"}],"name":"transferOwnership","outputs":[],"stateMutability":"nonpayable","type":"function"},{"inputs":[{"internalType":"uint256","name":"","type":"uint256"}],"name":"vipTicketHolders","outputs":[{"internalType":"bool","name":"","type":"bool"}],"stateMutability":"view","type":"function"},{"inputs":[],"name":"vipTicketPrice","outputs":[{"internalType":"uint256","name":"","type":"uint256"}],"stateMutability":"view","type":"function"},{"inputs":[{"internalType":"address","name":"_wallet","type":"address"}],"name":"walletOfOwner","outputs":[{"internalType":"uint256[]","name":"","type":"uint256[]"}],"stateMutability":"view","type":"function"}],"evm":{"bytecode":{"linkReferences":{},"object":"60806040526000600c60006101000a81548161ffff021916908361ffff160217905550612327600c60166101000a81548161ffff021916908361ffff16021790555062093a80426200005291906200026f565b600f553480156200006257600080fd5b506040518060400160405280600a81526020017f4554485469636b657473000000000000000000000000000000000000000000008152506040518060400160405280600581526020017f45544854580000000000000000000000000000000000000000000000000000008152508160009081620000e091906200051a565b508060019081620000f291906200051a565b50505062000115620001096200016860201b60201c565b6200017060201b60201c565b6103e7600b6000018190555033600c60026101000a81548173ffffffffffffffffffffffffffffffffffffffff021916908373ffffffffffffffffffffffffffffffffffffffff16021790555062000601565b600033905090565b6000600a60009054906101000a900473ffffffffffffffffffffffffffffffffffffffff16905081600a60006101000a81548173ffffffffffffffffffffffffffffffffffffffff021916908373ffffffffffffffffffffffffffffffffffffffff1602179055508173ffffffffffffffffffffffffffffffffffffffff168173ffffffffffffffffffffffffffffffffffffffff167f8be0079c531659141344cd1fd0a4f28419497f9722a3daafe3b4186f6b6457e060405160405180910390a35050565b6000819050919050565b7f4e487b7100000000000000000000000000000000000000000000000000000000600052601160045260246000fd5b60006200027c8262000236565b9150620002898362000236565b9250828201905080821115620002a457620002a362000240565b5b92915050565b600081519050919050565b7f4e487b7100000000000000000000000000000000000000000000000000000000600052604160045260246000fd5b7f4e487b7100000000000000000000000000000000000000000000000000000000600052602260045260246000fd5b600060028204905060018216806200032c57607f821691505b602082108103620003425762000341620002e4565b5b50919050565b60008190508160005260206000209050919050565b60006020601f8301049050919050565b600082821b905092915050565b600060088302620003ac7fffffffffffffffffffffffffffffffffffffffffffffffffffffffffffffffff826200036d565b620003b886836200036d565b95508019841693508086168417925050509392505050565b6000819050919050565b6000620003fb620003f5620003ef8462000236565b620003d0565b62000236565b9050919050565b6000819050919050565b6200041783620003da565b6200042f620004268262000402565b8484546200037a565b825550505050565b600090565b6200044662000437565b620004538184846200040c565b505050565b5b818110156200047b576200046f6000826200043c565b60018101905062000459565b5050565b601f821115620004ca57620004948162000348565b6200049f846200035d565b81016020851015620004af578190505b620004c7620004be856200035d565b83018262000458565b50505b505050565b600082821c905092915050565b6000620004ef60001984600802620004cf565b1980831691505092915050565b60006200050a8383620004dc565b9150826002028217905092915050565b6200052582620002aa565b67ffffffffffffffff811115620005415762000540620002b5565b5b6200054d825462000313565b6200055a8282856200047f565b600060209050601f8311600181146200059257600084156200057d578287015190505b620005898582620004fc565b865550620005f9565b601f198416620005a28662000348565b60005b82811015620005cc57848901518255600182019150602085019450602081019050620005a5565b86831015620005ec5784890151620005e8601f891682620004dc565b8355505b6001600288020188555050505b505050505050565b615cb080620006116000396000f3fe6080604052600436106101b75760003560e01c80634f6ccce7116100ec578063a22cb4651161008a578063d4e28c9c11610064578063d4e28c9c1461064d578063e8a3d4851461068a578063e985e9c5146106b5578063f2fde38b146106f2576101b7565b8063a22cb465146105be578063b88d4fde146105e7578063c87b56dd14610610576101b7565b8063715018a6116100c6578063715018a6146105145780638146581a1461052b5780638da5cb5b1461056857806395d89b4114610593576101b7565b80634f6ccce71461045d5780636352211e1461049a57806370a08231146104d7576101b7565b806326ff40de1161015957806332cb6b0c1161013357806332cb6b0c146103a157806342842e0e146103cc578063438b6300146103f557806344c485a314610432576101b7565b806326ff40de146102fc5780632bb2c9cb146103275780632f745c5914610364576101b7565b8063095ea7b311610195578063095ea7b31461026157806314f710fe1461028a57806318160ddd146102a857806323b872dd146102d3576101b7565b806301ffc9a7146101bc57806306fdde03146101f9578063081812fc14610224575b600080fd5b3480156101c857600080fd5b506101e360048036038101906101de9190613487565b61071b565b6040516101f091906134cf565b60405180910390f35b34801561020557600080fd5b5061020e610795565b60405161021b919061357a565b60405180910390f35b34801561023057600080fd5b5061024b600480360381019061024691906135d2565b610827565b6040516102589190613640565b60405180910390f35b34801561026d57600080fd5b5061028860048036038101906102839190613687565b61086d565b005b610292610984565b60405161029f91906136d6565b60405180910390f35b3480156102b457600080fd5b506102bd610b96565b6040516102ca91906136d6565b60405180910390f35b3480156102df57600080fd5b506102fa60048036038101906102f591906136f1565b610bb2565b005b34801561030857600080fd5b50610311610c12565b60405161031e91906136d6565b60405180910390f35b34801561033357600080fd5b5061034e600480360381019061034991906135d2565b610c1d565b60405161035b919061357a565b60405180910390f35b34801561037057600080fd5b5061038b60048036038101906103869190613687565b610c7f565b60405161039891906136d6565b60405180910390f35b3480156103ad57600080fd5b506103b6610d24565b6040516103c39190613761565b60405180910390f35b3480156103d857600080fd5b506103f360048036038101906103ee91906136f1565b610d38565b005b34801561040157600080fd5b5061041c6004803603810190610417919061377c565b610d58565b6040516104299190613867565b60405180910390f35b34801561043e57600080fd5b50610447610e06565b60405161045491906136d6565b60405180910390f35b34801561046957600080fd5b50610484600480360381019061047f91906135d2565b610e11565b60405161049191906136d6565b60405180910390f35b3480156104a657600080fd5b506104c160048036038101906104bc91906135d2565b610e82565b6040516104ce9190613640565b60405180910390f35b3480156104e357600080fd5b506104fe60048036038101906104f9919061377c565b610f08565b60405161050b91906136d6565b60405180910390f35b34801561052057600080fd5b50610529610fbf565b005b34801561053757600080fd5b50610552600480360381019061054d91906135d2565b610fd3565b60405161055f91906134cf565b60405180910390f35b34801561057457600080fd5b5061057d610ff3565b60405161058a9190613640565b60405180910390f35b34801561059f57600080fd5b506105a861101d565b6040516105b5919061357a565b60405180910390f35b3480156105ca57600080fd5b506105e560048036038101906105e091906138b5565b6110af565b005b3480156105f357600080fd5b5061060e60048036038101906106099190613a2a565b6110c5565b005b34801561061c57600080fd5b50610637600480360381019061063291906135d2565b611127565b604051610644919061357a565b60405180910390f35b34801561065957600080fd5b50610674600480360381019061066f91906135d2565b611384565b6040516106819190613ae8565b60405180910390f35b34801561069657600080fd5b5061069f6113a4565b6040516106ac919061357a565b60405180910390f35b3480156106c157600080fd5b506106dc60048036038101906106d79190613b03565b611415565b6040516106e991906134cf565b60405180910390f35b3480156106fe57600080fd5b506107196004803603810190610714919061377c565b6114a9565b005b60007f780e9d63000000000000000000000000000000000000000000000000000000007bffffffffffffffffffffffffffffffffffffffffffffffffffffffff1916827bffffffffffffffffffffffffffffffffffffffffffffffffffffffff1916148061078e575061078d8261152c565b5b9050919050565b6060600080546107a490613b72565b80601f01602080910402602001604051908101604052809291908181526020018280546107d090613b72565b801561081d5780601f106107f25761010080835404028352916020019161081d565b820191906000526020600020905b81548152906001019060200180831161080057829003601f168201915b5050505050905090565b60006108328261160e565b6004600083815260200190815260200160002060009054906101000a900473ffffffffffffffffffffffffffffffffffffffff169050919050565b600061087882610e82565b90508073ffffffffffffffffffffffffffffffffffffffff168373ffffffffffffffffffffffffffffffffffffffff16036108e8576040517f08c379a00000000000000000000000000000000000000000000000000000000081526004016108df90613c15565b60405180910390fd5b8073ffffffffffffffffffffffffffffffffffffffff16610907611659565b73ffffffffffffffffffffffffffffffffffffffff161480610936575061093581610930611659565b611415565b5b610975576040517f08c379a000000000000000000000000000000000000000000000000000000000815260040161096c90613ca7565b60405180910390fd5b61097f8383611661565b505050565b6000600c60169054906101000a900461ffff1661ffff16600c60009054906101000a900461ffff1661ffff16106109f0576040517f08c379a00000000000000000000000000000000000000000000000000000000081526004016109e790613d13565b60405180910390fd5b600f544210610a34576040517f08c379a0000000000000000000000000000000000000000000000000000000008152600401610a2b90613d7f565b60405180910390fd5b3466470de4df8200001480610a4f575034662386f26fc10000145b610a8e576040517f08c379a0000000000000000000000000000000000000000000000000000000008152600401610a8590613deb565b60405180910390fd5b610a98600b61171a565b6000610aa4600b611730565b9050610ab0338261173e565b66470de4df8200003403610aeb576001600d600083815260200190815260200160002060006101000a81548160ff0219169083151502179055505b600c600081819054906101000a900461ffff1680929190610b0b90613e3a565b91906101000a81548161ffff021916908361ffff16021790555050600c60029054906101000a900473ffffffffffffffffffffffffffffffffffffffff1673ffffffffffffffffffffffffffffffffffffffff166108fc349081150290604051600060405180830381858888f19350505050158015610b8e573d6000803e3d6000fd5b508091505090565b6000600c60009054906101000a900461ffff1661ffff16905090565b610bc3610bbd611659565b8261175c565b610c02576040517f08c379a0000000000000000000000000000000000000000000000000000000008152600401610bf990613ed6565b60405180910390fd5b610c0d8383836117f1565b505050565b662386f26fc1000081565b6060610c59610c2b83611aea565b610c3484611c51565b604051602001610c459291906141b8565b604051602081830303815290604052611fba565b604051602001610c699190614249565b6040516020818303038152906040529050919050565b6000610c8a83610f08565b8210610ccb576040517f08c379a0000000000000000000000000000000000000000000000000000000008152600401610cc2906142dd565b60405180910390fd5b600660008473ffffffffffffffffffffffffffffffffffffffff1673ffffffffffffffffffffffffffffffffffffffff168152602001908152602001600020600083815260200190815260200160002054905092915050565b600c60169054906101000a900461ffff1681565b610d53838383604051806020016040528060008152506110c5565b505050565b60606000610d6583610f08565b905060008167ffffffffffffffff811115610d8357610d826138ff565b5b604051908082528060200260200182016040528015610db15781602001602082028036833780820191505090505b50905060005b82811015610dfb57610dc98582610c7f565b828281518110610ddc57610ddb6142fd565b5b6020026020010181815250508080610df39061432c565b915050610db7565b508092505050919050565b66470de4df82000081565b6000610e1b612132565b8210610e5c576040517f08c379a0000000000000000000000000000000000000000000000000000000008152600401610e53906143e6565b60405180910390fd5b60088281548110610e7057610e6f6142fd565b5b90600052602060002001549050919050565b600080610e8e8361213f565b9050600073ffffffffffffffffffffffffffffffffffffffff168173ffffffffffffffffffffffffffffffffffffffff1603610eff576040517f08c379a0000000000000000000000000000000000000000000000000000000008152600401610ef690614452565b60405180910390fd5b80915050919050565b60008073ffffffffffffffffffffffffffffffffffffffff168273ffffffffffffffffffffffffffffffffffffffff1603610f78576040517f08c379a0000000000000000000000000000000000000000000000000000000008152600401610f6f906144e4565b60405180910390fd5b600360008373ffffffffffffffffffffffffffffffffffffffff1673ffffffffffffffffffffffffffffffffffffffff168152602001908152602001600020549050919050565b610fc761217c565b610fd160006121fa565b565b600d6020528060005260406000206000915054906101000a900460ff1681565b6000600a60009054906101000a900473ffffffffffffffffffffffffffffffffffffffff16905090565b60606001805461102c90613b72565b80601f016020809104026020016040519081016040528092919081815260200182805461105890613b72565b80156110a55780601f1061107a576101008083540402835291602001916110a5565b820191906000526020600020905b81548152906001019060200180831161108857829003601f168201915b5050505050905090565b6110c16110ba611659565b83836122c0565b5050565b6110d66110d0611659565b8361175c565b611115576040517f08c379a000000000000000000000000000000000000000000000000000000000815260040161110c90613ed6565b60405180910390fd5b6111218484848461242c565b50505050565b606061113282612488565b611171576040517f08c379a000000000000000000000000000000000000000000000000000000000815260040161116890614550565b60405180910390fd5b600061117c836124c9565b60405160200161118c91906145bc565b60405160208183030381529060405290506000600d600085815260200190815260200160002060009054906101000a900460ff166111ff576040518060400160405280600281526020017f4741000000000000000000000000000000000000000000000000000000000000815250611236565b6040518060400160405280600381526020017f56495000000000000000000000000000000000000000000000000000000000008152505b604051602001611246919061462a565b604051602081830303815290604052905060008282600d600088815260200190815260200160002060009054906101000a900460ff166112bb576040518060400160405280600281526020017f47410000000000000000000000000000000000000000000000000000000000008152506112f2565b6040518060400160405280600381526020017f56495000000000000000000000000000000000000000000000000000000000008152505b61132460146113008a610e82565b73ffffffffffffffffffffffffffffffffffffffff1661259790919063ffffffff16565b61132d89610c1d565b6040516020016113419594939291906148d2565b604051602081830303815290604052905061135b81611fba565b60405160200161136b91906149cc565b6040516020818303038152906040529350505050919050565b600e6020528060005260406000206000915054906101000a900460e81b81565b606060006040516020016113b790614aac565b60405160208183030381529060405290506113f0816040516020016113dc9190614b13565b604051602081830303815290604052611fba565b60405160200161140091906149cc565b60405160208183030381529060405291505090565b6000600560008473ffffffffffffffffffffffffffffffffffffffff1673ffffffffffffffffffffffffffffffffffffffff16815260200190815260200160002060008373ffffffffffffffffffffffffffffffffffffffff1673ffffffffffffffffffffffffffffffffffffffff16815260200190815260200160002060009054906101000a900460ff16905092915050565b6114b161217c565b600073ffffffffffffffffffffffffffffffffffffffff168173ffffffffffffffffffffffffffffffffffffffff1603611520576040517f08c379a000000000000000000000000000000000000000000000000000000000815260040161151790614b9c565b60405180910390fd5b611529816121fa565b50565b60007f80ac58cd000000000000000000000000000000000000000000000000000000007bffffffffffffffffffffffffffffffffffffffffffffffffffffffff1916827bffffffffffffffffffffffffffffffffffffffffffffffffffffffff191614806115f757507f5b5e139f000000000000000000000000000000000000000000000000000000007bffffffffffffffffffffffffffffffffffffffffffffffffffffffff1916827bffffffffffffffffffffffffffffffffffffffffffffffffffffffff1916145b80611607575061160682612790565b5b9050919050565b61161781612488565b611656576040517f08c379a000000000000000000000000000000000000000000000000000000000815260040161164d90614452565b60405180910390fd5b50565b600033905090565b816004600083815260200190815260200160002060006101000a81548173ffffffffffffffffffffffffffffffffffffffff021916908373ffffffffffffffffffffffffffffffffffffffff160217905550808273ffffffffffffffffffffffffffffffffffffffff166116d483610e82565b73ffffffffffffffffffffffffffffffffffffffff167f8c5be1e5ebec7d5bd14f71427d1e84f3dd0314c0f7b2291e5b200ac8c7c3b92560405160405180910390a45050565b6001816000016000828254019250508190555050565b600081600001549050919050565b6117588282604051806020016040528060008152506127fa565b5050565b60008061176883610e82565b90508073ffffffffffffffffffffffffffffffffffffffff168473ffffffffffffffffffffffffffffffffffffffff1614806117aa57506117a98185611415565b5b806117e857508373ffffffffffffffffffffffffffffffffffffffff166117d084610827565b73ffffffffffffffffffffffffffffffffffffffff16145b91505092915050565b8273ffffffffffffffffffffffffffffffffffffffff1661181182610e82565b73ffffffffffffffffffffffffffffffffffffffff1614611867576040517f08c379a000000000000000000000000000000000000000000000000000000000815260040161185e90614c2e565b60405180910390fd5b600073ffffffffffffffffffffffffffffffffffffffff168273ffffffffffffffffffffffffffffffffffffffff16036118d6576040517f08c379a00000000000000000000000000000000000000000000000000000000081526004016118cd90614cc0565b60405180910390fd5b6118e38383836001612855565b8273ffffffffffffffffffffffffffffffffffffffff1661190382610e82565b73ffffffffffffffffffffffffffffffffffffffff1614611959576040517f08c379a000000000000000000000000000000000000000000000000000000000815260040161195090614c2e565b60405180910390fd5b6004600082815260200190815260200160002060006101000a81549073ffffffffffffffffffffffffffffffffffffffff02191690556001600360008573ffffffffffffffffffffffffffffffffffffffff1673ffffffffffffffffffffffffffffffffffffffff168152602001908152602001600020600082825403925050819055506001600360008473ffffffffffffffffffffffffffffffffffffffff1673ffffffffffffffffffffffffffffffffffffffff16815260200190815260200160002060008282540192505081905550816002600083815260200190815260200160002060006101000a81548173ffffffffffffffffffffffffffffffffffffffff021916908373ffffffffffffffffffffffffffffffffffffffff160217905550808273ffffffffffffffffffffffffffffffffffffffff168473ffffffffffffffffffffffffffffffffffffffff167fddf252ad1be2c89b69c2b068fc378daa952ba7f163c4a11628f55a4df523b3ef60405160405180910390a4611ae583838360016129b3565b505050565b60606000600d600084815260200190815260200160002060009054906101000a900460ff16611b4e576040518060400160405280600281526020017f4741000000000000000000000000000000000000000000000000000000000000815250611b85565b6040518060400160405280600381526020017f56495000000000000000000000000000000000000000000000000000000000008152505b9050600d600084815260200190815260200160002060009054906101000a900460ff16611be7576040518060400160405280600281526020017f7337000000000000000000000000000000000000000000000000000000000000815250611c1e565b6040518060400160405280600281526020017f73360000000000000000000000000000000000000000000000000000000000008152505b611c27846124c9565b82604051602001611c3a9392919061504a565b604051602081830303815290604052915050919050565b60606000611c98600c60029054906101000a900473ffffffffffffffffffffffffffffffffffffffff1673ffffffffffffffffffffffffffffffffffffffff1660146129b9565b9050600d600084815260200190815260200160002060009054906101000a900460ff16611cfa576040518060400160405280600481526020017f6761426700000000000000000000000000000000000000000000000000000000815250611d31565b6040518060400160405280600481526020017f76704267000000000000000000000000000000000000000000000000000000008152505b600d600085815260200190815260200160002060009054906101000a900460ff16611d91576040518060400160405280600681526020017f3030333835440000000000000000000000000000000000000000000000000000815250611dc8565b6040518060400160405280600681526020017f34363030393000000000000000000000000000000000000000000000000000008152505b600d600086815260200190815260200160002060009054906101000a900460ff16611e28576040518060400160405280600681526020017f3030353238420000000000000000000000000000000000000000000000000000815250611e5f565b6040518060400160405280600681526020017f36313030384300000000000000000000000000000000000000000000000000008152505b600d600087815260200190815260200160002060009054906101000a900460ff16611ebf576040518060400160405280600481526020017f6761426700000000000000000000000000000000000000000000000000000000815250611ef6565b6040518060400160405280600481526020017f76704267000000000000000000000000000000000000000000000000000000008152505b600d600088815260200190815260200160002060009054906101000a900460ff16611f56576040518060400160405280600281526020017f4741000000000000000000000000000000000000000000000000000000000000815250611f8d565b6040518060400160405280600381526020017f56495000000000000000000000000000000000000000000000000000000000008152505b85604051602001611fa3969594939291906155ef565b604051602081830303815290604052915050919050565b60606000825103611fdc5760405180602001604052806000815250905061212d565b6000604051806060016040528060408152602001615c3b604091399050600060036002855161200b91906156c0565b6120159190615723565b60046120219190615754565b9050600060208261203291906156c0565b67ffffffffffffffff81111561204b5761204a6138ff565b5b6040519080825280601f01601f19166020018201604052801561207d5781602001600182028036833780820191505090505b509050818152600183018586518101602084015b818310156120ec576003830192508251603f8160121c168501518253600182019150603f81600c1c168501518253600182019150603f8160061c168501518253600182019150603f8116850151825360018201915050612091565b600389510660018114612106576002811461211657612121565b613d3d60f01b6002830352612121565b603d60f81b60018303525b50505050508093505050505b919050565b6000600880549050905090565b60006002600083815260200190815260200160002060009054906101000a900473ffffffffffffffffffffffffffffffffffffffff169050919050565b612184611659565b73ffffffffffffffffffffffffffffffffffffffff166121a2610ff3565b73ffffffffffffffffffffffffffffffffffffffff16146121f8576040517f08c379a00000000000000000000000000000000000000000000000000000000081526004016121ef906157e2565b60405180910390fd5b565b6000600a60009054906101000a900473ffffffffffffffffffffffffffffffffffffffff16905081600a60006101000a81548173ffffffffffffffffffffffffffffffffffffffff021916908373ffffffffffffffffffffffffffffffffffffffff1602179055508173ffffffffffffffffffffffffffffffffffffffff168173ffffffffffffffffffffffffffffffffffffffff167f8be0079c531659141344cd1fd0a4f28419497f9722a3daafe3b4186f6b6457e060405160405180910390a35050565b8173ffffffffffffffffffffffffffffffffffffffff168373ffffffffffffffffffffffffffffffffffffffff160361232e576040517f08c379a00000000000000000000000000000000000000000000000000000000081526004016123259061584e565b60405180910390fd5b80600560008573ffffffffffffffffffffffffffffffffffffffff1673ffffffffffffffffffffffffffffffffffffffff16815260200190815260200160002060008473ffffffffffffffffffffffffffffffffffffffff1673ffffffffffffffffffffffffffffffffffffffff16815260200190815260200160002060006101000a81548160ff0219169083151502179055508173ffffffffffffffffffffffffffffffffffffffff168373ffffffffffffffffffffffffffffffffffffffff167f17307eab39ab6107e8899845ad3d59bd9653f200f220920489ca2b5937696c318360405161241f91906134cf565b60405180910390a3505050565b6124378484846117f1565b61244384848484612bf5565b612482576040517f08c379a0000000000000000000000000000000000000000000000000000000008152600401612479906158e0565b60405180910390fd5b50505050565b60008073ffffffffffffffffffffffffffffffffffffffff166124aa8361213f565b73ffffffffffffffffffffffffffffffffffffffff1614159050919050565b6060600060016124d884612d7c565b01905060008167ffffffffffffffff8111156124f7576124f66138ff565b5b6040519080825280601f01601f1916602001820160405280156125295781602001600182028036833780820191505090505b509050600082602001820190505b60011561258c578080600190039150507f3031323334353637383961626364656600000000000000000000000000000000600a86061a8153600a85816125805761257f6156f4565b5b04945060008503612537575b819350505050919050565b6060600060028360026125aa9190615754565b6125b491906156c0565b67ffffffffffffffff8111156125cd576125cc6138ff565b5b6040519080825280601f01601f1916602001820160405280156125ff5781602001600182028036833780820191505090505b5090507f300000000000000000000000000000000000000000000000000000000000000081600081518110612637576126366142fd565b5b60200101907effffffffffffffffffffffffffffffffffffffffffffffffffffffffffffff1916908160001a9053507f78000000000000000000000000000000000000000000000000000000000000008160018151811061269b5761269a6142fd565b5b60200101907effffffffffffffffffffffffffffffffffffffffffffffffffffffffffffff1916908160001a905350600060018460026126db9190615754565b6126e591906156c0565b90505b6001811115612785577f3031323334353637383961626364656600000000000000000000000000000000600f861660108110612727576127266142fd565b5b1a60f81b82828151811061273e5761273d6142fd565b5b60200101907effffffffffffffffffffffffffffffffffffffffffffffffffffffffffffff1916908160001a905350600485901c94508061277e90615900565b90506126e8565b508091505092915050565b60007f01ffc9a7000000000000000000000000000000000000000000000000000000007bffffffffffffffffffffffffffffffffffffffffffffffffffffffff1916827bffffffffffffffffffffffffffffffffffffffffffffffffffffffff1916149050919050565b6128048383612ecf565b6128116000848484612bf5565b612850576040517f08c379a0000000000000000000000000000000000000000000000000000000008152600401612847906158e0565b60405180910390fd5b505050565b612861848484846130ec565b60018111156128a5576040517f08c379a000000000000000000000000000000000000000000000000000000000815260040161289c9061599b565b60405180910390fd5b6000829050600073ffffffffffffffffffffffffffffffffffffffff168573ffffffffffffffffffffffffffffffffffffffff16036128ec576128e7816130f2565b61292b565b8373ffffffffffffffffffffffffffffffffffffffff168573ffffffffffffffffffffffffffffffffffffffff161461292a57612929858261313b565b5b5b600073ffffffffffffffffffffffffffffffffffffffff168473ffffffffffffffffffffffffffffffffffffffff160361296d57612968816132a8565b6129ac565b8473ffffffffffffffffffffffffffffffffffffffff168473ffffffffffffffffffffffffffffffffffffffff16146129ab576129aa8482613379565b5b5b5050505050565b50505050565b6060600060028360026129cc9190615754565b6129d691906156c0565b67ffffffffffffffff8111156129ef576129ee6138ff565b5b6040519080825280601f01601f191660200182016040528015612a215781602001600182028036833780820191505090505b5090507f300000000000000000000000000000000000000000000000000000000000000081600081518110612a5957612a586142fd565b5b60200101907effffffffffffffffffffffffffffffffffffffffffffffffffffffffffffff1916908160001a9053507f780000000000000000000000000000000000000000000000000000000000000081600181518110612abd57612abc6142fd565b5b60200101907effffffffffffffffffffffffffffffffffffffffffffffffffffffffffffff1916908160001a90535060006001846002612afd9190615754565b612b0791906156c0565b90505b6001811115612ba7577f3031323334353637383961626364656600000000000000000000000000000000600f861660108110612b4957612b486142fd565b5b1a60f81b828281518110612b6057612b5f6142fd565b5b60200101907effffffffffffffffffffffffffffffffffffffffffffffffffffffffffffff1916908160001a905350600485901c945080612ba090615900565b9050612b0a565b5060008414612beb576040517f08c379a0000000000000000000000000000000000000000000000000000000008152600401612be290615a07565b60405180910390fd5b8091505092915050565b6000612c168473ffffffffffffffffffffffffffffffffffffffff166133f8565b15612d6f578373ffffffffffffffffffffffffffffffffffffffff1663150b7a02612c3f611659565b8786866040518563ffffffff1660e01b8152600401612c619493929190615a71565b6020604051808303816000875af1925050508015612c9d57506040513d601f19601f82011682018060405250810190612c9a9190615ad2565b60015b612d1f573d8060008114612ccd576040519150601f19603f3d011682016040523d82523d6000602084013e612cd2565b606091505b506000815103612d17576040517f08c379a0000000000000000000000000000000000000000000000000000000008152600401612d0e906158e0565b60405180910390fd5b805181602001fd5b63150b7a0260e01b7bffffffffffffffffffffffffffffffffffffffffffffffffffffffff1916817bffffffffffffffffffffffffffffffffffffffffffffffffffffffff191614915050612d74565b600190505b949350505050565b600080600090507a184f03e93ff9f4daa797ed6e38ed64bf6a1f0100000000000000008310612dda577a184f03e93ff9f4daa797ed6e38ed64bf6a1f0100000000000000008381612dd057612dcf6156f4565b5b0492506040810190505b6d04ee2d6d415b85acef81000000008310612e17576d04ee2d6d415b85acef81000000008381612e0d57612e0c6156f4565b5b0492506020810190505b662386f26fc100008310612e4657662386f26fc100008381612e3c57612e3b6156f4565b5b0492506010810190505b6305f5e1008310612e6f576305f5e1008381612e6557612e646156f4565b5b0492506008810190505b6127108310612e94576127108381612e8a57612e896156f4565b5b0492506004810190505b60648310612eb75760648381612ead57612eac6156f4565b5b0492506002810190505b600a8310612ec6576001810190505b80915050919050565b600073ffffffffffffffffffffffffffffffffffffffff168273ffffffffffffffffffffffffffffffffffffffff1603612f3e576040517f08c379a0000000000000000000000000000000000000000000000000000000008152600401612f3590615b4b565b60405180910390fd5b612f4781612488565b15612f87576040517f08c379a0000000000000000000000000000000000000000000000000000000008152600401612f7e90615bb7565b60405180910390fd5b612f95600083836001612855565b612f9e81612488565b15612fde576040517f08c379a0000000000000000000000000000000000000000000000000000000008152600401612fd590615bb7565b60405180910390fd5b6001600360008473ffffffffffffffffffffffffffffffffffffffff1673ffffffffffffffffffffffffffffffffffffffff16815260200190815260200160002060008282540192505081905550816002600083815260200190815260200160002060006101000a81548173ffffffffffffffffffffffffffffffffffffffff021916908373ffffffffffffffffffffffffffffffffffffffff160217905550808273ffffffffffffffffffffffffffffffffffffffff16600073ffffffffffffffffffffffffffffffffffffffff167fddf252ad1be2c89b69c2b068fc378daa952ba7f163c4a11628f55a4df523b3ef60405160405180910390a46130e86000838360016129b3565b5050565b50505050565b6008805490506009600083815260200190815260200160002081905550600881908060018154018082558091505060019003906000526020600020016000909190919091505550565b6000600161314884610f08565b6131529190615bd7565b9050600060076000848152602001908152602001600020549050818114613237576000600660008673ffffffffffffffffffffffffffffffffffffffff1673ffffffffffffffffffffffffffffffffffffffff168152602001908152602001600020600084815260200190815260200160002054905080600660008773ffffffffffffffffffffffffffffffffffffffff1673ffffffffffffffffffffffffffffffffffffffff168152602001908152602001600020600084815260200190815260200160002081905550816007600083815260200190815260200160002081905550505b6007600084815260200190815260200160002060009055600660008573ffffffffffffffffffffffffffffffffffffffff1673ffffffffffffffffffffffffffffffffffffffff16815260200190815260200160002060008381526020019081526020016000206000905550505050565b600060016008805490506132bc9190615bd7565b90506000600960008481526020019081526020016000205490506000600883815481106132ec576132eb6142fd565b5b90600052602060002001549050806008838154811061330e5761330d6142fd565b5b90600052602060002001819055508160096000838152602001908152602001600020819055506009600085815260200190815260200160002060009055600880548061335d5761335c615c0b565b5b6001900381819060005260206000200160009055905550505050565b600061338483610f08565b905081600660008573ffffffffffffffffffffffffffffffffffffffff1673ffffffffffffffffffffffffffffffffffffffff168152602001908152602001600020600083815260200190815260200160002081905550806007600084815260200190815260200160002081905550505050565b6000808273ffffffffffffffffffffffffffffffffffffffff163b119050919050565b6000604051905090565b600080fd5b600080fd5b60007fffffffff0000000000000000000000000000000000000000000000000000000082169050919050565b6134648161342f565b811461346f57600080fd5b50565b6000813590506134818161345b565b92915050565b60006020828403121561349d5761349c613425565b5b60006134ab84828501613472565b91505092915050565b60008115159050919050565b6134c9816134b4565b82525050565b60006020820190506134e460008301846134c0565b92915050565b600081519050919050565b600082825260208201905092915050565b60005b83811015613524578082015181840152602081019050613509565b60008484015250505050565b6000601f19601f8301169050919050565b600061354c826134ea565b61355681856134f5565b9350613566818560208601613506565b61356f81613530565b840191505092915050565b600060208201905081810360008301526135948184613541565b905092915050565b6000819050919050565b6135af8161359c565b81146135ba57600080fd5b50565b6000813590506135cc816135a6565b92915050565b6000602082840312156135e8576135e7613425565b5b60006135f6848285016135bd565b91505092915050565b600073ffffffffffffffffffffffffffffffffffffffff82169050919050565b600061362a826135ff565b9050919050565b61363a8161361f565b82525050565b60006020820190506136556000830184613631565b92915050565b6136648161361f565b811461366f57600080fd5b50565b6000813590506136818161365b565b92915050565b6000806040838503121561369e5761369d613425565b5b60006136ac85828601613672565b92505060206136bd858286016135bd565b9150509250929050565b6136d08161359c565b82525050565b60006020820190506136eb60008301846136c7565b92915050565b60008060006060848603121561370a57613709613425565b5b600061371886828701613672565b935050602061372986828701613672565b925050604061373a868287016135bd565b9150509250925092565b600061ffff82169050919050565b61375b81613744565b82525050565b60006020820190506137766000830184613752565b92915050565b60006020828403121561379257613791613425565b5b60006137a084828501613672565b91505092915050565b600081519050919050565b600082825260208201905092915050565b6000819050602082019050919050565b6137de8161359c565b82525050565b60006137f083836137d5565b60208301905092915050565b6000602082019050919050565b6000613814826137a9565b61381e81856137b4565b9350613829836137c5565b8060005b8381101561385a57815161384188826137e4565b975061384c836137fc565b92505060018101905061382d565b5085935050505092915050565b600060208201905081810360008301526138818184613809565b905092915050565b613892816134b4565b811461389d57600080fd5b50565b6000813590506138af81613889565b92915050565b600080604083850312156138cc576138cb613425565b5b60006138da85828601613672565b92505060206138eb858286016138a0565b9150509250929050565b600080fd5b600080fd5b7f4e487b7100000000000000000000000000000000000000000000000000000000600052604160045260246000fd5b61393782613530565b810181811067ffffffffffffffff82111715613956576139556138ff565b5b80604052505050565b600061396961341b565b9050613975828261392e565b919050565b600067ffffffffffffffff821115613995576139946138ff565b5b61399e82613530565b9050602081019050919050565b82818337600083830152505050565b60006139cd6139c88461397a565b61395f565b9050828152602081018484840111156139e9576139e86138fa565b5b6139f48482856139ab565b509392505050565b600082601f830112613a1157613a106138f5565b5b8135613a218482602086016139ba565b91505092915050565b60008060008060808587031215613a4457613a43613425565b5b6000613a5287828801613672565b9450506020613a6387828801613672565b9350506040613a74878288016135bd565b925050606085013567ffffffffffffffff811115613a9557613a9461342a565b5b613aa1878288016139fc565b91505092959194509250565b60007fffffff000000000000000000000000000000000000000000000000000000000082169050919050565b613ae281613aad565b82525050565b6000602082019050613afd6000830184613ad9565b92915050565b60008060408385031215613b1a57613b19613425565b5b6000613b2885828601613672565b9250506020613b3985828601613672565b9150509250929050565b7f4e487b7100000000000000000000000000000000000000000000000000000000600052602260045260246000fd5b60006002820490506001821680613b8a57607f821691505b602082108103613b9d57613b9c613b43565b5b50919050565b7f4552433732313a20617070726f76616c20746f2063757272656e74206f776e6560008201527f7200000000000000000000000000000000000000000000000000000000000000602082015250565b6000613bff6021836134f5565b9150613c0a82613ba3565b604082019050919050565b60006020820190508181036000830152613c2e81613bf2565b9050919050565b7f4552433732313a20617070726f76652063616c6c6572206973206e6f7420746f60008201527f6b656e206f776e6572206f7220617070726f76656420666f7220616c6c000000602082015250565b6000613c91603d836134f5565b9150613c9c82613c35565b604082019050919050565b60006020820190508181036000830152613cc081613c84565b9050919050565b7f416c6c207469636b657473206d696e7465640000000000000000000000000000600082015250565b6000613cfd6012836134f5565b9150613d0882613cc7565b602082019050919050565b60006020820190508181036000830152613d2c81613cf0565b9050919050565b7f4d696e74696e6720657870697265640000000000000000000000000000000000600082015250565b6000613d69600f836134f5565b9150613d7482613d33565b602082019050919050565b60006020820190508181036000830152613d9881613d5c565b9050919050565b7f45746865722076616c75652073656e7420696e636f7272656374000000000000600082015250565b6000613dd5601a836134f5565b9150613de082613d9f565b602082019050919050565b60006020820190508181036000830152613e0481613dc8565b9050919050565b7f4e487b7100000000000000000000000000000000000000000000000000000000600052601160045260246000fd5b6000613e4582613744565b915061ffff8203613e5957613e58613e0b565b5b600182019050919050565b7f4552433732313a2063616c6c6572206973206e6f7420746f6b656e206f776e6560008201527f72206f7220617070726f76656400000000000000000000000000000000000000602082015250565b6000613ec0602d836134f5565b9150613ecb82613e64565b604082019050919050565b60006020820190508181036000830152613eef81613eb3565b9050919050565b600081905092915050565b7f3c737667207072657365727665417370656374526174696f3d22784d696e594d60008201527f696e206d656574222076696577426f783d22302030203330302033303022207860208201527f6d6c6e733d22687474703a2f2f7777772e77332e6f72672f323030302f73766760408201527f22207374796c653d2266696c6c2d72756c653a6576656e6f64643b636c69702d60608201527f72756c653a6576656e6f64643b757365722d73656c6563743a206e6f6e653b2260808201527f3e0000000000000000000000000000000000000000000000000000000000000060a082015250565b6000613ff560a183613ef6565b915061400082613f01565b60a182019050919050565b6000614016826134ea565b6140208185613ef6565b9350614030818560208601613506565b80840191505092915050565b7f3c7374796c653e2e73317b666f6e742d66616d696c793a22417269616c223b7d60008201527f202e7332617b66696c6c3a233030303b7d202e7332627b66696c6c3a2346464660208201527f3b7d202e73337b666f6e742d73697a653a323470783b7d202e73347b666f6e7460408201527f2d73697a653a313670783b7d202e73357b666f6e742d73697a653a313470783b60608201527f7d202e73367b66696c6c3a233139303033463b7d202e73377b66696c6c3a233060808201527f30314332453b7d202e73387b666f6e742d73697a653a3770783b7d3c2f73747960a08201527f6c653e000000000000000000000000000000000000000000000000000000000060c082015250565b600061415660c383613ef6565b91506141618261403c565b60c382019050919050565b7f3c2f7376673e0000000000000000000000000000000000000000000000000000600082015250565b60006141a2600683613ef6565b91506141ad8261416c565b600682019050919050565b60006141c382613fe8565b91506141cf828561400b565b91506141db828461400b565b91506141e682614149565b91506141f182614195565b91508190509392505050565b7f646174613a696d6167652f7376672b786d6c3b6261736536342c000000000000600082015250565b6000614233601a83613ef6565b915061423e826141fd565b601a82019050919050565b600061425482614226565b9150614260828461400b565b915081905092915050565b7f455243373231456e756d657261626c653a206f776e657220696e646578206f7560008201527f74206f6620626f756e6473000000000000000000000000000000000000000000602082015250565b60006142c7602b836134f5565b91506142d28261426b565b604082019050919050565b600060208201905081810360008301526142f6816142ba565b9050919050565b7f4e487b7100000000000000000000000000000000000000000000000000000000600052603260045260246000fd5b60006143378261359c565b91507fffffffffffffffffffffffffffffffffffffffffffffffffffffffffffffffff820361436957614368613e0b565b5b600182019050919050565b7f455243373231456e756d657261626c653a20676c6f62616c20696e646578206f60008201527f7574206f6620626f756e64730000000000000000000000000000000000000000602082015250565b60006143d0602c836134f5565b91506143db82614374565b604082019050919050565b600060208201905081810360008301526143ff816143c3565b9050919050565b7f4552433732313a20696e76616c696420746f6b656e2049440000000000000000600082015250565b600061443c6018836134f5565b915061444782614406565b602082019050919050565b6000602082019050818103600083015261446b8161442f565b9050919050565b7f4552433732313a2061646472657373207a65726f206973206e6f74206120766160008201527f6c6964206f776e65720000000000000000000000000000000000000000000000602082015250565b60006144ce6029836134f5565b91506144d982614472565b604082019050919050565b600060208201905081810360008301526144fd816144c1565b9050919050565b7f6e6f742065786973740000000000000000000000000000000000000000000000600082015250565b600061453a6009836134f5565b915061454582614504565b602082019050919050565b600060208201905081810360008301526145698161452d565b9050919050565b7f5469636b65742023000000000000000000000000000000000000000000000000600082015250565b60006145a6600883613ef6565b91506145b182614570565b600882019050919050565b60006145c782614599565b91506145d3828461400b565b915081905092915050565b7f2041636365737300000000000000000000000000000000000000000000000000600082015250565b6000614614600783613ef6565b915061461f826145de565b600782019050919050565b6000614636828461400b565b915061464182614607565b915081905092915050565b7f7b226e616d65223a220000000000000000000000000000000000000000000000600082015250565b6000614682600983613ef6565b915061468d8261464c565b600982019050919050565b7f222c226465736372697074696f6e223a22000000000000000000000000000000600082015250565b60006146ce601183613ef6565b91506146d982614698565b601182019050919050565b7f222c000000000000000000000000000000000000000000000000000000000000600082015250565b600061471a600283613ef6565b9150614725826146e4565b600282019050919050565b7f2261747472696275746573223a5b7b2274726169745f74797065223a2254696360008201527f6b65742054797065222c202276616c7565223a22000000000000000000000000602082015250565b600061478c603483613ef6565b915061479782614730565b603482019050919050565b7f227d5d2c00000000000000000000000000000000000000000000000000000000600082015250565b60006147d8600483613ef6565b91506147e3826147a2565b600482019050919050565b7f226f776e6572223a220000000000000000000000000000000000000000000000600082015250565b6000614824600983613ef6565b915061482f826147ee565b600982019050919050565b7f22696d616765223a220000000000000000000000000000000000000000000000600082015250565b6000614870600983613ef6565b915061487b8261483a565b600982019050919050565b7f227d000000000000000000000000000000000000000000000000000000000000600082015250565b60006148bc600283613ef6565b91506148c782614886565b600282019050919050565b60006148dd82614675565b91506148e9828861400b565b91506148f4826146c1565b9150614900828761400b565b915061490b8261470d565b91506149168261477f565b9150614922828661400b565b915061492d826147cb565b915061493882614817565b9150614944828561400b565b915061494f8261470d565b915061495a82614863565b9150614966828461400b565b9150614971826148af565b91508190509695505050505050565b7f646174613a6170706c69636174696f6e2f6a736f6e3b6261736536342c000000600082015250565b60006149b6601d83613ef6565b91506149c182614980565b601d82019050919050565b60006149d7826149a9565b91506149e3828461400b565b915081905092915050565b7f7b226e616d65223a224554482041746c616e746973222c000000000000000000600082015250565b6000614a24601783613ef6565b9150614a2f826149ee565b601782019050919050565b7f226465736372697074696f6e223a2241207072656d696572204574686572657560008201527f6d206576656e742061742073656121227d000000000000000000000000000000602082015250565b6000614a96603183613ef6565b9150614aa182614a3a565b603182019050919050565b6000614ab782614a17565b9150614ac282614a89565b9150819050919050565b600081519050919050565b600081905092915050565b6000614aed82614acc565b614af78185614ad7565b9350614b07818560208601613506565b80840191505092915050565b6000614b1f8284614ae2565b915081905092915050565b7f4f776e61626c653a206e6577206f776e657220697320746865207a65726f206160008201527f6464726573730000000000000000000000000000000000000000000000000000602082015250565b6000614b866026836134f5565b9150614b9182614b2a565b604082019050919050565b60006020820190508181036000830152614bb581614b79565b9050919050565b7f4552433732313a207472616e736665722066726f6d20696e636f72726563742060008201527f6f776e6572000000000000000000000000000000000000000000000000000000602082015250565b6000614c186025836134f5565b9150614c2382614bbc565b604082019050919050565b60006020820190508181036000830152614c4781614c0b565b9050919050565b7f4552433732313a207472616e7366657220746f20746865207a65726f2061646460008201527f7265737300000000000000000000000000000000000000000000000000000000602082015250565b6000614caa6024836134f5565b9150614cb582614c4e565b604082019050919050565b60006020820190508181036000830152614cd981614c9d565b9050919050565b7f3c67207472616e73666f726d3d226d617472697828312c302c302c312c302c3060008201527f2e31373738353929223e3c7061746820636c6173733d22000000000000000000602082015250565b6000614d3c603783613ef6565b9150614d4782614ce0565b603782019050919050565b7f2220643d224d3239352c3139392e3832324c352c3139392e3832324c352c323860008201527f342e39383843352c3239302e34313620392e3430362c3239342e38323220313460208201527f2e3833342c3239342e3832324c3238352e3136362c3239342e3832324332393060408201527f2e3539342c3239342e383232203239352c3239302e343136203239352c32383460608201527f2e3938384c3239352c3139392e3832325a222f3e3c2f673e0000000000000000608082015250565b6000614e20609883613ef6565b9150614e2b82614d52565b609882019050919050565b7f3c67207472616e73666f726d3d226d617472697828312e363637392c302c302c60008201527f312e363637392c35302c31363029223e3c7465787420783d223230252220793d60208201527f2231342522207374796c653d22646f6d696e616e742d626173656c696e653a6360408201527f656e7472616c3b20746578742d616e63686f723a6d6964646c653b2220636c6160608201527f73733d22733120733262207334223e2300000000000000000000000000000000608082015250565b6000614f04609083613ef6565b9150614f0f82614e36565b609082019050919050565b7f3c2f746578743e3c2f673e000000000000000000000000000000000000000000600082015250565b6000614f50600b83613ef6565b9150614f5b82614f1a565b600b82019050919050565b7f3c67207472616e73666f726d3d226d617472697828312e363637392c302c302c60008201527f312e363637392c35302c31393529223e3c7465787420783d223230252220793d60208201527f2231342522207374796c653d22646f6d696e616e742d626173656c696e653a6360408201527f656e7472616c3b20746578742d616e63686f723a6d6964646c653b2220636c6160608201527f73733d22733120733262207334223e0000000000000000000000000000000000608082015250565b6000615034608f83613ef6565b915061503f82614f66565b608f82019050919050565b600061505582614d2f565b9150615061828661400b565b915061506c82614e13565b915061507782614ef7565b9150615083828561400b565b915061508e82614f43565b915061509982615027565b91506150a5828461400b565b91506150b082614f43565b9150819050949350505050565b7f3c6c696e6561724772616469656e742069643d22000000000000000000000000600082015250565b60006150f3601483613ef6565b91506150fe826150bd565b601482019050919050565b7f223e3c73746f70206f66667365743d223525222073746f702d636f6c6f723d2260008201527f2300000000000000000000000000000000000000000000000000000000000000602082015250565b6000615165602183613ef6565b915061517082615109565b602182019050919050565b7f22202f3e3c73746f70206f66667365743d22393525222073746f702d636f6c6f60008201527f723d222300000000000000000000000000000000000000000000000000000000602082015250565b60006151d7602483613ef6565b91506151e28261517b565b602482019050919050565b7f222f3e3c2f6c696e6561724772616469656e743e000000000000000000000000600082015250565b6000615223601483613ef6565b915061522e826151ed565b601482019050919050565b7f3c67207472616e73666f726d3d226d617472697828302e3936363533392c302c60008201527f302c302e3936363533392c342e39333132362c342e393035383629223e3c706160208201527f7468207374796c653d2266696c6c3a75726c2823000000000000000000000000604082015250565b60006152bb605483613ef6565b91506152c682615239565b605482019050919050565b7f293b2220643d224d302e3037312c3230312e3834384c3330302e3131312c323060008201527f312e3834384c3330302e3131312c31302e323732433330302e3131312c342e3660208201527f3536203239352e3535322c302e303937203238392e3933362c302e3039374c3160408201527f302e3234352c302e30393743342e36332c302e30393720302e3037312c342e3660608201527f353620302e3037312c31302e3237324c302e3037312c3230312e3834385a222f60808201527f3e3c2f673e00000000000000000000000000000000000000000000000000000060a082015250565b60006153c560a583613ef6565b91506153d0826152d1565b60a582019050919050565b7f3c67207472616e73666f726d3d226d617472697828312e363637392c302c302c60008201527f312e363637392c2d32352c2d343029223e3c7465787420783d2232347078222060208201527f793d22353470782220636c6173733d22733120733262207333223e455448204160408201527f746c616e7469733c2f746578743e3c2f673e0000000000000000000000000000606082015250565b6000615483607283613ef6565b915061548e826153db565b607282019050919050565b7f3c67207472616e73666f726d3d226d617472697828312e363637392c302c302c60008201527f312e363637392c2d32352c2d313029223e3c7465787420783d2232347078222060208201527f793d22353470782220636c6173733d22733120733262207335223e323032342c60408201527f204a756c792034202f2000000000000000000000000000000000000000000000606082015250565b6000615541606a83613ef6565b915061554c82615499565b606a82019050919050565b7f3c67207472616e73666f726d3d226d617472697828312e363637392c302c302c60008201527f312e363637392c2d32352c383529223e3c7465787420783d223234707822207960208201527f3d22353470782220636c6173733d22733120733262207338223e000000000000604082015250565b60006155d9605a83613ef6565b91506155e482615557565b605a82019050919050565b60006155fa826150e6565b9150615606828961400b565b915061561182615158565b915061561d828861400b565b9150615628826151ca565b9150615634828761400b565b915061563f82615216565b915061564a826152ae565b9150615656828661400b565b9150615661826153b8565b915061566c82615476565b915061567782615534565b9150615683828561400b565b915061568e82614f43565b9150615699826155cc565b91506156a5828461400b565b91506156b082614f43565b9150819050979650505050505050565b60006156cb8261359c565b91506156d68361359c565b92508282019050808211156156ee576156ed613e0b565b5b92915050565b7f4e487b7100000000000000000000000000000000000000000000000000000000600052601260045260246000fd5b600061572e8261359c565b91506157398361359c565b925082615749576157486156f4565b5b828204905092915050565b600061575f8261359c565b915061576a8361359c565b92508282026157788161359c565b9150828204841483151761578f5761578e613e0b565b5b5092915050565b7f4f776e61626c653a2063616c6c6572206973206e6f7420746865206f776e6572600082015250565b60006157cc6020836134f5565b91506157d782615796565b602082019050919050565b600060208201905081810360008301526157fb816157bf565b9050919050565b7f4552433732313a20617070726f766520746f2063616c6c657200000000000000600082015250565b60006158386019836134f5565b915061584382615802565b602082019050919050565b600060208201905081810360008301526158678161582b565b9050919050565b7f4552433732313a207472616e7366657220746f206e6f6e20455243373231526560008201527f63656976657220696d706c656d656e7465720000000000000000000000000000602082015250565b60006158ca6032836134f5565b91506158d58261586e565b604082019050919050565b600060208201905081810360008301526158f9816158bd565b9050919050565b600061590b8261359c565b91506000820361591e5761591d613e0b565b5b600182039050919050565b7f455243373231456e756d657261626c653a20636f6e736563757469766520747260008201527f616e7366657273206e6f7420737570706f727465640000000000000000000000602082015250565b60006159856035836134f5565b915061599082615929565b604082019050919050565b600060208201905081810360008301526159b481615978565b9050919050565b7f537472696e67733a20686578206c656e67746820696e73756666696369656e74600082015250565b60006159f16020836134f5565b91506159fc826159bb565b602082019050919050565b60006020820190508181036000830152615a20816159e4565b9050919050565b600082825260208201905092915050565b6000615a4382614acc565b615a4d8185615a27565b9350615a5d818560208601613506565b615a6681613530565b840191505092915050565b6000608082019050615a866000830187613631565b615a936020830186613631565b615aa060408301856136c7565b8181036060830152615ab28184615a38565b905095945050505050565b600081519050615acc8161345b565b92915050565b600060208284031215615ae857615ae7613425565b5b6000615af684828501615abd565b91505092915050565b7f4552433732313a206d696e7420746f20746865207a65726f2061646472657373600082015250565b6000615b356020836134f5565b9150615b4082615aff565b602082019050919050565b60006020820190508181036000830152615b6481615b28565b9050919050565b7f4552433732313a20746f6b656e20616c7265616479206d696e74656400000000600082015250565b6000615ba1601c836134f5565b9150615bac82615b6b565b602082019050919050565b60006020820190508181036000830152615bd081615b94565b9050919050565b6000615be28261359c565b9150615bed8361359c565b9250828203905081811115615c0557615c04613e0b565b5b92915050565b7f4e487b7100000000000000000000000000000000000000000000000000000000600052603160045260246000fdfe4142434445464748494a4b4c4d4e4f505152535455565758595a6162636465666768696a6b6c6d6e6f707172737475767778797a303132333435363738392b2fa2646970667358221220f60efa27dca66206deb24fc38f424b7892d6a5fd50ea4313f250a492559eb60064736f6c63430008130033","opcodes":"PUSH1 0x80 PUSH1 0x40 MSTORE PUSH1 0x0 PUSH1 0xC PUSH1 0x0 PUSH2 0x100 EXP DUP2 SLOAD DUP2 PUSH2 0xFFFF MUL NOT AND SWAP1 DUP4 PUSH2 0xFFFF AND MUL OR SWAP1 SSTORE POP PUSH2 0x2327 PUSH1 0xC PUSH1 0x16 PUSH2 0x100 EXP DUP2 SLOAD DUP2 PUSH2 0xFFFF MUL NOT AND SWAP1 DUP4 PUSH2 0xFFFF AND MUL OR SWAP1 SSTORE POP PUSH3 0x93A80 TIMESTAMP PUSH3 0x52 SWAP2 SWAP1 PUSH3 0x26F JUMP JUMPDEST PUSH1 0xF SSTORE CALLVALUE DUP1 ISZERO PUSH3 0x62 JUMPI PUSH1 0x0 DUP1 REVERT JUMPDEST POP PUSH1 0x40 MLOAD DUP1 PUSH1 0x40 ADD PUSH1 0x40 MSTORE DUP1 PUSH1 0xA DUP2 MSTORE PUSH1 0x20 ADD PUSH32 0x4554485469636B65747300000000000000000000000000000000000000000000 DUP2 MSTORE POP PUSH1 0x40 MLOAD DUP1 PUSH1 0x40 ADD PUSH1 0x40 MSTORE DUP1 PUSH1 0x5 DUP2 MSTORE PUSH1 0x20 ADD PUSH32 0x4554485458000000000000000000000000000000000000000000000000000000 DUP2 MSTORE POP DUP2 PUSH1 0x0 SWAP1 DUP2 PUSH3 0xE0 SWAP2 SWAP1 PUSH3 0x51A JUMP JUMPDEST POP DUP1 PUSH1 0x1 SWAP1 DUP2 PUSH3 0xF2 SWAP2 SWAP1 PUSH3 0x51A JUMP JUMPDEST POP POP POP PUSH3 0x115 PUSH3 0x109 PUSH3 0x168 PUSH1 0x20 SHL PUSH1 0x20 SHR JUMP JUMPDEST PUSH3 0x170 PUSH1 0x20 SHL PUSH1 0x20 SHR JUMP JUMPDEST PUSH2 0x3E7 PUSH1 0xB PUSH1 0x0 ADD DUP2 SWAP1 SSTORE POP CALLER PUSH1 0xC PUSH1 0x2 PUSH2 0x100 EXP DUP2 SLOAD DUP2 PUSH20 0xFFFFFFFFFFFFFFFFFFFFFFFFFFFFFFFFFFFFFFFF MUL NOT AND SWAP1 DUP4 PUSH20 0xFFFFFFFFFFFFFFFFFFFFFFFFFFFFFFFFFFFFFFFF AND MUL OR SWAP1 SSTORE POP PUSH3 0x601 JUMP JUMPDEST PUSH1 0x0 CALLER SWAP1 POP SWAP1 JUMP JUMPDEST PUSH1 0x0 PUSH1 0xA PUSH1 0x0 SWAP1 SLOAD SWAP1 PUSH2 0x100 EXP SWAP1 DIV PUSH20 0xFFFFFFFFFFFFFFFFFFFFFFFFFFFFFFFFFFFFFFFF AND SWAP1 POP DUP2 PUSH1 0xA PUSH1 0x0 PUSH2 0x100 EXP DUP2 SLOAD DUP2 PUSH20 0xFFFFFFFFFFFFFFFFFFFFFFFFFFFFFFFFFFFFFFFF MUL NOT AND SWAP1 DUP4 PUSH20 0xFFFFFFFFFFFFFFFFFFFFFFFFFFFFFFFFFFFFFFFF AND MUL OR SWAP1 SSTORE POP DUP2 PUSH20 0xFFFFFFFFFFFFFFFFFFFFFFFFFFFFFFFFFFFFFFFF AND DUP2 PUSH20 0xFFFFFFFFFFFFFFFFFFFFFFFFFFFFFFFFFFFFFFFF AND PUSH32 0x8BE0079C531659141344CD1FD0A4F28419497F9722A3DAAFE3B4186F6B6457E0 PUSH1 0x40 MLOAD PUSH1 0x40 MLOAD DUP1 SWAP2 SUB SWAP1 LOG3 POP POP JUMP JUMPDEST PUSH1 0x0 DUP2 SWAP1 POP SWAP2 SWAP1 POP JUMP JUMPDEST PUSH32 0x4E487B7100000000000000000000000000000000000000000000000000000000 PUSH1 0x0 MSTORE PUSH1 0x11 PUSH1 0x4 MSTORE PUSH1 0x24 PUSH1 0x0 REVERT JUMPDEST PUSH1 0x0 PUSH3 0x27C DUP3 PUSH3 0x236 JUMP JUMPDEST SWAP2 POP PUSH3 0x289 DUP4 PUSH3 0x236 JUMP JUMPDEST SWAP3 POP DUP3 DUP3 ADD SWAP1 POP DUP1 DUP3 GT ISZERO PUSH3 0x2A4 JUMPI PUSH3 0x2A3 PUSH3 0x240 JUMP JUMPDEST JUMPDEST SWAP3 SWAP2 POP POP JUMP JUMPDEST PUSH1 0x0 DUP2 MLOAD SWAP1 POP SWAP2 SWAP1 POP JUMP JUMPDEST PUSH32 0x4E487B7100000000000000000000000000000000000000000000000000000000 PUSH1 0x0 MSTORE PUSH1 0x41 PUSH1 0x4 MSTORE PUSH1 0x24 PUSH1 0x0 REVERT JUMPDEST PUSH32 0x4E487B7100000000000000000000000000000000000000000000000000000000 PUSH1 0x0 MSTORE PUSH1 0x22 PUSH1 0x4 MSTORE PUSH1 0x24 PUSH1 0x0 REVERT JUMPDEST PUSH1 0x0 PUSH1 0x2 DUP3 DIV SWAP1 POP PUSH1 0x1 DUP3 AND DUP1 PUSH3 0x32C JUMPI PUSH1 0x7F DUP3 AND SWAP2 POP JUMPDEST PUSH1 0x20 DUP3 LT DUP2 SUB PUSH3 0x342 JUMPI PUSH3 0x341 PUSH3 0x2E4 JUMP JUMPDEST JUMPDEST POP SWAP2 SWAP1 POP JUMP JUMPDEST PUSH1 0x0 DUP2 SWAP1 POP DUP2 PUSH1 0x0 MSTORE PUSH1 0x20 PUSH1 0x0 KECCAK256 SWAP1 POP SWAP2 SWAP1 POP JUMP JUMPDEST PUSH1 0x0 PUSH1 0x20 PUSH1 0x1F DUP4 ADD DIV SWAP1 POP SWAP2 SWAP1 POP JUMP JUMPDEST PUSH1 0x0 DUP3 DUP3 SHL SWAP1 POP SWAP3 SWAP2 POP POP JUMP JUMPDEST PUSH1 0x0 PUSH1 0x8 DUP4 MUL PUSH3 0x3AC PUSH32 0xFFFFFFFFFFFFFFFFFFFFFFFFFFFFFFFFFFFFFFFFFFFFFFFFFFFFFFFFFFFFFFFF DUP3 PUSH3 0x36D JUMP JUMPDEST PUSH3 0x3B8 DUP7 DUP4 PUSH3 0x36D JUMP JUMPDEST SWAP6 POP DUP1 NOT DUP5 AND SWAP4 POP DUP1 DUP7 AND DUP5 OR SWAP3 POP POP POP SWAP4 SWAP3 POP POP POP JUMP JUMPDEST PUSH1 0x0 DUP2 SWAP1 POP SWAP2 SWAP1 POP JUMP JUMPDEST PUSH1 0x0 PUSH3 0x3FB PUSH3 0x3F5 PUSH3 0x3EF DUP5 PUSH3 0x236 JUMP JUMPDEST PUSH3 0x3D0 JUMP JUMPDEST PUSH3 0x236 JUMP JUMPDEST SWAP1 POP SWAP2 SWAP1 POP JUMP JUMPDEST PUSH1 0x0 DUP2 SWAP1 POP SWAP2 SWAP1 POP JUMP JUMPDEST PUSH3 0x417 DUP4 PUSH3 0x3DA JUMP JUMPDEST PUSH3 0x42F PUSH3 0x426 DUP3 PUSH3 0x402 JUMP JUMPDEST DUP5 DUP5 SLOAD PUSH3 0x37A JUMP JUMPDEST DUP3 SSTORE POP POP POP POP JUMP JUMPDEST PUSH1 0x0 SWAP1 JUMP JUMPDEST PUSH3 0x446 PUSH3 0x437 JUMP JUMPDEST PUSH3 0x453 DUP2 DUP5 DUP5 PUSH3 0x40C JUMP JUMPDEST POP POP POP JUMP JUMPDEST JUMPDEST DUP2 DUP2 LT ISZERO PUSH3 0x47B JUMPI PUSH3 0x46F PUSH1 0x0 DUP3 PUSH3 0x43C JUMP JUMPDEST PUSH1 0x1 DUP2 ADD SWAP1 POP PUSH3 0x459 JUMP JUMPDEST POP POP JUMP JUMPDEST PUSH1 0x1F DUP3 GT ISZERO PUSH3 0x4CA JUMPI PUSH3 0x494 DUP2 PUSH3 0x348 JUMP JUMPDEST PUSH3 0x49F DUP5 PUSH3 0x35D JUMP JUMPDEST DUP2 ADD PUSH1 0x20 DUP6 LT ISZERO PUSH3 0x4AF JUMPI DUP2 SWAP1 POP JUMPDEST PUSH3 0x4C7 PUSH3 0x4BE DUP6 PUSH3 0x35D JUMP JUMPDEST DUP4 ADD DUP3 PUSH3 0x458 JUMP JUMPDEST POP POP JUMPDEST POP POP POP JUMP JUMPDEST PUSH1 0x0 DUP3 DUP3 SHR SWAP1 POP SWAP3 SWAP2 POP POP JUMP JUMPDEST PUSH1 0x0 PUSH3 0x4EF PUSH1 0x0 NOT DUP5 PUSH1 0x8 MUL PUSH3 0x4CF JUMP JUMPDEST NOT DUP1 DUP4 AND SWAP2 POP POP SWAP3 SWAP2 POP POP JUMP JUMPDEST PUSH1 0x0 PUSH3 0x50A DUP4 DUP4 PUSH3 0x4DC JUMP JUMPDEST SWAP2 POP DUP3 PUSH1 0x2 MUL DUP3 OR SWAP1 POP SWAP3 SWAP2 POP POP JUMP JUMPDEST PUSH3 0x525 DUP3 PUSH3 0x2AA JUMP JUMPDEST PUSH8 0xFFFFFFFFFFFFFFFF DUP2 GT ISZERO PUSH3 0x541 JUMPI PUSH3 0x540 PUSH3 0x2B5 JUMP JUMPDEST JUMPDEST PUSH3 0x54D DUP3 SLOAD PUSH3 0x313 JUMP JUMPDEST PUSH3 0x55A DUP3 DUP3 DUP6 PUSH3 0x47F JUMP JUMPDEST PUSH1 0x0 PUSH1 0x20 SWAP1 POP PUSH1 0x1F DUP4 GT PUSH1 0x1 DUP2 EQ PUSH3 0x592 JUMPI PUSH1 0x0 DUP5 ISZERO PUSH3 0x57D JUMPI DUP3 DUP8 ADD MLOAD SWAP1 POP JUMPDEST PUSH3 0x589 DUP6 DUP3 PUSH3 0x4FC JUMP JUMPDEST DUP7 SSTORE POP PUSH3 0x5F9 JUMP JUMPDEST PUSH1 0x1F NOT DUP5 AND PUSH3 0x5A2 DUP7 PUSH3 0x348 JUMP JUMPDEST PUSH1 0x0 JUMPDEST DUP3 DUP2 LT ISZERO PUSH3 0x5CC JUMPI DUP5 DUP10 ADD MLOAD DUP3 SSTORE PUSH1 0x1 DUP3 ADD SWAP2 POP PUSH1 0x20 DUP6 ADD SWAP5 POP PUSH1 0x20 DUP2 ADD SWAP1 POP PUSH3 0x5A5 JUMP JUMPDEST DUP7 DUP4 LT ISZERO PUSH3 0x5EC JUMPI DUP5 DUP10 ADD MLOAD PUSH3 0x5E8 PUSH1 0x1F DUP10 AND DUP3 PUSH3 0x4DC JUMP JUMPDEST DUP4 SSTORE POP JUMPDEST PUSH1 0x1 PUSH1 0x2 DUP9 MUL ADD DUP9 SSTORE POP POP POP JUMPDEST POP POP POP POP POP POP JUMP JUMPDEST PUSH2 0x5CB0 DUP1 PUSH3 0x611 PUSH1 0x0 CODECOPY PUSH1 0x0 RETURN INVALID PUSH1 0x80 PUSH1 0x40 MSTORE PUSH1 0x4 CALLDATASIZE LT PUSH2 0x1B7 JUMPI PUSH1 0x0 CALLDATALOAD PUSH1 0xE0 SHR DUP1 PUSH4 0x4F6CCCE7 GT PUSH2 0xEC JUMPI DUP1 PUSH4 0xA22CB465 GT PUSH2 0x8A JUMPI DUP1 PUSH4 0xD4E28C9C GT PUSH2 0x64 JUMPI DUP1 PUSH4 0xD4E28C9C EQ PUSH2 0x64D JUMPI DUP1 PUSH4 0xE8A3D485 EQ PUSH2 0x68A JUMPI DUP1 PUSH4 0xE985E9C5 EQ PUSH2 0x6B5 JUMPI DUP1 PUSH4 0xF2FDE38B EQ PUSH2 0x6F2 JUMPI PUSH2 0x1B7 JUMP JUMPDEST DUP1 PUSH4 0xA22CB465 EQ PUSH2 0x5BE JUMPI DUP1 PUSH4 0xB88D4FDE EQ PUSH2 0x5E7 JUMPI DUP1 PUSH4 0xC87B56DD EQ PUSH2 0x610 JUMPI PUSH2 0x1B7 JUMP JUMPDEST DUP1 PUSH4 0x715018A6 GT PUSH2 0xC6 JUMPI DUP1 PUSH4 0x715018A6 EQ PUSH2 0x514 JUMPI DUP1 PUSH4 0x8146581A EQ PUSH2 0x52B JUMPI DUP1 PUSH4 0x8DA5CB5B EQ PUSH2 0x568 JUMPI DUP1 PUSH4 0x95D89B41 EQ PUSH2 0x593 JUMPI PUSH2 0x1B7 JUMP JUMPDEST DUP1 PUSH4 0x4F6CCCE7 EQ PUSH2 0x45D JUMPI DUP1 PUSH4 0x6352211E EQ PUSH2 0x49A JUMPI DUP1 PUSH4 0x70A08231 EQ PUSH2 0x4D7 JUMPI PUSH2 0x1B7 JUMP JUMPDEST DUP1 PUSH4 0x26FF40DE GT PUSH2 0x159 JUMPI DUP1 PUSH4 0x32CB6B0C GT PUSH2 0x133 JUMPI DUP1 PUSH4 0x32CB6B0C EQ PUSH2 0x3A1 JUMPI DUP1 PUSH4 0x42842E0E EQ PUSH2 0x3CC JUMPI DUP1 PUSH4 0x438B6300 EQ PUSH2 0x3F5 JUMPI DUP1 PUSH4 0x44C485A3 EQ PUSH2 0x432 JUMPI PUSH2 0x1B7 JUMP JUMPDEST DUP1 PUSH4 0x26FF40DE EQ PUSH2 0x2FC JUMPI DUP1 PUSH4 0x2BB2C9CB EQ PUSH2 0x327 JUMPI DUP1 PUSH4 0x2F745C59 EQ PUSH2 0x364 JUMPI PUSH2 0x1B7 JUMP JUMPDEST DUP1 PUSH4 0x95EA7B3 GT PUSH2 0x195 JUMPI DUP1 PUSH4 0x95EA7B3 EQ PUSH2 0x261 JUMPI DUP1 PUSH4 0x14F710FE EQ PUSH2 0x28A JUMPI DUP1 PUSH4 0x18160DDD EQ PUSH2 0x2A8 JUMPI DUP1 PUSH4 0x23B872DD EQ PUSH2 0x2D3 JUMPI PUSH2 0x1B7 JUMP JUMPDEST DUP1 PUSH4 0x1FFC9A7 EQ PUSH2 0x1BC JUMPI DUP1 PUSH4 0x6FDDE03 EQ PUSH2 0x1F9 JUMPI DUP1 PUSH4 0x81812FC EQ PUSH2 0x224 JUMPI JUMPDEST PUSH1 0x0 DUP1 REVERT JUMPDEST CALLVALUE DUP1 ISZERO PUSH2 0x1C8 JUMPI PUSH1 0x0 DUP1 REVERT JUMPDEST POP PUSH2 0x1E3 PUSH1 0x4 DUP1 CALLDATASIZE SUB DUP2 ADD SWAP1 PUSH2 0x1DE SWAP2 SWAP1 PUSH2 0x3487 JUMP JUMPDEST PUSH2 0x71B JUMP JUMPDEST PUSH1 0x40 MLOAD PUSH2 0x1F0 SWAP2 SWAP1 PUSH2 0x34CF JUMP JUMPDEST PUSH1 0x40 MLOAD DUP1 SWAP2 SUB SWAP1 RETURN JUMPDEST CALLVALUE DUP1 ISZERO PUSH2 0x205 JUMPI PUSH1 0x0 DUP1 REVERT JUMPDEST POP PUSH2 0x20E PUSH2 0x795 JUMP JUMPDEST PUSH1 0x40 MLOAD PUSH2 0x21B SWAP2 SWAP1 PUSH2 0x357A JUMP JUMPDEST PUSH1 0x40 MLOAD DUP1 SWAP2 SUB SWAP1 RETURN JUMPDEST CALLVALUE DUP1 ISZERO PUSH2 0x230 JUMPI PUSH1 0x0 DUP1 REVERT JUMPDEST POP PUSH2 0x24B PUSH1 0x4 DUP1 CALLDATASIZE SUB DUP2 ADD SWAP1 PUSH2 0x246 SWAP2 SWAP1 PUSH2 0x35D2 JUMP JUMPDEST PUSH2 0x827 JUMP JUMPDEST PUSH1 0x40 MLOAD PUSH2 0x258 SWAP2 SWAP1 PUSH2 0x3640 JUMP JUMPDEST PUSH1 0x40 MLOAD DUP1 SWAP2 SUB SWAP1 RETURN JUMPDEST CALLVALUE DUP1 ISZERO PUSH2 0x26D JUMPI PUSH1 0x0 DUP1 REVERT JUMPDEST POP PUSH2 0x288 PUSH1 0x4 DUP1 CALLDATASIZE SUB DUP2 ADD SWAP1 PUSH2 0x283 SWAP2 SWAP1 PUSH2 0x3687 JUMP JUMPDEST PUSH2 0x86D JUMP JUMPDEST STOP JUMPDEST PUSH2 0x292 PUSH2 0x984 JUMP JUMPDEST PUSH1 0x40 MLOAD PUSH2 0x29F SWAP2 SWAP1 PUSH2 0x36D6 JUMP JUMPDEST PUSH1 0x40 MLOAD DUP1 SWAP2 SUB SWAP1 RETURN JUMPDEST CALLVALUE DUP1 ISZERO PUSH2 0x2B4 JUMPI PUSH1 0x0 DUP1 REVERT JUMPDEST POP PUSH2 0x2BD PUSH2 0xB96 JUMP JUMPDEST PUSH1 0x40 MLOAD PUSH2 0x2CA SWAP2 SWAP1 PUSH2 0x36D6 JUMP JUMPDEST PUSH1 0x40 MLOAD DUP1 SWAP2 SUB SWAP1 RETURN JUMPDEST CALLVALUE DUP1 ISZERO PUSH2 0x2DF JUMPI PUSH1 0x0 DUP1 REVERT JUMPDEST POP PUSH2 0x2FA PUSH1 0x4 DUP1 CALLDATASIZE SUB DUP2 ADD SWAP1 PUSH2 0x2F5 SWAP2 SWAP1 PUSH2 0x36F1 JUMP JUMPDEST PUSH2 0xBB2 JUMP JUMPDEST STOP JUMPDEST CALLVALUE DUP1 ISZERO PUSH2 0x308 JUMPI PUSH1 0x0 DUP1 REVERT JUMPDEST POP PUSH2 0x311 PUSH2 0xC12 JUMP JUMPDEST PUSH1 0x40 MLOAD PUSH2 0x31E SWAP2 SWAP1 PUSH2 0x36D6 JUMP JUMPDEST PUSH1 0x40 MLOAD DUP1 SWAP2 SUB SWAP1 RETURN JUMPDEST CALLVALUE DUP1 ISZERO PUSH2 0x333 JUMPI PUSH1 0x0 DUP1 REVERT JUMPDEST POP PUSH2 0x34E PUSH1 0x4 DUP1 CALLDATASIZE SUB DUP2 ADD SWAP1 PUSH2 0x349 SWAP2 SWAP1 PUSH2 0x35D2 JUMP JUMPDEST PUSH2 0xC1D JUMP JUMPDEST PUSH1 0x40 MLOAD PUSH2 0x35B SWAP2 SWAP1 PUSH2 0x357A JUMP JUMPDEST PUSH1 0x40 MLOAD DUP1 SWAP2 SUB SWAP1 RETURN JUMPDEST CALLVALUE DUP1 ISZERO PUSH2 0x370 JUMPI PUSH1 0x0 DUP1 REVERT JUMPDEST POP PUSH2 0x38B PUSH1 0x4 DUP1 CALLDATASIZE SUB DUP2 ADD SWAP1 PUSH2 0x386 SWAP2 SWAP1 PUSH2 0x3687 JUMP JUMPDEST PUSH2 0xC7F JUMP JUMPDEST PUSH1 0x40 MLOAD PUSH2 0x398 SWAP2 SWAP1 PUSH2 0x36D6 JUMP JUMPDEST PUSH1 0x40 MLOAD DUP1 SWAP2 SUB SWAP1 RETURN JUMPDEST CALLVALUE DUP1 ISZERO PUSH2 0x3AD JUMPI PUSH1 0x0 DUP1 REVERT JUMPDEST POP PUSH2 0x3B6 PUSH2 0xD24 JUMP JUMPDEST PUSH1 0x40 MLOAD PUSH2 0x3C3 SWAP2 SWAP1 PUSH2 0x3761 JUMP JUMPDEST PUSH1 0x40 MLOAD DUP1 SWAP2 SUB SWAP1 RETURN JUMPDEST CALLVALUE DUP1 ISZERO PUSH2 0x3D8 JUMPI PUSH1 0x0 DUP1 REVERT JUMPDEST POP PUSH2 0x3F3 PUSH1 0x4 DUP1 CALLDATASIZE SUB DUP2 ADD SWAP1 PUSH2 0x3EE SWAP2 SWAP1 PUSH2 0x36F1 JUMP JUMPDEST PUSH2 0xD38 JUMP JUMPDEST STOP JUMPDEST CALLVALUE DUP1 ISZERO PUSH2 0x401 JUMPI PUSH1 0x0 DUP1 REVERT JUMPDEST POP PUSH2 0x41C PUSH1 0x4 DUP1 CALLDATASIZE SUB DUP2 ADD SWAP1 PUSH2 0x417 SWAP2 SWAP1 PUSH2 0x377C JUMP JUMPDEST PUSH2 0xD58 JUMP JUMPDEST PUSH1 0x40 MLOAD PUSH2 0x429 SWAP2 SWAP1 PUSH2 0x3867 JUMP JUMPDEST PUSH1 0x40 MLOAD DUP1 SWAP2 SUB SWAP1 RETURN JUMPDEST CALLVALUE DUP1 ISZERO PUSH2 0x43E JUMPI PUSH1 0x0 DUP1 REVERT JUMPDEST POP PUSH2 0x447 PUSH2 0xE06 JUMP JUMPDEST PUSH1 0x40 MLOAD PUSH2 0x454 SWAP2 SWAP1 PUSH2 0x36D6 JUMP JUMPDEST PUSH1 0x40 MLOAD DUP1 SWAP2 SUB SWAP1 RETURN JUMPDEST CALLVALUE DUP1 ISZERO PUSH2 0x469 JUMPI PUSH1 0x0 DUP1 REVERT JUMPDEST POP PUSH2 0x484 PUSH1 0x4 DUP1 CALLDATASIZE SUB DUP2 ADD SWAP1 PUSH2 0x47F SWAP2 SWAP1 PUSH2 0x35D2 JUMP JUMPDEST PUSH2 0xE11 JUMP JUMPDEST PUSH1 0x40 MLOAD PUSH2 0x491 SWAP2 SWAP1 PUSH2 0x36D6 JUMP JUMPDEST PUSH1 0x40 MLOAD DUP1 SWAP2 SUB SWAP1 RETURN JUMPDEST CALLVALUE DUP1 ISZERO PUSH2 0x4A6 JUMPI PUSH1 0x0 DUP1 REVERT JUMPDEST POP PUSH2 0x4C1 PUSH1 0x4 DUP1 CALLDATASIZE SUB DUP2 ADD SWAP1 PUSH2 0x4BC SWAP2 SWAP1 PUSH2 0x35D2 JUMP JUMPDEST PUSH2 0xE82 JUMP JUMPDEST PUSH1 0x40 MLOAD PUSH2 0x4CE SWAP2 SWAP1 PUSH2 0x3640 JUMP JUMPDEST PUSH1 0x40 MLOAD DUP1 SWAP2 SUB SWAP1 RETURN JUMPDEST CALLVALUE DUP1 ISZERO PUSH2 0x4E3 JUMPI PUSH1 0x0 DUP1 REVERT JUMPDEST POP PUSH2 0x4FE PUSH1 0x4 DUP1 CALLDATASIZE SUB DUP2 ADD SWAP1 PUSH2 0x4F9 SWAP2 SWAP1 PUSH2 0x377C JUMP JUMPDEST PUSH2 0xF08 JUMP JUMPDEST PUSH1 0x40 MLOAD PUSH2 0x50B SWAP2 SWAP1 PUSH2 0x36D6 JUMP JUMPDEST PUSH1 0x40 MLOAD DUP1 SWAP2 SUB SWAP1 RETURN JUMPDEST CALLVALUE DUP1 ISZERO PUSH2 0x520 JUMPI PUSH1 0x0 DUP1 REVERT JUMPDEST POP PUSH2 0x529 PUSH2 0xFBF JUMP JUMPDEST STOP JUMPDEST CALLVALUE DUP1 ISZERO PUSH2 0x537 JUMPI PUSH1 0x0 DUP1 REVERT JUMPDEST POP PUSH2 0x552 PUSH1 0x4 DUP1 CALLDATASIZE SUB DUP2 ADD SWAP1 PUSH2 0x54D SWAP2 SWAP1 PUSH2 0x35D2 JUMP JUMPDEST PUSH2 0xFD3 JUMP JUMPDEST PUSH1 0x40 MLOAD PUSH2 0x55F SWAP2 SWAP1 PUSH2 0x34CF JUMP JUMPDEST PUSH1 0x40 MLOAD DUP1 SWAP2 SUB SWAP1 RETURN JUMPDEST CALLVALUE DUP1 ISZERO PUSH2 0x574 JUMPI PUSH1 0x0 DUP1 REVERT JUMPDEST POP PUSH2 0x57D PUSH2 0xFF3 JUMP JUMPDEST PUSH1 0x40 MLOAD PUSH2 0x58A SWAP2 SWAP1 PUSH2 0x3640 JUMP JUMPDEST PUSH1 0x40 MLOAD DUP1 SWAP2 SUB SWAP1 RETURN JUMPDEST CALLVALUE DUP1 ISZERO PUSH2 0x59F JUMPI PUSH1 0x0 DUP1 REVERT JUMPDEST POP PUSH2 0x5A8 PUSH2 0x101D JUMP JUMPDEST PUSH1 0x40 MLOAD PUSH2 0x5B5 SWAP2 SWAP1 PUSH2 0x357A JUMP JUMPDEST PUSH1 0x40 MLOAD DUP1 SWAP2 SUB SWAP1 RETURN JUMPDEST CALLVALUE DUP1 ISZERO PUSH2 0x5CA JUMPI PUSH1 0x0 DUP1 REVERT JUMPDEST POP PUSH2 0x5E5 PUSH1 0x4 DUP1 CALLDATASIZE SUB DUP2 ADD SWAP1 PUSH2 0x5E0 SWAP2 SWAP1 PUSH2 0x38B5 JUMP JUMPDEST PUSH2 0x10AF JUMP JUMPDEST STOP JUMPDEST CALLVALUE DUP1 ISZERO PUSH2 0x5F3 JUMPI PUSH1 0x0 DUP1 REVERT JUMPDEST POP PUSH2 0x60E PUSH1 0x4 DUP1 CALLDATASIZE SUB DUP2 ADD SWAP1 PUSH2 0x609 SWAP2 SWAP1 PUSH2 0x3A2A JUMP JUMPDEST PUSH2 0x10C5 JUMP JUMPDEST STOP JUMPDEST CALLVALUE DUP1 ISZERO PUSH2 0x61C JUMPI PUSH1 0x0 DUP1 REVERT JUMPDEST POP PUSH2 0x637 PUSH1 0x4 DUP1 CALLDATASIZE SUB DUP2 ADD SWAP1 PUSH2 0x632 SWAP2 SWAP1 PUSH2 0x35D2 JUMP JUMPDEST PUSH2 0x1127 JUMP JUMPDEST PUSH1 0x40 MLOAD PUSH2 0x644 SWAP2 SWAP1 PUSH2 0x357A JUMP JUMPDEST PUSH1 0x40 MLOAD DUP1 SWAP2 SUB SWAP1 RETURN JUMPDEST CALLVALUE DUP1 ISZERO PUSH2 0x659 JUMPI PUSH1 0x0 DUP1 REVERT JUMPDEST POP PUSH2 0x674 PUSH1 0x4 DUP1 CALLDATASIZE SUB DUP2 ADD SWAP1 PUSH2 0x66F SWAP2 SWAP1 PUSH2 0x35D2 JUMP JUMPDEST PUSH2 0x1384 JUMP JUMPDEST PUSH1 0x40 MLOAD PUSH2 0x681 SWAP2 SWAP1 PUSH2 0x3AE8 JUMP JUMPDEST PUSH1 0x40 MLOAD DUP1 SWAP2 SUB SWAP1 RETURN JUMPDEST CALLVALUE DUP1 ISZERO PUSH2 0x696 JUMPI PUSH1 0x0 DUP1 REVERT JUMPDEST POP PUSH2 0x69F PUSH2 0x13A4 JUMP JUMPDEST PUSH1 0x40 MLOAD PUSH2 0x6AC SWAP2 SWAP1 PUSH2 0x357A JUMP JUMPDEST PUSH1 0x40 MLOAD DUP1 SWAP2 SUB SWAP1 RETURN JUMPDEST CALLVALUE DUP1 ISZERO PUSH2 0x6C1 JUMPI PUSH1 0x0 DUP1 REVERT JUMPDEST POP PUSH2 0x6DC PUSH1 0x4 DUP1 CALLDATASIZE SUB DUP2 ADD SWAP1 PUSH2 0x6D7 SWAP2 SWAP1 PUSH2 0x3B03 JUMP JUMPDEST PUSH2 0x1415 JUMP JUMPDEST PUSH1 0x40 MLOAD PUSH2 0x6E9 SWAP2 SWAP1 PUSH2 0x34CF JUMP JUMPDEST PUSH1 0x40 MLOAD DUP1 SWAP2 SUB SWAP1 RETURN JUMPDEST CALLVALUE DUP1 ISZERO PUSH2 0x6FE JUMPI PUSH1 0x0 DUP1 REVERT JUMPDEST POP PUSH2 0x719 PUSH1 0x4 DUP1 CALLDATASIZE SUB DUP2 ADD SWAP1 PUSH2 0x714 SWAP2 SWAP1 PUSH2 0x377C JUMP JUMPDEST PUSH2 0x14A9 JUMP JUMPDEST STOP JUMPDEST PUSH1 0x0 PUSH32 0x780E9D6300000000000000000000000000000000000000000000000000000000 PUSH28 0xFFFFFFFFFFFFFFFFFFFFFFFFFFFFFFFFFFFFFFFFFFFFFFFFFFFFFFFF NOT AND DUP3 PUSH28 0xFFFFFFFFFFFFFFFFFFFFFFFFFFFFFFFFFFFFFFFFFFFFFFFFFFFFFFFF NOT AND EQ DUP1 PUSH2 0x78E JUMPI POP PUSH2 0x78D DUP3 PUSH2 0x152C JUMP JUMPDEST JUMPDEST SWAP1 POP SWAP2 SWAP1 POP JUMP JUMPDEST PUSH1 0x60 PUSH1 0x0 DUP1 SLOAD PUSH2 0x7A4 SWAP1 PUSH2 0x3B72 JUMP JUMPDEST DUP1 PUSH1 0x1F ADD PUSH1 0x20 DUP1 SWAP2 DIV MUL PUSH1 0x20 ADD PUSH1 0x40 MLOAD SWAP1 DUP2 ADD PUSH1 0x40 MSTORE DUP1 SWAP3 SWAP2 SWAP1 DUP2 DUP2 MSTORE PUSH1 0x20 ADD DUP3 DUP1 SLOAD PUSH2 0x7D0 SWAP1 PUSH2 0x3B72 JUMP JUMPDEST DUP1 ISZERO PUSH2 0x81D JUMPI DUP1 PUSH1 0x1F LT PUSH2 0x7F2 JUMPI PUSH2 0x100 DUP1 DUP4 SLOAD DIV MUL DUP4 MSTORE SWAP2 PUSH1 0x20 ADD SWAP2 PUSH2 0x81D JUMP JUMPDEST DUP3 ADD SWAP2 SWAP1 PUSH1 0x0 MSTORE PUSH1 0x20 PUSH1 0x0 KECCAK256 SWAP1 JUMPDEST DUP2 SLOAD DUP2 MSTORE SWAP1 PUSH1 0x1 ADD SWAP1 PUSH1 0x20 ADD DUP1 DUP4 GT PUSH2 0x800 JUMPI DUP3 SWAP1 SUB PUSH1 0x1F AND DUP3 ADD SWAP2 JUMPDEST POP POP POP POP POP SWAP1 POP SWAP1 JUMP JUMPDEST PUSH1 0x0 PUSH2 0x832 DUP3 PUSH2 0x160E JUMP JUMPDEST PUSH1 0x4 PUSH1 0x0 DUP4 DUP2 MSTORE PUSH1 0x20 ADD SWAP1 DUP2 MSTORE PUSH1 0x20 ADD PUSH1 0x0 KECCAK256 PUSH1 0x0 SWAP1 SLOAD SWAP1 PUSH2 0x100 EXP SWAP1 DIV PUSH20 0xFFFFFFFFFFFFFFFFFFFFFFFFFFFFFFFFFFFFFFFF AND SWAP1 POP SWAP2 SWAP1 POP JUMP JUMPDEST PUSH1 0x0 PUSH2 0x878 DUP3 PUSH2 0xE82 JUMP JUMPDEST SWAP1 POP DUP1 PUSH20 0xFFFFFFFFFFFFFFFFFFFFFFFFFFFFFFFFFFFFFFFF AND DUP4 PUSH20 0xFFFFFFFFFFFFFFFFFFFFFFFFFFFFFFFFFFFFFFFF AND SUB PUSH2 0x8E8 JUMPI PUSH1 0x40 MLOAD PUSH32 0x8C379A000000000000000000000000000000000000000000000000000000000 DUP2 MSTORE PUSH1 0x4 ADD PUSH2 0x8DF SWAP1 PUSH2 0x3C15 JUMP JUMPDEST PUSH1 0x40 MLOAD DUP1 SWAP2 SUB SWAP1 REVERT JUMPDEST DUP1 PUSH20 0xFFFFFFFFFFFFFFFFFFFFFFFFFFFFFFFFFFFFFFFF AND PUSH2 0x907 PUSH2 0x1659 JUMP JUMPDEST PUSH20 0xFFFFFFFFFFFFFFFFFFFFFFFFFFFFFFFFFFFFFFFF AND EQ DUP1 PUSH2 0x936 JUMPI POP PUSH2 0x935 DUP2 PUSH2 0x930 PUSH2 0x1659 JUMP JUMPDEST PUSH2 0x1415 JUMP JUMPDEST JUMPDEST PUSH2 0x975 JUMPI PUSH1 0x40 MLOAD PUSH32 0x8C379A000000000000000000000000000000000000000000000000000000000 DUP2 MSTORE PUSH1 0x4 ADD PUSH2 0x96C SWAP1 PUSH2 0x3CA7 JUMP JUMPDEST PUSH1 0x40 MLOAD DUP1 SWAP2 SUB SWAP1 REVERT JUMPDEST PUSH2 0x97F DUP4 DUP4 PUSH2 0x1661 JUMP JUMPDEST POP POP POP JUMP JUMPDEST PUSH1 0x0 PUSH1 0xC PUSH1 0x16 SWAP1 SLOAD SWAP1 PUSH2 0x100 EXP SWAP1 DIV PUSH2 0xFFFF AND PUSH2 0xFFFF AND PUSH1 0xC PUSH1 0x0 SWAP1 SLOAD SWAP1 PUSH2 0x100 EXP SWAP1 DIV PUSH2 0xFFFF AND PUSH2 0xFFFF AND LT PUSH2 0x9F0 JUMPI PUSH1 0x40 MLOAD PUSH32 0x8C379A000000000000000000000000000000000000000000000000000000000 DUP2 MSTORE PUSH1 0x4 ADD PUSH2 0x9E7 SWAP1 PUSH2 0x3D13 JUMP JUMPDEST PUSH1 0x40 MLOAD DUP1 SWAP2 SUB SWAP1 REVERT JUMPDEST PUSH1 0xF SLOAD TIMESTAMP LT PUSH2 0xA34 JUMPI PUSH1 0x40 MLOAD PUSH32 0x8C379A000000000000000000000000000000000000000000000000000000000 DUP2 MSTORE PUSH1 0x4 ADD PUSH2 0xA2B SWAP1 PUSH2 0x3D7F JUMP JUMPDEST PUSH1 0x40 MLOAD DUP1 SWAP2 SUB SWAP1 REVERT JUMPDEST CALLVALUE PUSH7 0x470DE4DF820000 EQ DUP1 PUSH2 0xA4F JUMPI POP CALLVALUE PUSH7 0x2386F26FC10000 EQ JUMPDEST PUSH2 0xA8E JUMPI PUSH1 0x40 MLOAD PUSH32 0x8C379A000000000000000000000000000000000000000000000000000000000 DUP2 MSTORE PUSH1 0x4 ADD PUSH2 0xA85 SWAP1 PUSH2 0x3DEB JUMP JUMPDEST PUSH1 0x40 MLOAD DUP1 SWAP2 SUB SWAP1 REVERT JUMPDEST PUSH2 0xA98 PUSH1 0xB PUSH2 0x171A JUMP JUMPDEST PUSH1 0x0 PUSH2 0xAA4 PUSH1 0xB PUSH2 0x1730 JUMP JUMPDEST SWAP1 POP PUSH2 0xAB0 CALLER DUP3 PUSH2 0x173E JUMP JUMPDEST PUSH7 0x470DE4DF820000 CALLVALUE SUB PUSH2 0xAEB JUMPI PUSH1 0x1 PUSH1 0xD PUSH1 0x0 DUP4 DUP2 MSTORE PUSH1 0x20 ADD SWAP1 DUP2 MSTORE PUSH1 0x20 ADD PUSH1 0x0 KECCAK256 PUSH1 0x0 PUSH2 0x100 EXP DUP2 SLOAD DUP2 PUSH1 0xFF MUL NOT AND SWAP1 DUP4 ISZERO ISZERO MUL OR SWAP1 SSTORE POP JUMPDEST PUSH1 0xC PUSH1 0x0 DUP2 DUP2 SWAP1 SLOAD SWAP1 PUSH2 0x100 EXP SWAP1 DIV PUSH2 0xFFFF AND DUP1 SWAP3 SWAP2 SWAP1 PUSH2 0xB0B SWAP1 PUSH2 0x3E3A JUMP JUMPDEST SWAP2 SWAP1 PUSH2 0x100 EXP DUP2 SLOAD DUP2 PUSH2 0xFFFF MUL NOT AND SWAP1 DUP4 PUSH2 0xFFFF AND MUL OR SWAP1 SSTORE POP POP PUSH1 0xC PUSH1 0x2 SWAP1 SLOAD SWAP1 PUSH2 0x100 EXP SWAP1 DIV PUSH20 0xFFFFFFFFFFFFFFFFFFFFFFFFFFFFFFFFFFFFFFFF AND PUSH20 0xFFFFFFFFFFFFFFFFFFFFFFFFFFFFFFFFFFFFFFFF AND PUSH2 0x8FC CALLVALUE SWAP1 DUP2 ISZERO MUL SWAP1 PUSH1 0x40 MLOAD PUSH1 0x0 PUSH1 0x40 MLOAD DUP1 DUP4 SUB DUP2 DUP6 DUP9 DUP9 CALL SWAP4 POP POP POP POP ISZERO DUP1 ISZERO PUSH2 0xB8E JUMPI RETURNDATASIZE PUSH1 0x0 DUP1 RETURNDATACOPY RETURNDATASIZE PUSH1 0x0 REVERT JUMPDEST POP DUP1 SWAP2 POP POP SWAP1 JUMP JUMPDEST PUSH1 0x0 PUSH1 0xC PUSH1 0x0 SWAP1 SLOAD SWAP1 PUSH2 0x100 EXP SWAP1 DIV PUSH2 0xFFFF AND PUSH2 0xFFFF AND SWAP1 POP SWAP1 JUMP JUMPDEST PUSH2 0xBC3 PUSH2 0xBBD PUSH2 0x1659 JUMP JUMPDEST DUP3 PUSH2 0x175C JUMP JUMPDEST PUSH2 0xC02 JUMPI PUSH1 0x40 MLOAD PUSH32 0x8C379A000000000000000000000000000000000000000000000000000000000 DUP2 MSTORE PUSH1 0x4 ADD PUSH2 0xBF9 SWAP1 PUSH2 0x3ED6 JUMP JUMPDEST PUSH1 0x40 MLOAD DUP1 SWAP2 SUB SWAP1 REVERT JUMPDEST PUSH2 0xC0D DUP4 DUP4 DUP4 PUSH2 0x17F1 JUMP JUMPDEST POP POP POP JUMP JUMPDEST PUSH7 0x2386F26FC10000 DUP2 JUMP JUMPDEST PUSH1 0x60 PUSH2 0xC59 PUSH2 0xC2B DUP4 PUSH2 0x1AEA JUMP JUMPDEST PUSH2 0xC34 DUP5 PUSH2 0x1C51 JUMP JUMPDEST PUSH1 0x40 MLOAD PUSH1 0x20 ADD PUSH2 0xC45 SWAP3 SWAP2 SWAP1 PUSH2 0x41B8 JUMP JUMPDEST PUSH1 0x40 MLOAD PUSH1 0x20 DUP2 DUP4 SUB SUB DUP2 MSTORE SWAP1 PUSH1 0x40 MSTORE PUSH2 0x1FBA JUMP JUMPDEST PUSH1 0x40 MLOAD PUSH1 0x20 ADD PUSH2 0xC69 SWAP2 SWAP1 PUSH2 0x4249 JUMP JUMPDEST PUSH1 0x40 MLOAD PUSH1 0x20 DUP2 DUP4 SUB SUB DUP2 MSTORE SWAP1 PUSH1 0x40 MSTORE SWAP1 POP SWAP2 SWAP1 POP JUMP JUMPDEST PUSH1 0x0 PUSH2 0xC8A DUP4 PUSH2 0xF08 JUMP JUMPDEST DUP3 LT PUSH2 0xCCB JUMPI PUSH1 0x40 MLOAD PUSH32 0x8C379A000000000000000000000000000000000000000000000000000000000 DUP2 MSTORE PUSH1 0x4 ADD PUSH2 0xCC2 SWAP1 PUSH2 0x42DD JUMP JUMPDEST PUSH1 0x40 MLOAD DUP1 SWAP2 SUB SWAP1 REVERT JUMPDEST PUSH1 0x6 PUSH1 0x0 DUP5 PUSH20 0xFFFFFFFFFFFFFFFFFFFFFFFFFFFFFFFFFFFFFFFF AND PUSH20 0xFFFFFFFFFFFFFFFFFFFFFFFFFFFFFFFFFFFFFFFF AND DUP2 MSTORE PUSH1 0x20 ADD SWAP1 DUP2 MSTORE PUSH1 0x20 ADD PUSH1 0x0 KECCAK256 PUSH1 0x0 DUP4 DUP2 MSTORE PUSH1 0x20 ADD SWAP1 DUP2 MSTORE PUSH1 0x20 ADD PUSH1 0x0 KECCAK256 SLOAD SWAP1 POP SWAP3 SWAP2 POP POP JUMP JUMPDEST PUSH1 0xC PUSH1 0x16 SWAP1 SLOAD SWAP1 PUSH2 0x100 EXP SWAP1 DIV PUSH2 0xFFFF AND DUP2 JUMP JUMPDEST PUSH2 0xD53 DUP4 DUP4 DUP4 PUSH1 0x40 MLOAD DUP1 PUSH1 0x20 ADD PUSH1 0x40 MSTORE DUP1 PUSH1 0x0 DUP2 MSTORE POP PUSH2 0x10C5 JUMP JUMPDEST POP POP POP JUMP JUMPDEST PUSH1 0x60 PUSH1 0x0 PUSH2 0xD65 DUP4 PUSH2 0xF08 JUMP JUMPDEST SWAP1 POP PUSH1 0x0 DUP2 PUSH8 0xFFFFFFFFFFFFFFFF DUP2 GT ISZERO PUSH2 0xD83 JUMPI PUSH2 0xD82 PUSH2 0x38FF JUMP JUMPDEST JUMPDEST PUSH1 0x40 MLOAD SWAP1 DUP1 DUP3 MSTORE DUP1 PUSH1 0x20 MUL PUSH1 0x20 ADD DUP3 ADD PUSH1 0x40 MSTORE DUP1 ISZERO PUSH2 0xDB1 JUMPI DUP2 PUSH1 0x20 ADD PUSH1 0x20 DUP3 MUL DUP1 CALLDATASIZE DUP4 CALLDATACOPY DUP1 DUP3 ADD SWAP2 POP POP SWAP1 POP JUMPDEST POP SWAP1 POP PUSH1 0x0 JUMPDEST DUP3 DUP2 LT ISZERO PUSH2 0xDFB JUMPI PUSH2 0xDC9 DUP6 DUP3 PUSH2 0xC7F JUMP JUMPDEST DUP3 DUP3 DUP2 MLOAD DUP2 LT PUSH2 0xDDC JUMPI PUSH2 0xDDB PUSH2 0x42FD JUMP JUMPDEST JUMPDEST PUSH1 0x20 MUL PUSH1 0x20 ADD ADD DUP2 DUP2 MSTORE POP POP DUP1 DUP1 PUSH2 0xDF3 SWAP1 PUSH2 0x432C JUMP JUMPDEST SWAP2 POP POP PUSH2 0xDB7 JUMP JUMPDEST POP DUP1 SWAP3 POP POP POP SWAP2 SWAP1 POP JUMP JUMPDEST PUSH7 0x470DE4DF820000 DUP2 JUMP JUMPDEST PUSH1 0x0 PUSH2 0xE1B PUSH2 0x2132 JUMP JUMPDEST DUP3 LT PUSH2 0xE5C JUMPI PUSH1 0x40 MLOAD PUSH32 0x8C379A000000000000000000000000000000000000000000000000000000000 DUP2 MSTORE PUSH1 0x4 ADD PUSH2 0xE53 SWAP1 PUSH2 0x43E6 JUMP JUMPDEST PUSH1 0x40 MLOAD DUP1 SWAP2 SUB SWAP1 REVERT JUMPDEST PUSH1 0x8 DUP3 DUP2 SLOAD DUP2 LT PUSH2 0xE70 JUMPI PUSH2 0xE6F PUSH2 0x42FD JUMP JUMPDEST JUMPDEST SWAP1 PUSH1 0x0 MSTORE PUSH1 0x20 PUSH1 0x0 KECCAK256 ADD SLOAD SWAP1 POP SWAP2 SWAP1 POP JUMP JUMPDEST PUSH1 0x0 DUP1 PUSH2 0xE8E DUP4 PUSH2 0x213F JUMP JUMPDEST SWAP1 POP PUSH1 0x0 PUSH20 0xFFFFFFFFFFFFFFFFFFFFFFFFFFFFFFFFFFFFFFFF AND DUP2 PUSH20 0xFFFFFFFFFFFFFFFFFFFFFFFFFFFFFFFFFFFFFFFF AND SUB PUSH2 0xEFF JUMPI PUSH1 0x40 MLOAD PUSH32 0x8C379A000000000000000000000000000000000000000000000000000000000 DUP2 MSTORE PUSH1 0x4 ADD PUSH2 0xEF6 SWAP1 PUSH2 0x4452 JUMP JUMPDEST PUSH1 0x40 MLOAD DUP1 SWAP2 SUB SWAP1 REVERT JUMPDEST DUP1 SWAP2 POP POP SWAP2 SWAP1 POP JUMP JUMPDEST PUSH1 0x0 DUP1 PUSH20 0xFFFFFFFFFFFFFFFFFFFFFFFFFFFFFFFFFFFFFFFF AND DUP3 PUSH20 0xFFFFFFFFFFFFFFFFFFFFFFFFFFFFFFFFFFFFFFFF AND SUB PUSH2 0xF78 JUMPI PUSH1 0x40 MLOAD PUSH32 0x8C379A000000000000000000000000000000000000000000000000000000000 DUP2 MSTORE PUSH1 0x4 ADD PUSH2 0xF6F SWAP1 PUSH2 0x44E4 JUMP JUMPDEST PUSH1 0x40 MLOAD DUP1 SWAP2 SUB SWAP1 REVERT JUMPDEST PUSH1 0x3 PUSH1 0x0 DUP4 PUSH20 0xFFFFFFFFFFFFFFFFFFFFFFFFFFFFFFFFFFFFFFFF AND PUSH20 0xFFFFFFFFFFFFFFFFFFFFFFFFFFFFFFFFFFFFFFFF AND DUP2 MSTORE PUSH1 0x20 ADD SWAP1 DUP2 MSTORE PUSH1 0x20 ADD PUSH1 0x0 KECCAK256 SLOAD SWAP1 POP SWAP2 SWAP1 POP JUMP JUMPDEST PUSH2 0xFC7 PUSH2 0x217C JUMP JUMPDEST PUSH2 0xFD1 PUSH1 0x0 PUSH2 0x21FA JUMP JUMPDEST JUMP JUMPDEST PUSH1 0xD PUSH1 0x20 MSTORE DUP1 PUSH1 0x0 MSTORE PUSH1 0x40 PUSH1 0x0 KECCAK256 PUSH1 0x0 SWAP2 POP SLOAD SWAP1 PUSH2 0x100 EXP SWAP1 DIV PUSH1 0xFF AND DUP2 JUMP JUMPDEST PUSH1 0x0 PUSH1 0xA PUSH1 0x0 SWAP1 SLOAD SWAP1 PUSH2 0x100 EXP SWAP1 DIV PUSH20 0xFFFFFFFFFFFFFFFFFFFFFFFFFFFFFFFFFFFFFFFF AND SWAP1 POP SWAP1 JUMP JUMPDEST PUSH1 0x60 PUSH1 0x1 DUP1 SLOAD PUSH2 0x102C SWAP1 PUSH2 0x3B72 JUMP JUMPDEST DUP1 PUSH1 0x1F ADD PUSH1 0x20 DUP1 SWAP2 DIV MUL PUSH1 0x20 ADD PUSH1 0x40 MLOAD SWAP1 DUP2 ADD PUSH1 0x40 MSTORE DUP1 SWAP3 SWAP2 SWAP1 DUP2 DUP2 MSTORE PUSH1 0x20 ADD DUP3 DUP1 SLOAD PUSH2 0x1058 SWAP1 PUSH2 0x3B72 JUMP JUMPDEST DUP1 ISZERO PUSH2 0x10A5 JUMPI DUP1 PUSH1 0x1F LT PUSH2 0x107A JUMPI PUSH2 0x100 DUP1 DUP4 SLOAD DIV MUL DUP4 MSTORE SWAP2 PUSH1 0x20 ADD SWAP2 PUSH2 0x10A5 JUMP JUMPDEST DUP3 ADD SWAP2 SWAP1 PUSH1 0x0 MSTORE PUSH1 0x20 PUSH1 0x0 KECCAK256 SWAP1 JUMPDEST DUP2 SLOAD DUP2 MSTORE SWAP1 PUSH1 0x1 ADD SWAP1 PUSH1 0x20 ADD DUP1 DUP4 GT PUSH2 0x1088 JUMPI DUP3 SWAP1 SUB PUSH1 0x1F AND DUP3 ADD SWAP2 JUMPDEST POP POP POP POP POP SWAP1 POP SWAP1 JUMP JUMPDEST PUSH2 0x10C1 PUSH2 0x10BA PUSH2 0x1659 JUMP JUMPDEST DUP4 DUP4 PUSH2 0x22C0 JUMP JUMPDEST POP POP JUMP JUMPDEST PUSH2 0x10D6 PUSH2 0x10D0 PUSH2 0x1659 JUMP JUMPDEST DUP4 PUSH2 0x175C JUMP JUMPDEST PUSH2 0x1115 JUMPI PUSH1 0x40 MLOAD PUSH32 0x8C379A000000000000000000000000000000000000000000000000000000000 DUP2 MSTORE PUSH1 0x4 ADD PUSH2 0x110C SWAP1 PUSH2 0x3ED6 JUMP JUMPDEST PUSH1 0x40 MLOAD DUP1 SWAP2 SUB SWAP1 REVERT JUMPDEST PUSH2 0x1121 DUP5 DUP5 DUP5 DUP5 PUSH2 0x242C JUMP JUMPDEST POP POP POP POP JUMP JUMPDEST PUSH1 0x60 PUSH2 0x1132 DUP3 PUSH2 0x2488 JUMP JUMPDEST PUSH2 0x1171 JUMPI PUSH1 0x40 MLOAD PUSH32 0x8C379A000000000000000000000000000000000000000000000000000000000 DUP2 MSTORE PUSH1 0x4 ADD PUSH2 0x1168 SWAP1 PUSH2 0x4550 JUMP JUMPDEST PUSH1 0x40 MLOAD DUP1 SWAP2 SUB SWAP1 REVERT JUMPDEST PUSH1 0x0 PUSH2 0x117C DUP4 PUSH2 0x24C9 JUMP JUMPDEST PUSH1 0x40 MLOAD PUSH1 0x20 ADD PUSH2 0x118C SWAP2 SWAP1 PUSH2 0x45BC JUMP JUMPDEST PUSH1 0x40 MLOAD PUSH1 0x20 DUP2 DUP4 SUB SUB DUP2 MSTORE SWAP1 PUSH1 0x40 MSTORE SWAP1 POP PUSH1 0x0 PUSH1 0xD PUSH1 0x0 DUP6 DUP2 MSTORE PUSH1 0x20 ADD SWAP1 DUP2 MSTORE PUSH1 0x20 ADD PUSH1 0x0 KECCAK256 PUSH1 0x0 SWAP1 SLOAD SWAP1 PUSH2 0x100 EXP SWAP1 DIV PUSH1 0xFF AND PUSH2 0x11FF JUMPI PUSH1 0x40 MLOAD DUP1 PUSH1 0x40 ADD PUSH1 0x40 MSTORE DUP1 PUSH1 0x2 DUP2 MSTORE PUSH1 0x20 ADD PUSH32 0x4741000000000000000000000000000000000000000000000000000000000000 DUP2 MSTORE POP PUSH2 0x1236 JUMP JUMPDEST PUSH1 0x40 MLOAD DUP1 PUSH1 0x40 ADD PUSH1 0x40 MSTORE DUP1 PUSH1 0x3 DUP2 MSTORE PUSH1 0x20 ADD PUSH32 0x5649500000000000000000000000000000000000000000000000000000000000 DUP2 MSTORE POP JUMPDEST PUSH1 0x40 MLOAD PUSH1 0x20 ADD PUSH2 0x1246 SWAP2 SWAP1 PUSH2 0x462A JUMP JUMPDEST PUSH1 0x40 MLOAD PUSH1 0x20 DUP2 DUP4 SUB SUB DUP2 MSTORE SWAP1 PUSH1 0x40 MSTORE SWAP1 POP PUSH1 0x0 DUP3 DUP3 PUSH1 0xD PUSH1 0x0 DUP9 DUP2 MSTORE PUSH1 0x20 ADD SWAP1 DUP2 MSTORE PUSH1 0x20 ADD PUSH1 0x0 KECCAK256 PUSH1 0x0 SWAP1 SLOAD SWAP1 PUSH2 0x100 EXP SWAP1 DIV PUSH1 0xFF AND PUSH2 0x12BB JUMPI PUSH1 0x40 MLOAD DUP1 PUSH1 0x40 ADD PUSH1 0x40 MSTORE DUP1 PUSH1 0x2 DUP2 MSTORE PUSH1 0x20 ADD PUSH32 0x4741000000000000000000000000000000000000000000000000000000000000 DUP2 MSTORE POP PUSH2 0x12F2 JUMP JUMPDEST PUSH1 0x40 MLOAD DUP1 PUSH1 0x40 ADD PUSH1 0x40 MSTORE DUP1 PUSH1 0x3 DUP2 MSTORE PUSH1 0x20 ADD PUSH32 0x5649500000000000000000000000000000000000000000000000000000000000 DUP2 MSTORE POP JUMPDEST PUSH2 0x1324 PUSH1 0x14 PUSH2 0x1300 DUP11 PUSH2 0xE82 JUMP JUMPDEST PUSH20 0xFFFFFFFFFFFFFFFFFFFFFFFFFFFFFFFFFFFFFFFF AND PUSH2 0x2597 SWAP1 SWAP2 SWAP1 PUSH4 0xFFFFFFFF AND JUMP JUMPDEST PUSH2 0x132D DUP10 PUSH2 0xC1D JUMP JUMPDEST PUSH1 0x40 MLOAD PUSH1 0x20 ADD PUSH2 0x1341 SWAP6 SWAP5 SWAP4 SWAP3 SWAP2 SWAP1 PUSH2 0x48D2 JUMP JUMPDEST PUSH1 0x40 MLOAD PUSH1 0x20 DUP2 DUP4 SUB SUB DUP2 MSTORE SWAP1 PUSH1 0x40 MSTORE SWAP1 POP PUSH2 0x135B DUP2 PUSH2 0x1FBA JUMP JUMPDEST PUSH1 0x40 MLOAD PUSH1 0x20 ADD PUSH2 0x136B SWAP2 SWAP1 PUSH2 0x49CC JUMP JUMPDEST PUSH1 0x40 MLOAD PUSH1 0x20 DUP2 DUP4 SUB SUB DUP2 MSTORE SWAP1 PUSH1 0x40 MSTORE SWAP4 POP POP POP POP SWAP2 SWAP1 POP JUMP JUMPDEST PUSH1 0xE PUSH1 0x20 MSTORE DUP1 PUSH1 0x0 MSTORE PUSH1 0x40 PUSH1 0x0 KECCAK256 PUSH1 0x0 SWAP2 POP SLOAD SWAP1 PUSH2 0x100 EXP SWAP1 DIV PUSH1 0xE8 SHL DUP2 JUMP JUMPDEST PUSH1 0x60 PUSH1 0x0 PUSH1 0x40 MLOAD PUSH1 0x20 ADD PUSH2 0x13B7 SWAP1 PUSH2 0x4AAC JUMP JUMPDEST PUSH1 0x40 MLOAD PUSH1 0x20 DUP2 DUP4 SUB SUB DUP2 MSTORE SWAP1 PUSH1 0x40 MSTORE SWAP1 POP PUSH2 0x13F0 DUP2 PUSH1 0x40 MLOAD PUSH1 0x20 ADD PUSH2 0x13DC SWAP2 SWAP1 PUSH2 0x4B13 JUMP JUMPDEST PUSH1 0x40 MLOAD PUSH1 0x20 DUP2 DUP4 SUB SUB DUP2 MSTORE SWAP1 PUSH1 0x40 MSTORE PUSH2 0x1FBA JUMP JUMPDEST PUSH1 0x40 MLOAD PUSH1 0x20 ADD PUSH2 0x1400 SWAP2 SWAP1 PUSH2 0x49CC JUMP JUMPDEST PUSH1 0x40 MLOAD PUSH1 0x20 DUP2 DUP4 SUB SUB DUP2 MSTORE SWAP1 PUSH1 0x40 MSTORE SWAP2 POP POP SWAP1 JUMP JUMPDEST PUSH1 0x0 PUSH1 0x5 PUSH1 0x0 DUP5 PUSH20 0xFFFFFFFFFFFFFFFFFFFFFFFFFFFFFFFFFFFFFFFF AND PUSH20 0xFFFFFFFFFFFFFFFFFFFFFFFFFFFFFFFFFFFFFFFF AND DUP2 MSTORE PUSH1 0x20 ADD SWAP1 DUP2 MSTORE PUSH1 0x20 ADD PUSH1 0x0 KECCAK256 PUSH1 0x0 DUP4 PUSH20 0xFFFFFFFFFFFFFFFFFFFFFFFFFFFFFFFFFFFFFFFF AND PUSH20 0xFFFFFFFFFFFFFFFFFFFFFFFFFFFFFFFFFFFFFFFF AND DUP2 MSTORE PUSH1 0x20 ADD SWAP1 DUP2 MSTORE PUSH1 0x20 ADD PUSH1 0x0 KECCAK256 PUSH1 0x0 SWAP1 SLOAD SWAP1 PUSH2 0x100 EXP SWAP1 DIV PUSH1 0xFF AND SWAP1 POP SWAP3 SWAP2 POP POP JUMP JUMPDEST PUSH2 0x14B1 PUSH2 0x217C JUMP JUMPDEST PUSH1 0x0 PUSH20 0xFFFFFFFFFFFFFFFFFFFFFFFFFFFFFFFFFFFFFFFF AND DUP2 PUSH20 0xFFFFFFFFFFFFFFFFFFFFFFFFFFFFFFFFFFFFFFFF AND SUB PUSH2 0x1520 JUMPI PUSH1 0x40 MLOAD PUSH32 0x8C379A000000000000000000000000000000000000000000000000000000000 DUP2 MSTORE PUSH1 0x4 ADD PUSH2 0x1517 SWAP1 PUSH2 0x4B9C JUMP JUMPDEST PUSH1 0x40 MLOAD DUP1 SWAP2 SUB SWAP1 REVERT JUMPDEST PUSH2 0x1529 DUP2 PUSH2 0x21FA JUMP JUMPDEST POP JUMP JUMPDEST PUSH1 0x0 PUSH32 0x80AC58CD00000000000000000000000000000000000000000000000000000000 PUSH28 0xFFFFFFFFFFFFFFFFFFFFFFFFFFFFFFFFFFFFFFFFFFFFFFFFFFFFFFFF NOT AND DUP3 PUSH28 0xFFFFFFFFFFFFFFFFFFFFFFFFFFFFFFFFFFFFFFFFFFFFFFFFFFFFFFFF NOT AND EQ DUP1 PUSH2 0x15F7 JUMPI POP PUSH32 0x5B5E139F00000000000000000000000000000000000000000000000000000000 PUSH28 0xFFFFFFFFFFFFFFFFFFFFFFFFFFFFFFFFFFFFFFFFFFFFFFFFFFFFFFFF NOT AND DUP3 PUSH28 0xFFFFFFFFFFFFFFFFFFFFFFFFFFFFFFFFFFFFFFFFFFFFFFFFFFFFFFFF NOT AND EQ JUMPDEST DUP1 PUSH2 0x1607 JUMPI POP PUSH2 0x1606 DUP3 PUSH2 0x2790 JUMP JUMPDEST JUMPDEST SWAP1 POP SWAP2 SWAP1 POP JUMP JUMPDEST PUSH2 0x1617 DUP2 PUSH2 0x2488 JUMP JUMPDEST PUSH2 0x1656 JUMPI PUSH1 0x40 MLOAD PUSH32 0x8C379A000000000000000000000000000000000000000000000000000000000 DUP2 MSTORE PUSH1 0x4 ADD PUSH2 0x164D SWAP1 PUSH2 0x4452 JUMP JUMPDEST PUSH1 0x40 MLOAD DUP1 SWAP2 SUB SWAP1 REVERT JUMPDEST POP JUMP JUMPDEST PUSH1 0x0 CALLER SWAP1 POP SWAP1 JUMP JUMPDEST DUP2 PUSH1 0x4 PUSH1 0x0 DUP4 DUP2 MSTORE PUSH1 0x20 ADD SWAP1 DUP2 MSTORE PUSH1 0x20 ADD PUSH1 0x0 KECCAK256 PUSH1 0x0 PUSH2 0x100 EXP DUP2 SLOAD DUP2 PUSH20 0xFFFFFFFFFFFFFFFFFFFFFFFFFFFFFFFFFFFFFFFF MUL NOT AND SWAP1 DUP4 PUSH20 0xFFFFFFFFFFFFFFFFFFFFFFFFFFFFFFFFFFFFFFFF AND MUL OR SWAP1 SSTORE POP DUP1 DUP3 PUSH20 0xFFFFFFFFFFFFFFFFFFFFFFFFFFFFFFFFFFFFFFFF AND PUSH2 0x16D4 DUP4 PUSH2 0xE82 JUMP JUMPDEST PUSH20 0xFFFFFFFFFFFFFFFFFFFFFFFFFFFFFFFFFFFFFFFF AND PUSH32 0x8C5BE1E5EBEC7D5BD14F71427D1E84F3DD0314C0F7B2291E5B200AC8C7C3B925 PUSH1 0x40 MLOAD PUSH1 0x40 MLOAD DUP1 SWAP2 SUB SWAP1 LOG4 POP POP JUMP JUMPDEST PUSH1 0x1 DUP2 PUSH1 0x0 ADD PUSH1 0x0 DUP3 DUP3 SLOAD ADD SWAP3 POP POP DUP2 SWAP1 SSTORE POP POP JUMP JUMPDEST PUSH1 0x0 DUP2 PUSH1 0x0 ADD SLOAD SWAP1 POP SWAP2 SWAP1 POP JUMP JUMPDEST PUSH2 0x1758 DUP3 DUP3 PUSH1 0x40 MLOAD DUP1 PUSH1 0x20 ADD PUSH1 0x40 MSTORE DUP1 PUSH1 0x0 DUP2 MSTORE POP PUSH2 0x27FA JUMP JUMPDEST POP POP JUMP JUMPDEST PUSH1 0x0 DUP1 PUSH2 0x1768 DUP4 PUSH2 0xE82 JUMP JUMPDEST SWAP1 POP DUP1 PUSH20 0xFFFFFFFFFFFFFFFFFFFFFFFFFFFFFFFFFFFFFFFF AND DUP5 PUSH20 0xFFFFFFFFFFFFFFFFFFFFFFFFFFFFFFFFFFFFFFFF AND EQ DUP1 PUSH2 0x17AA JUMPI POP PUSH2 0x17A9 DUP2 DUP6 PUSH2 0x1415 JUMP JUMPDEST JUMPDEST DUP1 PUSH2 0x17E8 JUMPI POP DUP4 PUSH20 0xFFFFFFFFFFFFFFFFFFFFFFFFFFFFFFFFFFFFFFFF AND PUSH2 0x17D0 DUP5 PUSH2 0x827 JUMP JUMPDEST PUSH20 0xFFFFFFFFFFFFFFFFFFFFFFFFFFFFFFFFFFFFFFFF AND EQ JUMPDEST SWAP2 POP POP SWAP3 SWAP2 POP POP JUMP JUMPDEST DUP3 PUSH20 0xFFFFFFFFFFFFFFFFFFFFFFFFFFFFFFFFFFFFFFFF AND PUSH2 0x1811 DUP3 PUSH2 0xE82 JUMP JUMPDEST PUSH20 0xFFFFFFFFFFFFFFFFFFFFFFFFFFFFFFFFFFFFFFFF AND EQ PUSH2 0x1867 JUMPI PUSH1 0x40 MLOAD PUSH32 0x8C379A000000000000000000000000000000000000000000000000000000000 DUP2 MSTORE PUSH1 0x4 ADD PUSH2 0x185E SWAP1 PUSH2 0x4C2E JUMP JUMPDEST PUSH1 0x40 MLOAD DUP1 SWAP2 SUB SWAP1 REVERT JUMPDEST PUSH1 0x0 PUSH20 0xFFFFFFFFFFFFFFFFFFFFFFFFFFFFFFFFFFFFFFFF AND DUP3 PUSH20 0xFFFFFFFFFFFFFFFFFFFFFFFFFFFFFFFFFFFFFFFF AND SUB PUSH2 0x18D6 JUMPI PUSH1 0x40 MLOAD PUSH32 0x8C379A000000000000000000000000000000000000000000000000000000000 DUP2 MSTORE PUSH1 0x4 ADD PUSH2 0x18CD SWAP1 PUSH2 0x4CC0 JUMP JUMPDEST PUSH1 0x40 MLOAD DUP1 SWAP2 SUB SWAP1 REVERT JUMPDEST PUSH2 0x18E3 DUP4 DUP4 DUP4 PUSH1 0x1 PUSH2 0x2855 JUMP JUMPDEST DUP3 PUSH20 0xFFFFFFFFFFFFFFFFFFFFFFFFFFFFFFFFFFFFFFFF AND PUSH2 0x1903 DUP3 PUSH2 0xE82 JUMP JUMPDEST PUSH20 0xFFFFFFFFFFFFFFFFFFFFFFFFFFFFFFFFFFFFFFFF AND EQ PUSH2 0x1959 JUMPI PUSH1 0x40 MLOAD PUSH32 0x8C379A000000000000000000000000000000000000000000000000000000000 DUP2 MSTORE PUSH1 0x4 ADD PUSH2 0x1950 SWAP1 PUSH2 0x4C2E JUMP JUMPDEST PUSH1 0x40 MLOAD DUP1 SWAP2 SUB SWAP1 REVERT JUMPDEST PUSH1 0x4 PUSH1 0x0 DUP3 DUP2 MSTORE PUSH1 0x20 ADD SWAP1 DUP2 MSTORE PUSH1 0x20 ADD PUSH1 0x0 KECCAK256 PUSH1 0x0 PUSH2 0x100 EXP DUP2 SLOAD SWAP1 PUSH20 0xFFFFFFFFFFFFFFFFFFFFFFFFFFFFFFFFFFFFFFFF MUL NOT AND SWAP1 SSTORE PUSH1 0x1 PUSH1 0x3 PUSH1 0x0 DUP6 PUSH20 0xFFFFFFFFFFFFFFFFFFFFFFFFFFFFFFFFFFFFFFFF AND PUSH20 0xFFFFFFFFFFFFFFFFFFFFFFFFFFFFFFFFFFFFFFFF AND DUP2 MSTORE PUSH1 0x20 ADD SWAP1 DUP2 MSTORE PUSH1 0x20 ADD PUSH1 0x0 KECCAK256 PUSH1 0x0 DUP3 DUP3 SLOAD SUB SWAP3 POP POP DUP2 SWAP1 SSTORE POP PUSH1 0x1 PUSH1 0x3 PUSH1 0x0 DUP5 PUSH20 0xFFFFFFFFFFFFFFFFFFFFFFFFFFFFFFFFFFFFFFFF AND PUSH20 0xFFFFFFFFFFFFFFFFFFFFFFFFFFFFFFFFFFFFFFFF AND DUP2 MSTORE PUSH1 0x20 ADD SWAP1 DUP2 MSTORE PUSH1 0x20 ADD PUSH1 0x0 KECCAK256 PUSH1 0x0 DUP3 DUP3 SLOAD ADD SWAP3 POP POP DUP2 SWAP1 SSTORE POP DUP2 PUSH1 0x2 PUSH1 0x0 DUP4 DUP2 MSTORE PUSH1 0x20 ADD SWAP1 DUP2 MSTORE PUSH1 0x20 ADD PUSH1 0x0 KECCAK256 PUSH1 0x0 PUSH2 0x100 EXP DUP2 SLOAD DUP2 PUSH20 0xFFFFFFFFFFFFFFFFFFFFFFFFFFFFFFFFFFFFFFFF MUL NOT AND SWAP1 DUP4 PUSH20 0xFFFFFFFFFFFFFFFFFFFFFFFFFFFFFFFFFFFFFFFF AND MUL OR SWAP1 SSTORE POP DUP1 DUP3 PUSH20 0xFFFFFFFFFFFFFFFFFFFFFFFFFFFFFFFFFFFFFFFF AND DUP5 PUSH20 0xFFFFFFFFFFFFFFFFFFFFFFFFFFFFFFFFFFFFFFFF AND PUSH32 0xDDF252AD1BE2C89B69C2B068FC378DAA952BA7F163C4A11628F55A4DF523B3EF PUSH1 0x40 MLOAD PUSH1 0x40 MLOAD DUP1 SWAP2 SUB SWAP1 LOG4 PUSH2 0x1AE5 DUP4 DUP4 DUP4 PUSH1 0x1 PUSH2 0x29B3 JUMP JUMPDEST POP POP POP JUMP JUMPDEST PUSH1 0x60 PUSH1 0x0 PUSH1 0xD PUSH1 0x0 DUP5 DUP2 MSTORE PUSH1 0x20 ADD SWAP1 DUP2 MSTORE PUSH1 0x20 ADD PUSH1 0x0 KECCAK256 PUSH1 0x0 SWAP1 SLOAD SWAP1 PUSH2 0x100 EXP SWAP1 DIV PUSH1 0xFF AND PUSH2 0x1B4E JUMPI PUSH1 0x40 MLOAD DUP1 PUSH1 0x40 ADD PUSH1 0x40 MSTORE DUP1 PUSH1 0x2 DUP2 MSTORE PUSH1 0x20 ADD PUSH32 0x4741000000000000000000000000000000000000000000000000000000000000 DUP2 MSTORE POP PUSH2 0x1B85 JUMP JUMPDEST PUSH1 0x40 MLOAD DUP1 PUSH1 0x40 ADD PUSH1 0x40 MSTORE DUP1 PUSH1 0x3 DUP2 MSTORE PUSH1 0x20 ADD PUSH32 0x5649500000000000000000000000000000000000000000000000000000000000 DUP2 MSTORE POP JUMPDEST SWAP1 POP PUSH1 0xD PUSH1 0x0 DUP5 DUP2 MSTORE PUSH1 0x20 ADD SWAP1 DUP2 MSTORE PUSH1 0x20 ADD PUSH1 0x0 KECCAK256 PUSH1 0x0 SWAP1 SLOAD SWAP1 PUSH2 0x100 EXP SWAP1 DIV PUSH1 0xFF AND PUSH2 0x1BE7 JUMPI PUSH1 0x40 MLOAD DUP1 PUSH1 0x40 ADD PUSH1 0x40 MSTORE DUP1 PUSH1 0x2 DUP2 MSTORE PUSH1 0x20 ADD PUSH32 0x7337000000000000000000000000000000000000000000000000000000000000 DUP2 MSTORE POP PUSH2 0x1C1E JUMP JUMPDEST PUSH1 0x40 MLOAD DUP1 PUSH1 0x40 ADD PUSH1 0x40 MSTORE DUP1 PUSH1 0x2 DUP2 MSTORE PUSH1 0x20 ADD PUSH32 0x7336000000000000000000000000000000000000000000000000000000000000 DUP2 MSTORE POP JUMPDEST PUSH2 0x1C27 DUP5 PUSH2 0x24C9 JUMP JUMPDEST DUP3 PUSH1 0x40 MLOAD PUSH1 0x20 ADD PUSH2 0x1C3A SWAP4 SWAP3 SWAP2 SWAP1 PUSH2 0x504A JUMP JUMPDEST PUSH1 0x40 MLOAD PUSH1 0x20 DUP2 DUP4 SUB SUB DUP2 MSTORE SWAP1 PUSH1 0x40 MSTORE SWAP2 POP POP SWAP2 SWAP1 POP JUMP JUMPDEST PUSH1 0x60 PUSH1 0x0 PUSH2 0x1C98 PUSH1 0xC PUSH1 0x2 SWAP1 SLOAD SWAP1 PUSH2 0x100 EXP SWAP1 DIV PUSH20 0xFFFFFFFFFFFFFFFFFFFFFFFFFFFFFFFFFFFFFFFF AND PUSH20 0xFFFFFFFFFFFFFFFFFFFFFFFFFFFFFFFFFFFFFFFF AND PUSH1 0x14 PUSH2 0x29B9 JUMP JUMPDEST SWAP1 POP PUSH1 0xD PUSH1 0x0 DUP5 DUP2 MSTORE PUSH1 0x20 ADD SWAP1 DUP2 MSTORE PUSH1 0x20 ADD PUSH1 0x0 KECCAK256 PUSH1 0x0 SWAP1 SLOAD SWAP1 PUSH2 0x100 EXP SWAP1 DIV PUSH1 0xFF AND PUSH2 0x1CFA JUMPI PUSH1 0x40 MLOAD DUP1 PUSH1 0x40 ADD PUSH1 0x40 MSTORE DUP1 PUSH1 0x4 DUP2 MSTORE PUSH1 0x20 ADD PUSH32 0x6761426700000000000000000000000000000000000000000000000000000000 DUP2 MSTORE POP PUSH2 0x1D31 JUMP JUMPDEST PUSH1 0x40 MLOAD DUP1 PUSH1 0x40 ADD PUSH1 0x40 MSTORE DUP1 PUSH1 0x4 DUP2 MSTORE PUSH1 0x20 ADD PUSH32 0x7670426700000000000000000000000000000000000000000000000000000000 DUP2 MSTORE POP JUMPDEST PUSH1 0xD PUSH1 0x0 DUP6 DUP2 MSTORE PUSH1 0x20 ADD SWAP1 DUP2 MSTORE PUSH1 0x20 ADD PUSH1 0x0 KECCAK256 PUSH1 0x0 SWAP1 SLOAD SWAP1 PUSH2 0x100 EXP SWAP1 DIV PUSH1 0xFF AND PUSH2 0x1D91 JUMPI PUSH1 0x40 MLOAD DUP1 PUSH1 0x40 ADD PUSH1 0x40 MSTORE DUP1 PUSH1 0x6 DUP2 MSTORE PUSH1 0x20 ADD PUSH32 0x3030333835440000000000000000000000000000000000000000000000000000 DUP2 MSTORE POP PUSH2 0x1DC8 JUMP JUMPDEST PUSH1 0x40 MLOAD DUP1 PUSH1 0x40 ADD PUSH1 0x40 MSTORE DUP1 PUSH1 0x6 DUP2 MSTORE PUSH1 0x20 ADD PUSH32 0x3436303039300000000000000000000000000000000000000000000000000000 DUP2 MSTORE POP JUMPDEST PUSH1 0xD PUSH1 0x0 DUP7 DUP2 MSTORE PUSH1 0x20 ADD SWAP1 DUP2 MSTORE PUSH1 0x20 ADD PUSH1 0x0 KECCAK256 PUSH1 0x0 SWAP1 SLOAD SWAP1 PUSH2 0x100 EXP SWAP1 DIV PUSH1 0xFF AND PUSH2 0x1E28 JUMPI PUSH1 0x40 MLOAD DUP1 PUSH1 0x40 ADD PUSH1 0x40 MSTORE DUP1 PUSH1 0x6 DUP2 MSTORE PUSH1 0x20 ADD PUSH32 0x3030353238420000000000000000000000000000000000000000000000000000 DUP2 MSTORE POP PUSH2 0x1E5F JUMP JUMPDEST PUSH1 0x40 MLOAD DUP1 PUSH1 0x40 ADD PUSH1 0x40 MSTORE DUP1 PUSH1 0x6 DUP2 MSTORE PUSH1 0x20 ADD PUSH32 0x3631303038430000000000000000000000000000000000000000000000000000 DUP2 MSTORE POP JUMPDEST PUSH1 0xD PUSH1 0x0 DUP8 DUP2 MSTORE PUSH1 0x20 ADD SWAP1 DUP2 MSTORE PUSH1 0x20 ADD PUSH1 0x0 KECCAK256 PUSH1 0x0 SWAP1 SLOAD SWAP1 PUSH2 0x100 EXP SWAP1 DIV PUSH1 0xFF AND PUSH2 0x1EBF JUMPI PUSH1 0x40 MLOAD DUP1 PUSH1 0x40 ADD PUSH1 0x40 MSTORE DUP1 PUSH1 0x4 DUP2 MSTORE PUSH1 0x20 ADD PUSH32 0x6761426700000000000000000000000000000000000000000000000000000000 DUP2 MSTORE POP PUSH2 0x1EF6 JUMP JUMPDEST PUSH1 0x40 MLOAD DUP1 PUSH1 0x40 ADD PUSH1 0x40 MSTORE DUP1 PUSH1 0x4 DUP2 MSTORE PUSH1 0x20 ADD PUSH32 0x7670426700000000000000000000000000000000000000000000000000000000 DUP2 MSTORE POP JUMPDEST PUSH1 0xD PUSH1 0x0 DUP9 DUP2 MSTORE PUSH1 0x20 ADD SWAP1 DUP2 MSTORE PUSH1 0x20 ADD PUSH1 0x0 KECCAK256 PUSH1 0x0 SWAP1 SLOAD SWAP1 PUSH2 0x100 EXP SWAP1 DIV PUSH1 0xFF AND PUSH2 0x1F56 JUMPI PUSH1 0x40 MLOAD DUP1 PUSH1 0x40 ADD PUSH1 0x40 MSTORE DUP1 PUSH1 0x2 DUP2 MSTORE PUSH1 0x20 ADD PUSH32 0x4741000000000000000000000000000000000000000000000000000000000000 DUP2 MSTORE POP PUSH2 0x1F8D JUMP JUMPDEST PUSH1 0x40 MLOAD DUP1 PUSH1 0x40 ADD PUSH1 0x40 MSTORE DUP1 PUSH1 0x3 DUP2 MSTORE PUSH1 0x20 ADD PUSH32 0x5649500000000000000000000000000000000000000000000000000000000000 DUP2 MSTORE POP JUMPDEST DUP6 PUSH1 0x40 MLOAD PUSH1 0x20 ADD PUSH2 0x1FA3 SWAP7 SWAP6 SWAP5 SWAP4 SWAP3 SWAP2 SWAP1 PUSH2 0x55EF JUMP JUMPDEST PUSH1 0x40 MLOAD PUSH1 0x20 DUP2 DUP4 SUB SUB DUP2 MSTORE SWAP1 PUSH1 0x40 MSTORE SWAP2 POP POP SWAP2 SWAP1 POP JUMP JUMPDEST PUSH1 0x60 PUSH1 0x0 DUP3 MLOAD SUB PUSH2 0x1FDC JUMPI PUSH1 0x40 MLOAD DUP1 PUSH1 0x20 ADD PUSH1 0x40 MSTORE DUP1 PUSH1 0x0 DUP2 MSTORE POP SWAP1 POP PUSH2 0x212D JUMP JUMPDEST PUSH1 0x0 PUSH1 0x40 MLOAD DUP1 PUSH1 0x60 ADD PUSH1 0x40 MSTORE DUP1 PUSH1 0x40 DUP2 MSTORE PUSH1 0x20 ADD PUSH2 0x5C3B PUSH1 0x40 SWAP2 CODECOPY SWAP1 POP PUSH1 0x0 PUSH1 0x3 PUSH1 0x2 DUP6 MLOAD PUSH2 0x200B SWAP2 SWAP1 PUSH2 0x56C0 JUMP JUMPDEST PUSH2 0x2015 SWAP2 SWAP1 PUSH2 0x5723 JUMP JUMPDEST PUSH1 0x4 PUSH2 0x2021 SWAP2 SWAP1 PUSH2 0x5754 JUMP JUMPDEST SWAP1 POP PUSH1 0x0 PUSH1 0x20 DUP3 PUSH2 0x2032 SWAP2 SWAP1 PUSH2 0x56C0 JUMP JUMPDEST PUSH8 0xFFFFFFFFFFFFFFFF DUP2 GT ISZERO PUSH2 0x204B JUMPI PUSH2 0x204A PUSH2 0x38FF JUMP JUMPDEST JUMPDEST PUSH1 0x40 MLOAD SWAP1 DUP1 DUP3 MSTORE DUP1 PUSH1 0x1F ADD PUSH1 0x1F NOT AND PUSH1 0x20 ADD DUP3 ADD PUSH1 0x40 MSTORE DUP1 ISZERO PUSH2 0x207D JUMPI DUP2 PUSH1 0x20 ADD PUSH1 0x1 DUP3 MUL DUP1 CALLDATASIZE DUP4 CALLDATACOPY DUP1 DUP3 ADD SWAP2 POP POP SWAP1 POP JUMPDEST POP SWAP1 POP DUP2 DUP2 MSTORE PUSH1 0x1 DUP4 ADD DUP6 DUP7 MLOAD DUP2 ADD PUSH1 0x20 DUP5 ADD JUMPDEST DUP2 DUP4 LT ISZERO PUSH2 0x20EC JUMPI PUSH1 0x3 DUP4 ADD SWAP3 POP DUP3 MLOAD PUSH1 0x3F DUP2 PUSH1 0x12 SHR AND DUP6 ADD MLOAD DUP3 MSTORE8 PUSH1 0x1 DUP3 ADD SWAP2 POP PUSH1 0x3F DUP2 PUSH1 0xC SHR AND DUP6 ADD MLOAD DUP3 MSTORE8 PUSH1 0x1 DUP3 ADD SWAP2 POP PUSH1 0x3F DUP2 PUSH1 0x6 SHR AND DUP6 ADD MLOAD DUP3 MSTORE8 PUSH1 0x1 DUP3 ADD SWAP2 POP PUSH1 0x3F DUP2 AND DUP6 ADD MLOAD DUP3 MSTORE8 PUSH1 0x1 DUP3 ADD SWAP2 POP POP PUSH2 0x2091 JUMP JUMPDEST PUSH1 0x3 DUP10 MLOAD MOD PUSH1 0x1 DUP2 EQ PUSH2 0x2106 JUMPI PUSH1 0x2 DUP2 EQ PUSH2 0x2116 JUMPI PUSH2 0x2121 JUMP JUMPDEST PUSH2 0x3D3D PUSH1 0xF0 SHL PUSH1 0x2 DUP4 SUB MSTORE PUSH2 0x2121 JUMP JUMPDEST PUSH1 0x3D PUSH1 0xF8 SHL PUSH1 0x1 DUP4 SUB MSTORE JUMPDEST POP POP POP POP POP DUP1 SWAP4 POP POP POP POP JUMPDEST SWAP2 SWAP1 POP JUMP JUMPDEST PUSH1 0x0 PUSH1 0x8 DUP1 SLOAD SWAP1 POP SWAP1 POP SWAP1 JUMP JUMPDEST PUSH1 0x0 PUSH1 0x2 PUSH1 0x0 DUP4 DUP2 MSTORE PUSH1 0x20 ADD SWAP1 DUP2 MSTORE PUSH1 0x20 ADD PUSH1 0x0 KECCAK256 PUSH1 0x0 SWAP1 SLOAD SWAP1 PUSH2 0x100 EXP SWAP1 DIV PUSH20 0xFFFFFFFFFFFFFFFFFFFFFFFFFFFFFFFFFFFFFFFF AND SWAP1 POP SWAP2 SWAP1 POP JUMP JUMPDEST PUSH2 0x2184 PUSH2 0x1659 JUMP JUMPDEST PUSH20 0xFFFFFFFFFFFFFFFFFFFFFFFFFFFFFFFFFFFFFFFF AND PUSH2 0x21A2 PUSH2 0xFF3 JUMP JUMPDEST PUSH20 0xFFFFFFFFFFFFFFFFFFFFFFFFFFFFFFFFFFFFFFFF AND EQ PUSH2 0x21F8 JUMPI PUSH1 0x40 MLOAD PUSH32 0x8C379A000000000000000000000000000000000000000000000000000000000 DUP2 MSTORE PUSH1 0x4 ADD PUSH2 0x21EF SWAP1 PUSH2 0x57E2 JUMP JUMPDEST PUSH1 0x40 MLOAD DUP1 SWAP2 SUB SWAP1 REVERT JUMPDEST JUMP JUMPDEST PUSH1 0x0 PUSH1 0xA PUSH1 0x0 SWAP1 SLOAD SWAP1 PUSH2 0x100 EXP SWAP1 DIV PUSH20 0xFFFFFFFFFFFFFFFFFFFFFFFFFFFFFFFFFFFFFFFF AND SWAP1 POP DUP2 PUSH1 0xA PUSH1 0x0 PUSH2 0x100 EXP DUP2 SLOAD DUP2 PUSH20 0xFFFFFFFFFFFFFFFFFFFFFFFFFFFFFFFFFFFFFFFF MUL NOT AND SWAP1 DUP4 PUSH20 0xFFFFFFFFFFFFFFFFFFFFFFFFFFFFFFFFFFFFFFFF AND MUL OR SWAP1 SSTORE POP DUP2 PUSH20 0xFFFFFFFFFFFFFFFFFFFFFFFFFFFFFFFFFFFFFFFF AND DUP2 PUSH20 0xFFFFFFFFFFFFFFFFFFFFFFFFFFFFFFFFFFFFFFFF AND PUSH32 0x8BE0079C531659141344CD1FD0A4F28419497F9722A3DAAFE3B4186F6B6457E0 PUSH1 0x40 MLOAD PUSH1 0x40 MLOAD DUP1 SWAP2 SUB SWAP1 LOG3 POP POP JUMP JUMPDEST DUP2 PUSH20 0xFFFFFFFFFFFFFFFFFFFFFFFFFFFFFFFFFFFFFFFF AND DUP4 PUSH20 0xFFFFFFFFFFFFFFFFFFFFFFFFFFFFFFFFFFFFFFFF AND SUB PUSH2 0x232E JUMPI PUSH1 0x40 MLOAD PUSH32 0x8C379A000000000000000000000000000000000000000000000000000000000 DUP2 MSTORE PUSH1 0x4 ADD PUSH2 0x2325 SWAP1 PUSH2 0x584E JUMP JUMPDEST PUSH1 0x40 MLOAD DUP1 SWAP2 SUB SWAP1 REVERT JUMPDEST DUP1 PUSH1 0x5 PUSH1 0x0 DUP6 PUSH20 0xFFFFFFFFFFFFFFFFFFFFFFFFFFFFFFFFFFFFFFFF AND PUSH20 0xFFFFFFFFFFFFFFFFFFFFFFFFFFFFFFFFFFFFFFFF AND DUP2 MSTORE PUSH1 0x20 ADD SWAP1 DUP2 MSTORE PUSH1 0x20 ADD PUSH1 0x0 KECCAK256 PUSH1 0x0 DUP5 PUSH20 0xFFFFFFFFFFFFFFFFFFFFFFFFFFFFFFFFFFFFFFFF AND PUSH20 0xFFFFFFFFFFFFFFFFFFFFFFFFFFFFFFFFFFFFFFFF AND DUP2 MSTORE PUSH1 0x20 ADD SWAP1 DUP2 MSTORE PUSH1 0x20 ADD PUSH1 0x0 KECCAK256 PUSH1 0x0 PUSH2 0x100 EXP DUP2 SLOAD DUP2 PUSH1 0xFF MUL NOT AND SWAP1 DUP4 ISZERO ISZERO MUL OR SWAP1 SSTORE POP DUP2 PUSH20 0xFFFFFFFFFFFFFFFFFFFFFFFFFFFFFFFFFFFFFFFF AND DUP4 PUSH20 0xFFFFFFFFFFFFFFFFFFFFFFFFFFFFFFFFFFFFFFFF AND PUSH32 0x17307EAB39AB6107E8899845AD3D59BD9653F200F220920489CA2B5937696C31 DUP4 PUSH1 0x40 MLOAD PUSH2 0x241F SWAP2 SWAP1 PUSH2 0x34CF JUMP JUMPDEST PUSH1 0x40 MLOAD DUP1 SWAP2 SUB SWAP1 LOG3 POP POP POP JUMP JUMPDEST PUSH2 0x2437 DUP5 DUP5 DUP5 PUSH2 0x17F1 JUMP JUMPDEST PUSH2 0x2443 DUP5 DUP5 DUP5 DUP5 PUSH2 0x2BF5 JUMP JUMPDEST PUSH2 0x2482 JUMPI PUSH1 0x40 MLOAD PUSH32 0x8C379A000000000000000000000000000000000000000000000000000000000 DUP2 MSTORE PUSH1 0x4 ADD PUSH2 0x2479 SWAP1 PUSH2 0x58E0 JUMP JUMPDEST PUSH1 0x40 MLOAD DUP1 SWAP2 SUB SWAP1 REVERT JUMPDEST POP POP POP POP JUMP JUMPDEST PUSH1 0x0 DUP1 PUSH20 0xFFFFFFFFFFFFFFFFFFFFFFFFFFFFFFFFFFFFFFFF AND PUSH2 0x24AA DUP4 PUSH2 0x213F JUMP JUMPDEST PUSH20 0xFFFFFFFFFFFFFFFFFFFFFFFFFFFFFFFFFFFFFFFF AND EQ ISZERO SWAP1 POP SWAP2 SWAP1 POP JUMP JUMPDEST PUSH1 0x60 PUSH1 0x0 PUSH1 0x1 PUSH2 0x24D8 DUP5 PUSH2 0x2D7C JUMP JUMPDEST ADD SWAP1 POP PUSH1 0x0 DUP2 PUSH8 0xFFFFFFFFFFFFFFFF DUP2 GT ISZERO PUSH2 0x24F7 JUMPI PUSH2 0x24F6 PUSH2 0x38FF JUMP JUMPDEST JUMPDEST PUSH1 0x40 MLOAD SWAP1 DUP1 DUP3 MSTORE DUP1 PUSH1 0x1F ADD PUSH1 0x1F NOT AND PUSH1 0x20 ADD DUP3 ADD PUSH1 0x40 MSTORE DUP1 ISZERO PUSH2 0x2529 JUMPI DUP2 PUSH1 0x20 ADD PUSH1 0x1 DUP3 MUL DUP1 CALLDATASIZE DUP4 CALLDATACOPY DUP1 DUP3 ADD SWAP2 POP POP SWAP1 POP JUMPDEST POP SWAP1 POP PUSH1 0x0 DUP3 PUSH1 0x20 ADD DUP3 ADD SWAP1 POP JUMPDEST PUSH1 0x1 ISZERO PUSH2 0x258C JUMPI DUP1 DUP1 PUSH1 0x1 SWAP1 SUB SWAP2 POP POP PUSH32 0x3031323334353637383961626364656600000000000000000000000000000000 PUSH1 0xA DUP7 MOD BYTE DUP2 MSTORE8 PUSH1 0xA DUP6 DUP2 PUSH2 0x2580 JUMPI PUSH2 0x257F PUSH2 0x56F4 JUMP JUMPDEST JUMPDEST DIV SWAP5 POP PUSH1 0x0 DUP6 SUB PUSH2 0x2537 JUMPI JUMPDEST DUP2 SWAP4 POP POP POP POP SWAP2 SWAP1 POP JUMP JUMPDEST PUSH1 0x60 PUSH1 0x0 PUSH1 0x2 DUP4 PUSH1 0x2 PUSH2 0x25AA SWAP2 SWAP1 PUSH2 0x5754 JUMP JUMPDEST PUSH2 0x25B4 SWAP2 SWAP1 PUSH2 0x56C0 JUMP JUMPDEST PUSH8 0xFFFFFFFFFFFFFFFF DUP2 GT ISZERO PUSH2 0x25CD JUMPI PUSH2 0x25CC PUSH2 0x38FF JUMP JUMPDEST JUMPDEST PUSH1 0x40 MLOAD SWAP1 DUP1 DUP3 MSTORE DUP1 PUSH1 0x1F ADD PUSH1 0x1F NOT AND PUSH1 0x20 ADD DUP3 ADD PUSH1 0x40 MSTORE DUP1 ISZERO PUSH2 0x25FF JUMPI DUP2 PUSH1 0x20 ADD PUSH1 0x1 DUP3 MUL DUP1 CALLDATASIZE DUP4 CALLDATACOPY DUP1 DUP3 ADD SWAP2 POP POP SWAP1 POP JUMPDEST POP SWAP1 POP PUSH32 0x3000000000000000000000000000000000000000000000000000000000000000 DUP2 PUSH1 0x0 DUP2 MLOAD DUP2 LT PUSH2 0x2637 JUMPI PUSH2 0x2636 PUSH2 0x42FD JUMP JUMPDEST JUMPDEST PUSH1 0x20 ADD ADD SWAP1 PUSH31 0xFFFFFFFFFFFFFFFFFFFFFFFFFFFFFFFFFFFFFFFFFFFFFFFFFFFFFFFFFFFFFF NOT AND SWAP1 DUP2 PUSH1 0x0 BYTE SWAP1 MSTORE8 POP PUSH32 0x7800000000000000000000000000000000000000000000000000000000000000 DUP2 PUSH1 0x1 DUP2 MLOAD DUP2 LT PUSH2 0x269B JUMPI PUSH2 0x269A PUSH2 0x42FD JUMP JUMPDEST JUMPDEST PUSH1 0x20 ADD ADD SWAP1 PUSH31 0xFFFFFFFFFFFFFFFFFFFFFFFFFFFFFFFFFFFFFFFFFFFFFFFFFFFFFFFFFFFFFF NOT AND SWAP1 DUP2 PUSH1 0x0 BYTE SWAP1 MSTORE8 POP PUSH1 0x0 PUSH1 0x1 DUP5 PUSH1 0x2 PUSH2 0x26DB SWAP2 SWAP1 PUSH2 0x5754 JUMP JUMPDEST PUSH2 0x26E5 SWAP2 SWAP1 PUSH2 0x56C0 JUMP JUMPDEST SWAP1 POP JUMPDEST PUSH1 0x1 DUP2 GT ISZERO PUSH2 0x2785 JUMPI PUSH32 0x3031323334353637383961626364656600000000000000000000000000000000 PUSH1 0xF DUP7 AND PUSH1 0x10 DUP2 LT PUSH2 0x2727 JUMPI PUSH2 0x2726 PUSH2 0x42FD JUMP JUMPDEST JUMPDEST BYTE PUSH1 0xF8 SHL DUP3 DUP3 DUP2 MLOAD DUP2 LT PUSH2 0x273E JUMPI PUSH2 0x273D PUSH2 0x42FD JUMP JUMPDEST JUMPDEST PUSH1 0x20 ADD ADD SWAP1 PUSH31 0xFFFFFFFFFFFFFFFFFFFFFFFFFFFFFFFFFFFFFFFFFFFFFFFFFFFFFFFFFFFFFF NOT AND SWAP1 DUP2 PUSH1 0x0 BYTE SWAP1 MSTORE8 POP PUSH1 0x4 DUP6 SWAP1 SHR SWAP5 POP DUP1 PUSH2 0x277E SWAP1 PUSH2 0x5900 JUMP JUMPDEST SWAP1 POP PUSH2 0x26E8 JUMP JUMPDEST POP DUP1 SWAP2 POP POP SWAP3 SWAP2 POP POP JUMP JUMPDEST PUSH1 0x0 PUSH32 0x1FFC9A700000000000000000000000000000000000000000000000000000000 PUSH28 0xFFFFFFFFFFFFFFFFFFFFFFFFFFFFFFFFFFFFFFFFFFFFFFFFFFFFFFFF NOT AND DUP3 PUSH28 0xFFFFFFFFFFFFFFFFFFFFFFFFFFFFFFFFFFFFFFFFFFFFFFFFFFFFFFFF NOT AND EQ SWAP1 POP SWAP2 SWAP1 POP JUMP JUMPDEST PUSH2 0x2804 DUP4 DUP4 PUSH2 0x2ECF JUMP JUMPDEST PUSH2 0x2811 PUSH1 0x0 DUP5 DUP5 DUP5 PUSH2 0x2BF5 JUMP JUMPDEST PUSH2 0x2850 JUMPI PUSH1 0x40 MLOAD PUSH32 0x8C379A000000000000000000000000000000000000000000000000000000000 DUP2 MSTORE PUSH1 0x4 ADD PUSH2 0x2847 SWAP1 PUSH2 0x58E0 JUMP JUMPDEST PUSH1 0x40 MLOAD DUP1 SWAP2 SUB SWAP1 REVERT JUMPDEST POP POP POP JUMP JUMPDEST PUSH2 0x2861 DUP5 DUP5 DUP5 DUP5 PUSH2 0x30EC JUMP JUMPDEST PUSH1 0x1 DUP2 GT ISZERO PUSH2 0x28A5 JUMPI PUSH1 0x40 MLOAD PUSH32 0x8C379A000000000000000000000000000000000000000000000000000000000 DUP2 MSTORE PUSH1 0x4 ADD PUSH2 0x289C SWAP1 PUSH2 0x599B JUMP JUMPDEST PUSH1 0x40 MLOAD DUP1 SWAP2 SUB SWAP1 REVERT JUMPDEST PUSH1 0x0 DUP3 SWAP1 POP PUSH1 0x0 PUSH20 0xFFFFFFFFFFFFFFFFFFFFFFFFFFFFFFFFFFFFFFFF AND DUP6 PUSH20 0xFFFFFFFFFFFFFFFFFFFFFFFFFFFFFFFFFFFFFFFF AND SUB PUSH2 0x28EC JUMPI PUSH2 0x28E7 DUP2 PUSH2 0x30F2 JUMP JUMPDEST PUSH2 0x292B JUMP JUMPDEST DUP4 PUSH20 0xFFFFFFFFFFFFFFFFFFFFFFFFFFFFFFFFFFFFFFFF AND DUP6 PUSH20 0xFFFFFFFFFFFFFFFFFFFFFFFFFFFFFFFFFFFFFFFF AND EQ PUSH2 0x292A JUMPI PUSH2 0x2929 DUP6 DUP3 PUSH2 0x313B JUMP JUMPDEST JUMPDEST JUMPDEST PUSH1 0x0 PUSH20 0xFFFFFFFFFFFFFFFFFFFFFFFFFFFFFFFFFFFFFFFF AND DUP5 PUSH20 0xFFFFFFFFFFFFFFFFFFFFFFFFFFFFFFFFFFFFFFFF AND SUB PUSH2 0x296D JUMPI PUSH2 0x2968 DUP2 PUSH2 0x32A8 JUMP JUMPDEST PUSH2 0x29AC JUMP JUMPDEST DUP5 PUSH20 0xFFFFFFFFFFFFFFFFFFFFFFFFFFFFFFFFFFFFFFFF AND DUP5 PUSH20 0xFFFFFFFFFFFFFFFFFFFFFFFFFFFFFFFFFFFFFFFF AND EQ PUSH2 0x29AB JUMPI PUSH2 0x29AA DUP5 DUP3 PUSH2 0x3379 JUMP JUMPDEST JUMPDEST JUMPDEST POP POP POP POP POP JUMP JUMPDEST POP POP POP POP JUMP JUMPDEST PUSH1 0x60 PUSH1 0x0 PUSH1 0x2 DUP4 PUSH1 0x2 PUSH2 0x29CC SWAP2 SWAP1 PUSH2 0x5754 JUMP JUMPDEST PUSH2 0x29D6 SWAP2 SWAP1 PUSH2 0x56C0 JUMP JUMPDEST PUSH8 0xFFFFFFFFFFFFFFFF DUP2 GT ISZERO PUSH2 0x29EF JUMPI PUSH2 0x29EE PUSH2 0x38FF JUMP JUMPDEST JUMPDEST PUSH1 0x40 MLOAD SWAP1 DUP1 DUP3 MSTORE DUP1 PUSH1 0x1F ADD PUSH1 0x1F NOT AND PUSH1 0x20 ADD DUP3 ADD PUSH1 0x40 MSTORE DUP1 ISZERO PUSH2 0x2A21 JUMPI DUP2 PUSH1 0x20 ADD PUSH1 0x1 DUP3 MUL DUP1 CALLDATASIZE DUP4 CALLDATACOPY DUP1 DUP3 ADD SWAP2 POP POP SWAP1 POP JUMPDEST POP SWAP1 POP PUSH32 0x3000000000000000000000000000000000000000000000000000000000000000 DUP2 PUSH1 0x0 DUP2 MLOAD DUP2 LT PUSH2 0x2A59 JUMPI PUSH2 0x2A58 PUSH2 0x42FD JUMP JUMPDEST JUMPDEST PUSH1 0x20 ADD ADD SWAP1 PUSH31 0xFFFFFFFFFFFFFFFFFFFFFFFFFFFFFFFFFFFFFFFFFFFFFFFFFFFFFFFFFFFFFF NOT AND SWAP1 DUP2 PUSH1 0x0 BYTE SWAP1 MSTORE8 POP PUSH32 0x7800000000000000000000000000000000000000000000000000000000000000 DUP2 PUSH1 0x1 DUP2 MLOAD DUP2 LT PUSH2 0x2ABD JUMPI PUSH2 0x2ABC PUSH2 0x42FD JUMP JUMPDEST JUMPDEST PUSH1 0x20 ADD ADD SWAP1 PUSH31 0xFFFFFFFFFFFFFFFFFFFFFFFFFFFFFFFFFFFFFFFFFFFFFFFFFFFFFFFFFFFFFF NOT AND SWAP1 DUP2 PUSH1 0x0 BYTE SWAP1 MSTORE8 POP PUSH1 0x0 PUSH1 0x1 DUP5 PUSH1 0x2 PUSH2 0x2AFD SWAP2 SWAP1 PUSH2 0x5754 JUMP JUMPDEST PUSH2 0x2B07 SWAP2 SWAP1 PUSH2 0x56C0 JUMP JUMPDEST SWAP1 POP JUMPDEST PUSH1 0x1 DUP2 GT ISZERO PUSH2 0x2BA7 JUMPI PUSH32 0x3031323334353637383961626364656600000000000000000000000000000000 PUSH1 0xF DUP7 AND PUSH1 0x10 DUP2 LT PUSH2 0x2B49 JUMPI PUSH2 0x2B48 PUSH2 0x42FD JUMP JUMPDEST JUMPDEST BYTE PUSH1 0xF8 SHL DUP3 DUP3 DUP2 MLOAD DUP2 LT PUSH2 0x2B60 JUMPI PUSH2 0x2B5F PUSH2 0x42FD JUMP JUMPDEST JUMPDEST PUSH1 0x20 ADD ADD SWAP1 PUSH31 0xFFFFFFFFFFFFFFFFFFFFFFFFFFFFFFFFFFFFFFFFFFFFFFFFFFFFFFFFFFFFFF NOT AND SWAP1 DUP2 PUSH1 0x0 BYTE SWAP1 MSTORE8 POP PUSH1 0x4 DUP6 SWAP1 SHR SWAP5 POP DUP1 PUSH2 0x2BA0 SWAP1 PUSH2 0x5900 JUMP JUMPDEST SWAP1 POP PUSH2 0x2B0A JUMP JUMPDEST POP PUSH1 0x0 DUP5 EQ PUSH2 0x2BEB JUMPI PUSH1 0x40 MLOAD PUSH32 0x8C379A000000000000000000000000000000000000000000000000000000000 DUP2 MSTORE PUSH1 0x4 ADD PUSH2 0x2BE2 SWAP1 PUSH2 0x5A07 JUMP JUMPDEST PUSH1 0x40 MLOAD DUP1 SWAP2 SUB SWAP1 REVERT JUMPDEST DUP1 SWAP2 POP POP SWAP3 SWAP2 POP POP JUMP JUMPDEST PUSH1 0x0 PUSH2 0x2C16 DUP5 PUSH20 0xFFFFFFFFFFFFFFFFFFFFFFFFFFFFFFFFFFFFFFFF AND PUSH2 0x33F8 JUMP JUMPDEST ISZERO PUSH2 0x2D6F JUMPI DUP4 PUSH20 0xFFFFFFFFFFFFFFFFFFFFFFFFFFFFFFFFFFFFFFFF AND PUSH4 0x150B7A02 PUSH2 0x2C3F PUSH2 0x1659 JUMP JUMPDEST DUP8 DUP7 DUP7 PUSH1 0x40 MLOAD DUP6 PUSH4 0xFFFFFFFF AND PUSH1 0xE0 SHL DUP2 MSTORE PUSH1 0x4 ADD PUSH2 0x2C61 SWAP5 SWAP4 SWAP3 SWAP2 SWAP1 PUSH2 0x5A71 JUMP JUMPDEST PUSH1 0x20 PUSH1 0x40 MLOAD DUP1 DUP4 SUB DUP2 PUSH1 0x0 DUP8 GAS CALL SWAP3 POP POP POP DUP1 ISZERO PUSH2 0x2C9D JUMPI POP PUSH1 0x40 MLOAD RETURNDATASIZE PUSH1 0x1F NOT PUSH1 0x1F DUP3 ADD AND DUP3 ADD DUP1 PUSH1 0x40 MSTORE POP DUP2 ADD SWAP1 PUSH2 0x2C9A SWAP2 SWAP1 PUSH2 0x5AD2 JUMP JUMPDEST PUSH1 0x1 JUMPDEST PUSH2 0x2D1F JUMPI RETURNDATASIZE DUP1 PUSH1 0x0 DUP2 EQ PUSH2 0x2CCD JUMPI PUSH1 0x40 MLOAD SWAP2 POP PUSH1 0x1F NOT PUSH1 0x3F RETURNDATASIZE ADD AND DUP3 ADD PUSH1 0x40 MSTORE RETURNDATASIZE DUP3 MSTORE RETURNDATASIZE PUSH1 0x0 PUSH1 0x20 DUP5 ADD RETURNDATACOPY PUSH2 0x2CD2 JUMP JUMPDEST PUSH1 0x60 SWAP2 POP JUMPDEST POP PUSH1 0x0 DUP2 MLOAD SUB PUSH2 0x2D17 JUMPI PUSH1 0x40 MLOAD PUSH32 0x8C379A000000000000000000000000000000000000000000000000000000000 DUP2 MSTORE PUSH1 0x4 ADD PUSH2 0x2D0E SWAP1 PUSH2 0x58E0 JUMP JUMPDEST PUSH1 0x40 MLOAD DUP1 SWAP2 SUB SWAP1 REVERT JUMPDEST DUP1 MLOAD DUP2 PUSH1 0x20 ADD REVERT JUMPDEST PUSH4 0x150B7A02 PUSH1 0xE0 SHL PUSH28 0xFFFFFFFFFFFFFFFFFFFFFFFFFFFFFFFFFFFFFFFFFFFFFFFFFFFFFFFF NOT AND DUP2 PUSH28 0xFFFFFFFFFFFFFFFFFFFFFFFFFFFFFFFFFFFFFFFFFFFFFFFFFFFFFFFF NOT AND EQ SWAP2 POP POP PUSH2 0x2D74 JUMP JUMPDEST PUSH1 0x1 SWAP1 POP JUMPDEST SWAP5 SWAP4 POP POP POP POP JUMP JUMPDEST PUSH1 0x0 DUP1 PUSH1 0x0 SWAP1 POP PUSH27 0x184F03E93FF9F4DAA797ED6E38ED64BF6A1F010000000000000000 DUP4 LT PUSH2 0x2DDA JUMPI PUSH27 0x184F03E93FF9F4DAA797ED6E38ED64BF6A1F010000000000000000 DUP4 DUP2 PUSH2 0x2DD0 JUMPI PUSH2 0x2DCF PUSH2 0x56F4 JUMP JUMPDEST JUMPDEST DIV SWAP3 POP PUSH1 0x40 DUP2 ADD SWAP1 POP JUMPDEST PUSH14 0x4EE2D6D415B85ACEF8100000000 DUP4 LT PUSH2 0x2E17 JUMPI PUSH14 0x4EE2D6D415B85ACEF8100000000 DUP4 DUP2 PUSH2 0x2E0D JUMPI PUSH2 0x2E0C PUSH2 0x56F4 JUMP JUMPDEST JUMPDEST DIV SWAP3 POP PUSH1 0x20 DUP2 ADD SWAP1 POP JUMPDEST PUSH7 0x2386F26FC10000 DUP4 LT PUSH2 0x2E46 JUMPI PUSH7 0x2386F26FC10000 DUP4 DUP2 PUSH2 0x2E3C JUMPI PUSH2 0x2E3B PUSH2 0x56F4 JUMP JUMPDEST JUMPDEST DIV SWAP3 POP PUSH1 0x10 DUP2 ADD SWAP1 POP JUMPDEST PUSH4 0x5F5E100 DUP4 LT PUSH2 0x2E6F JUMPI PUSH4 0x5F5E100 DUP4 DUP2 PUSH2 0x2E65 JUMPI PUSH2 0x2E64 PUSH2 0x56F4 JUMP JUMPDEST JUMPDEST DIV SWAP3 POP PUSH1 0x8 DUP2 ADD SWAP1 POP JUMPDEST PUSH2 0x2710 DUP4 LT PUSH2 0x2E94 JUMPI PUSH2 0x2710 DUP4 DUP2 PUSH2 0x2E8A JUMPI PUSH2 0x2E89 PUSH2 0x56F4 JUMP JUMPDEST JUMPDEST DIV SWAP3 POP PUSH1 0x4 DUP2 ADD SWAP1 POP JUMPDEST PUSH1 0x64 DUP4 LT PUSH2 0x2EB7 JUMPI PUSH1 0x64 DUP4 DUP2 PUSH2 0x2EAD JUMPI PUSH2 0x2EAC PUSH2 0x56F4 JUMP JUMPDEST JUMPDEST DIV SWAP3 POP PUSH1 0x2 DUP2 ADD SWAP1 POP JUMPDEST PUSH1 0xA DUP4 LT PUSH2 0x2EC6 JUMPI PUSH1 0x1 DUP2 ADD SWAP1 POP JUMPDEST DUP1 SWAP2 POP POP SWAP2 SWAP1 POP JUMP JUMPDEST PUSH1 0x0 PUSH20 0xFFFFFFFFFFFFFFFFFFFFFFFFFFFFFFFFFFFFFFFF AND DUP3 PUSH20 0xFFFFFFFFFFFFFFFFFFFFFFFFFFFFFFFFFFFFFFFF AND SUB PUSH2 0x2F3E JUMPI PUSH1 0x40 MLOAD PUSH32 0x8C379A000000000000000000000000000000000000000000000000000000000 DUP2 MSTORE PUSH1 0x4 ADD PUSH2 0x2F35 SWAP1 PUSH2 0x5B4B JUMP JUMPDEST PUSH1 0x40 MLOAD DUP1 SWAP2 SUB SWAP1 REVERT JUMPDEST PUSH2 0x2F47 DUP2 PUSH2 0x2488 JUMP JUMPDEST ISZERO PUSH2 0x2F87 JUMPI PUSH1 0x40 MLOAD PUSH32 0x8C379A000000000000000000000000000000000000000000000000000000000 DUP2 MSTORE PUSH1 0x4 ADD PUSH2 0x2F7E SWAP1 PUSH2 0x5BB7 JUMP JUMPDEST PUSH1 0x40 MLOAD DUP1 SWAP2 SUB SWAP1 REVERT JUMPDEST PUSH2 0x2F95 PUSH1 0x0 DUP4 DUP4 PUSH1 0x1 PUSH2 0x2855 JUMP JUMPDEST PUSH2 0x2F9E DUP2 PUSH2 0x2488 JUMP JUMPDEST ISZERO PUSH2 0x2FDE JUMPI PUSH1 0x40 MLOAD PUSH32 0x8C379A000000000000000000000000000000000000000000000000000000000 DUP2 MSTORE PUSH1 0x4 ADD PUSH2 0x2FD5 SWAP1 PUSH2 0x5BB7 JUMP JUMPDEST PUSH1 0x40 MLOAD DUP1 SWAP2 SUB SWAP1 REVERT JUMPDEST PUSH1 0x1 PUSH1 0x3 PUSH1 0x0 DUP5 PUSH20 0xFFFFFFFFFFFFFFFFFFFFFFFFFFFFFFFFFFFFFFFF AND PUSH20 0xFFFFFFFFFFFFFFFFFFFFFFFFFFFFFFFFFFFFFFFF AND DUP2 MSTORE PUSH1 0x20 ADD SWAP1 DUP2 MSTORE PUSH1 0x20 ADD PUSH1 0x0 KECCAK256 PUSH1 0x0 DUP3 DUP3 SLOAD ADD SWAP3 POP POP DUP2 SWAP1 SSTORE POP DUP2 PUSH1 0x2 PUSH1 0x0 DUP4 DUP2 MSTORE PUSH1 0x20 ADD SWAP1 DUP2 MSTORE PUSH1 0x20 ADD PUSH1 0x0 KECCAK256 PUSH1 0x0 PUSH2 0x100 EXP DUP2 SLOAD DUP2 PUSH20 0xFFFFFFFFFFFFFFFFFFFFFFFFFFFFFFFFFFFFFFFF MUL NOT AND SWAP1 DUP4 PUSH20 0xFFFFFFFFFFFFFFFFFFFFFFFFFFFFFFFFFFFFFFFF AND MUL OR SWAP1 SSTORE POP DUP1 DUP3 PUSH20 0xFFFFFFFFFFFFFFFFFFFFFFFFFFFFFFFFFFFFFFFF AND PUSH1 0x0 PUSH20 0xFFFFFFFFFFFFFFFFFFFFFFFFFFFFFFFFFFFFFFFF AND PUSH32 0xDDF252AD1BE2C89B69C2B068FC378DAA952BA7F163C4A11628F55A4DF523B3EF PUSH1 0x40 MLOAD PUSH1 0x40 MLOAD DUP1 SWAP2 SUB SWAP1 LOG4 PUSH2 0x30E8 PUSH1 0x0 DUP4 DUP4 PUSH1 0x1 PUSH2 0x29B3 JUMP JUMPDEST POP POP JUMP JUMPDEST POP POP POP POP JUMP JUMPDEST PUSH1 0x8 DUP1 SLOAD SWAP1 POP PUSH1 0x9 PUSH1 0x0 DUP4 DUP2 MSTORE PUSH1 0x20 ADD SWAP1 DUP2 MSTORE PUSH1 0x20 ADD PUSH1 0x0 KECCAK256 DUP2 SWAP1 SSTORE POP PUSH1 0x8 DUP2 SWAP1 DUP1 PUSH1 0x1 DUP2 SLOAD ADD DUP1 DUP3 SSTORE DUP1 SWAP2 POP POP PUSH1 0x1 SWAP1 SUB SWAP1 PUSH1 0x0 MSTORE PUSH1 0x20 PUSH1 0x0 KECCAK256 ADD PUSH1 0x0 SWAP1 SWAP2 SWAP1 SWAP2 SWAP1 SWAP2 POP SSTORE POP JUMP JUMPDEST PUSH1 0x0 PUSH1 0x1 PUSH2 0x3148 DUP5 PUSH2 0xF08 JUMP JUMPDEST PUSH2 0x3152 SWAP2 SWAP1 PUSH2 0x5BD7 JUMP JUMPDEST SWAP1 POP PUSH1 0x0 PUSH1 0x7 PUSH1 0x0 DUP5 DUP2 MSTORE PUSH1 0x20 ADD SWAP1 DUP2 MSTORE PUSH1 0x20 ADD PUSH1 0x0 KECCAK256 SLOAD SWAP1 POP DUP2 DUP2 EQ PUSH2 0x3237 JUMPI PUSH1 0x0 PUSH1 0x6 PUSH1 0x0 DUP7 PUSH20 0xFFFFFFFFFFFFFFFFFFFFFFFFFFFFFFFFFFFFFFFF AND PUSH20 0xFFFFFFFFFFFFFFFFFFFFFFFFFFFFFFFFFFFFFFFF AND DUP2 MSTORE PUSH1 0x20 ADD SWAP1 DUP2 MSTORE PUSH1 0x20 ADD PUSH1 0x0 KECCAK256 PUSH1 0x0 DUP5 DUP2 MSTORE PUSH1 0x20 ADD SWAP1 DUP2 MSTORE PUSH1 0x20 ADD PUSH1 0x0 KECCAK256 SLOAD SWAP1 POP DUP1 PUSH1 0x6 PUSH1 0x0 DUP8 PUSH20 0xFFFFFFFFFFFFFFFFFFFFFFFFFFFFFFFFFFFFFFFF AND PUSH20 0xFFFFFFFFFFFFFFFFFFFFFFFFFFFFFFFFFFFFFFFF AND DUP2 MSTORE PUSH1 0x20 ADD SWAP1 DUP2 MSTORE PUSH1 0x20 ADD PUSH1 0x0 KECCAK256 PUSH1 0x0 DUP5 DUP2 MSTORE PUSH1 0x20 ADD SWAP1 DUP2 MSTORE PUSH1 0x20 ADD PUSH1 0x0 KECCAK256 DUP2 SWAP1 SSTORE POP DUP2 PUSH1 0x7 PUSH1 0x0 DUP4 DUP2 MSTORE PUSH1 0x20 ADD SWAP1 DUP2 MSTORE PUSH1 0x20 ADD PUSH1 0x0 KECCAK256 DUP2 SWAP1 SSTORE POP POP JUMPDEST PUSH1 0x7 PUSH1 0x0 DUP5 DUP2 MSTORE PUSH1 0x20 ADD SWAP1 DUP2 MSTORE PUSH1 0x20 ADD PUSH1 0x0 KECCAK256 PUSH1 0x0 SWAP1 SSTORE PUSH1 0x6 PUSH1 0x0 DUP6 PUSH20 0xFFFFFFFFFFFFFFFFFFFFFFFFFFFFFFFFFFFFFFFF AND PUSH20 0xFFFFFFFFFFFFFFFFFFFFFFFFFFFFFFFFFFFFFFFF AND DUP2 MSTORE PUSH1 0x20 ADD SWAP1 DUP2 MSTORE PUSH1 0x20 ADD PUSH1 0x0 KECCAK256 PUSH1 0x0 DUP4 DUP2 MSTORE PUSH1 0x20 ADD SWAP1 DUP2 MSTORE PUSH1 0x20 ADD PUSH1 0x0 KECCAK256 PUSH1 0x0 SWAP1 SSTORE POP POP POP POP JUMP JUMPDEST PUSH1 0x0 PUSH1 0x1 PUSH1 0x8 DUP1 SLOAD SWAP1 POP PUSH2 0x32BC SWAP2 SWAP1 PUSH2 0x5BD7 JUMP JUMPDEST SWAP1 POP PUSH1 0x0 PUSH1 0x9 PUSH1 0x0 DUP5 DUP2 MSTORE PUSH1 0x20 ADD SWAP1 DUP2 MSTORE PUSH1 0x20 ADD PUSH1 0x0 KECCAK256 SLOAD SWAP1 POP PUSH1 0x0 PUSH1 0x8 DUP4 DUP2 SLOAD DUP2 LT PUSH2 0x32EC JUMPI PUSH2 0x32EB PUSH2 0x42FD JUMP JUMPDEST JUMPDEST SWAP1 PUSH1 0x0 MSTORE PUSH1 0x20 PUSH1 0x0 KECCAK256 ADD SLOAD SWAP1 POP DUP1 PUSH1 0x8 DUP4 DUP2 SLOAD DUP2 LT PUSH2 0x330E JUMPI PUSH2 0x330D PUSH2 0x42FD JUMP JUMPDEST JUMPDEST SWAP1 PUSH1 0x0 MSTORE PUSH1 0x20 PUSH1 0x0 KECCAK256 ADD DUP2 SWAP1 SSTORE POP DUP2 PUSH1 0x9 PUSH1 0x0 DUP4 DUP2 MSTORE PUSH1 0x20 ADD SWAP1 DUP2 MSTORE PUSH1 0x20 ADD PUSH1 0x0 KECCAK256 DUP2 SWAP1 SSTORE POP PUSH1 0x9 PUSH1 0x0 DUP6 DUP2 MSTORE PUSH1 0x20 ADD SWAP1 DUP2 MSTORE PUSH1 0x20 ADD PUSH1 0x0 KECCAK256 PUSH1 0x0 SWAP1 SSTORE PUSH1 0x8 DUP1 SLOAD DUP1 PUSH2 0x335D JUMPI PUSH2 0x335C PUSH2 0x5C0B JUMP JUMPDEST JUMPDEST PUSH1 0x1 SWAP1 SUB DUP2 DUP2 SWAP1 PUSH1 0x0 MSTORE PUSH1 0x20 PUSH1 0x0 KECCAK256 ADD PUSH1 0x0 SWAP1 SSTORE SWAP1 SSTORE POP POP POP POP JUMP JUMPDEST PUSH1 0x0 PUSH2 0x3384 DUP4 PUSH2 0xF08 JUMP JUMPDEST SWAP1 POP DUP2 PUSH1 0x6 PUSH1 0x0 DUP6 PUSH20 0xFFFFFFFFFFFFFFFFFFFFFFFFFFFFFFFFFFFFFFFF AND PUSH20 0xFFFFFFFFFFFFFFFFFFFFFFFFFFFFFFFFFFFFFFFF AND DUP2 MSTORE PUSH1 0x20 ADD SWAP1 DUP2 MSTORE PUSH1 0x20 ADD PUSH1 0x0 KECCAK256 PUSH1 0x0 DUP4 DUP2 MSTORE PUSH1 0x20 ADD SWAP1 DUP2 MSTORE PUSH1 0x20 ADD PUSH1 0x0 KECCAK256 DUP2 SWAP1 SSTORE POP DUP1 PUSH1 0x7 PUSH1 0x0 DUP5 DUP2 MSTORE PUSH1 0x20 ADD SWAP1 DUP2 MSTORE PUSH1 0x20 ADD PUSH1 0x0 KECCAK256 DUP2 SWAP1 SSTORE POP POP POP POP JUMP JUMPDEST PUSH1 0x0 DUP1 DUP3 PUSH20 0xFFFFFFFFFFFFFFFFFFFFFFFFFFFFFFFFFFFFFFFF AND EXTCODESIZE GT SWAP1 POP SWAP2 SWAP1 POP JUMP JUMPDEST PUSH1 0x0 PUSH1 0x40 MLOAD SWAP1 POP SWAP1 JUMP JUMPDEST PUSH1 0x0 DUP1 REVERT JUMPDEST PUSH1 0x0 DUP1 REVERT JUMPDEST PUSH1 0x0 PUSH32 0xFFFFFFFF00000000000000000000000000000000000000000000000000000000 DUP3 AND SWAP1 POP SWAP2 SWAP1 POP JUMP JUMPDEST PUSH2 0x3464 DUP2 PUSH2 0x342F JUMP JUMPDEST DUP2 EQ PUSH2 0x346F JUMPI PUSH1 0x0 DUP1 REVERT JUMPDEST POP JUMP JUMPDEST PUSH1 0x0 DUP2 CALLDATALOAD SWAP1 POP PUSH2 0x3481 DUP2 PUSH2 0x345B JUMP JUMPDEST SWAP3 SWAP2 POP POP JUMP JUMPDEST PUSH1 0x0 PUSH1 0x20 DUP3 DUP5 SUB SLT ISZERO PUSH2 0x349D JUMPI PUSH2 0x349C PUSH2 0x3425 JUMP JUMPDEST JUMPDEST PUSH1 0x0 PUSH2 0x34AB DUP5 DUP3 DUP6 ADD PUSH2 0x3472 JUMP JUMPDEST SWAP2 POP POP SWAP3 SWAP2 POP POP JUMP JUMPDEST PUSH1 0x0 DUP2 ISZERO ISZERO SWAP1 POP SWAP2 SWAP1 POP JUMP JUMPDEST PUSH2 0x34C9 DUP2 PUSH2 0x34B4 JUMP JUMPDEST DUP3 MSTORE POP POP JUMP JUMPDEST PUSH1 0x0 PUSH1 0x20 DUP3 ADD SWAP1 POP PUSH2 0x34E4 PUSH1 0x0 DUP4 ADD DUP5 PUSH2 0x34C0 JUMP JUMPDEST SWAP3 SWAP2 POP POP JUMP JUMPDEST PUSH1 0x0 DUP2 MLOAD SWAP1 POP SWAP2 SWAP1 POP JUMP JUMPDEST PUSH1 0x0 DUP3 DUP3 MSTORE PUSH1 0x20 DUP3 ADD SWAP1 POP SWAP3 SWAP2 POP POP JUMP JUMPDEST PUSH1 0x0 JUMPDEST DUP4 DUP2 LT ISZERO PUSH2 0x3524 JUMPI DUP1 DUP3 ADD MLOAD DUP2 DUP5 ADD MSTORE PUSH1 0x20 DUP2 ADD SWAP1 POP PUSH2 0x3509 JUMP JUMPDEST PUSH1 0x0 DUP5 DUP5 ADD MSTORE POP POP POP POP JUMP JUMPDEST PUSH1 0x0 PUSH1 0x1F NOT PUSH1 0x1F DUP4 ADD AND SWAP1 POP SWAP2 SWAP1 POP JUMP JUMPDEST PUSH1 0x0 PUSH2 0x354C DUP3 PUSH2 0x34EA JUMP JUMPDEST PUSH2 0x3556 DUP2 DUP6 PUSH2 0x34F5 JUMP JUMPDEST SWAP4 POP PUSH2 0x3566 DUP2 DUP6 PUSH1 0x20 DUP7 ADD PUSH2 0x3506 JUMP JUMPDEST PUSH2 0x356F DUP2 PUSH2 0x3530 JUMP JUMPDEST DUP5 ADD SWAP2 POP POP SWAP3 SWAP2 POP POP JUMP JUMPDEST PUSH1 0x0 PUSH1 0x20 DUP3 ADD SWAP1 POP DUP2 DUP2 SUB PUSH1 0x0 DUP4 ADD MSTORE PUSH2 0x3594 DUP2 DUP5 PUSH2 0x3541 JUMP JUMPDEST SWAP1 POP SWAP3 SWAP2 POP POP JUMP JUMPDEST PUSH1 0x0 DUP2 SWAP1 POP SWAP2 SWAP1 POP JUMP JUMPDEST PUSH2 0x35AF DUP2 PUSH2 0x359C JUMP JUMPDEST DUP2 EQ PUSH2 0x35BA JUMPI PUSH1 0x0 DUP1 REVERT JUMPDEST POP JUMP JUMPDEST PUSH1 0x0 DUP2 CALLDATALOAD SWAP1 POP PUSH2 0x35CC DUP2 PUSH2 0x35A6 JUMP JUMPDEST SWAP3 SWAP2 POP POP JUMP JUMPDEST PUSH1 0x0 PUSH1 0x20 DUP3 DUP5 SUB SLT ISZERO PUSH2 0x35E8 JUMPI PUSH2 0x35E7 PUSH2 0x3425 JUMP JUMPDEST JUMPDEST PUSH1 0x0 PUSH2 0x35F6 DUP5 DUP3 DUP6 ADD PUSH2 0x35BD JUMP JUMPDEST SWAP2 POP POP SWAP3 SWAP2 POP POP JUMP JUMPDEST PUSH1 0x0 PUSH20 0xFFFFFFFFFFFFFFFFFFFFFFFFFFFFFFFFFFFFFFFF DUP3 AND SWAP1 POP SWAP2 SWAP1 POP JUMP JUMPDEST PUSH1 0x0 PUSH2 0x362A DUP3 PUSH2 0x35FF JUMP JUMPDEST SWAP1 POP SWAP2 SWAP1 POP JUMP JUMPDEST PUSH2 0x363A DUP2 PUSH2 0x361F JUMP JUMPDEST DUP3 MSTORE POP POP JUMP JUMPDEST PUSH1 0x0 PUSH1 0x20 DUP3 ADD SWAP1 POP PUSH2 0x3655 PUSH1 0x0 DUP4 ADD DUP5 PUSH2 0x3631 JUMP JUMPDEST SWAP3 SWAP2 POP POP JUMP JUMPDEST PUSH2 0x3664 DUP2 PUSH2 0x361F JUMP JUMPDEST DUP2 EQ PUSH2 0x366F JUMPI PUSH1 0x0 DUP1 REVERT JUMPDEST POP JUMP JUMPDEST PUSH1 0x0 DUP2 CALLDATALOAD SWAP1 POP PUSH2 0x3681 DUP2 PUSH2 0x365B JUMP JUMPDEST SWAP3 SWAP2 POP POP JUMP JUMPDEST PUSH1 0x0 DUP1 PUSH1 0x40 DUP4 DUP6 SUB SLT ISZERO PUSH2 0x369E JUMPI PUSH2 0x369D PUSH2 0x3425 JUMP JUMPDEST JUMPDEST PUSH1 0x0 PUSH2 0x36AC DUP6 DUP3 DUP7 ADD PUSH2 0x3672 JUMP JUMPDEST SWAP3 POP POP PUSH1 0x20 PUSH2 0x36BD DUP6 DUP3 DUP7 ADD PUSH2 0x35BD JUMP JUMPDEST SWAP2 POP POP SWAP3 POP SWAP3 SWAP1 POP JUMP JUMPDEST PUSH2 0x36D0 DUP2 PUSH2 0x359C JUMP JUMPDEST DUP3 MSTORE POP POP JUMP JUMPDEST PUSH1 0x0 PUSH1 0x20 DUP3 ADD SWAP1 POP PUSH2 0x36EB PUSH1 0x0 DUP4 ADD DUP5 PUSH2 0x36C7 JUMP JUMPDEST SWAP3 SWAP2 POP POP JUMP JUMPDEST PUSH1 0x0 DUP1 PUSH1 0x0 PUSH1 0x60 DUP5 DUP7 SUB SLT ISZERO PUSH2 0x370A JUMPI PUSH2 0x3709 PUSH2 0x3425 JUMP JUMPDEST JUMPDEST PUSH1 0x0 PUSH2 0x3718 DUP7 DUP3 DUP8 ADD PUSH2 0x3672 JUMP JUMPDEST SWAP4 POP POP PUSH1 0x20 PUSH2 0x3729 DUP7 DUP3 DUP8 ADD PUSH2 0x3672 JUMP JUMPDEST SWAP3 POP POP PUSH1 0x40 PUSH2 0x373A DUP7 DUP3 DUP8 ADD PUSH2 0x35BD JUMP JUMPDEST SWAP2 POP POP SWAP3 POP SWAP3 POP SWAP3 JUMP JUMPDEST PUSH1 0x0 PUSH2 0xFFFF DUP3 AND SWAP1 POP SWAP2 SWAP1 POP JUMP JUMPDEST PUSH2 0x375B DUP2 PUSH2 0x3744 JUMP JUMPDEST DUP3 MSTORE POP POP JUMP JUMPDEST PUSH1 0x0 PUSH1 0x20 DUP3 ADD SWAP1 POP PUSH2 0x3776 PUSH1 0x0 DUP4 ADD DUP5 PUSH2 0x3752 JUMP JUMPDEST SWAP3 SWAP2 POP POP JUMP JUMPDEST PUSH1 0x0 PUSH1 0x20 DUP3 DUP5 SUB SLT ISZERO PUSH2 0x3792 JUMPI PUSH2 0x3791 PUSH2 0x3425 JUMP JUMPDEST JUMPDEST PUSH1 0x0 PUSH2 0x37A0 DUP5 DUP3 DUP6 ADD PUSH2 0x3672 JUMP JUMPDEST SWAP2 POP POP SWAP3 SWAP2 POP POP JUMP JUMPDEST PUSH1 0x0 DUP2 MLOAD SWAP1 POP SWAP2 SWAP1 POP JUMP JUMPDEST PUSH1 0x0 DUP3 DUP3 MSTORE PUSH1 0x20 DUP3 ADD SWAP1 POP SWAP3 SWAP2 POP POP JUMP JUMPDEST PUSH1 0x0 DUP2 SWAP1 POP PUSH1 0x20 DUP3 ADD SWAP1 POP SWAP2 SWAP1 POP JUMP JUMPDEST PUSH2 0x37DE DUP2 PUSH2 0x359C JUMP JUMPDEST DUP3 MSTORE POP POP JUMP JUMPDEST PUSH1 0x0 PUSH2 0x37F0 DUP4 DUP4 PUSH2 0x37D5 JUMP JUMPDEST PUSH1 0x20 DUP4 ADD SWAP1 POP SWAP3 SWAP2 POP POP JUMP JUMPDEST PUSH1 0x0 PUSH1 0x20 DUP3 ADD SWAP1 POP SWAP2 SWAP1 POP JUMP JUMPDEST PUSH1 0x0 PUSH2 0x3814 DUP3 PUSH2 0x37A9 JUMP JUMPDEST PUSH2 0x381E DUP2 DUP6 PUSH2 0x37B4 JUMP JUMPDEST SWAP4 POP PUSH2 0x3829 DUP4 PUSH2 0x37C5 JUMP JUMPDEST DUP1 PUSH1 0x0 JUMPDEST DUP4 DUP2 LT ISZERO PUSH2 0x385A JUMPI DUP2 MLOAD PUSH2 0x3841 DUP9 DUP3 PUSH2 0x37E4 JUMP JUMPDEST SWAP8 POP PUSH2 0x384C DUP4 PUSH2 0x37FC JUMP JUMPDEST SWAP3 POP POP PUSH1 0x1 DUP2 ADD SWAP1 POP PUSH2 0x382D JUMP JUMPDEST POP DUP6 SWAP4 POP POP POP POP SWAP3 SWAP2 POP POP JUMP JUMPDEST PUSH1 0x0 PUSH1 0x20 DUP3 ADD SWAP1 POP DUP2 DUP2 SUB PUSH1 0x0 DUP4 ADD MSTORE PUSH2 0x3881 DUP2 DUP5 PUSH2 0x3809 JUMP JUMPDEST SWAP1 POP SWAP3 SWAP2 POP POP JUMP JUMPDEST PUSH2 0x3892 DUP2 PUSH2 0x34B4 JUMP JUMPDEST DUP2 EQ PUSH2 0x389D JUMPI PUSH1 0x0 DUP1 REVERT JUMPDEST POP JUMP JUMPDEST PUSH1 0x0 DUP2 CALLDATALOAD SWAP1 POP PUSH2 0x38AF DUP2 PUSH2 0x3889 JUMP JUMPDEST SWAP3 SWAP2 POP POP JUMP JUMPDEST PUSH1 0x0 DUP1 PUSH1 0x40 DUP4 DUP6 SUB SLT ISZERO PUSH2 0x38CC JUMPI PUSH2 0x38CB PUSH2 0x3425 JUMP JUMPDEST JUMPDEST PUSH1 0x0 PUSH2 0x38DA DUP6 DUP3 DUP7 ADD PUSH2 0x3672 JUMP JUMPDEST SWAP3 POP POP PUSH1 0x20 PUSH2 0x38EB DUP6 DUP3 DUP7 ADD PUSH2 0x38A0 JUMP JUMPDEST SWAP2 POP POP SWAP3 POP SWAP3 SWAP1 POP JUMP JUMPDEST PUSH1 0x0 DUP1 REVERT JUMPDEST PUSH1 0x0 DUP1 REVERT JUMPDEST PUSH32 0x4E487B7100000000000000000000000000000000000000000000000000000000 PUSH1 0x0 MSTORE PUSH1 0x41 PUSH1 0x4 MSTORE PUSH1 0x24 PUSH1 0x0 REVERT JUMPDEST PUSH2 0x3937 DUP3 PUSH2 0x3530 JUMP JUMPDEST DUP2 ADD DUP2 DUP2 LT PUSH8 0xFFFFFFFFFFFFFFFF DUP3 GT OR ISZERO PUSH2 0x3956 JUMPI PUSH2 0x3955 PUSH2 0x38FF JUMP JUMPDEST JUMPDEST DUP1 PUSH1 0x40 MSTORE POP POP POP JUMP JUMPDEST PUSH1 0x0 PUSH2 0x3969 PUSH2 0x341B JUMP JUMPDEST SWAP1 POP PUSH2 0x3975 DUP3 DUP3 PUSH2 0x392E JUMP JUMPDEST SWAP2 SWAP1 POP JUMP JUMPDEST PUSH1 0x0 PUSH8 0xFFFFFFFFFFFFFFFF DUP3 GT ISZERO PUSH2 0x3995 JUMPI PUSH2 0x3994 PUSH2 0x38FF JUMP JUMPDEST JUMPDEST PUSH2 0x399E DUP3 PUSH2 0x3530 JUMP JUMPDEST SWAP1 POP PUSH1 0x20 DUP2 ADD SWAP1 POP SWAP2 SWAP1 POP JUMP JUMPDEST DUP3 DUP2 DUP4 CALLDATACOPY PUSH1 0x0 DUP4 DUP4 ADD MSTORE POP POP POP JUMP JUMPDEST PUSH1 0x0 PUSH2 0x39CD PUSH2 0x39C8 DUP5 PUSH2 0x397A JUMP JUMPDEST PUSH2 0x395F JUMP JUMPDEST SWAP1 POP DUP3 DUP2 MSTORE PUSH1 0x20 DUP2 ADD DUP5 DUP5 DUP5 ADD GT ISZERO PUSH2 0x39E9 JUMPI PUSH2 0x39E8 PUSH2 0x38FA JUMP JUMPDEST JUMPDEST PUSH2 0x39F4 DUP5 DUP3 DUP6 PUSH2 0x39AB JUMP JUMPDEST POP SWAP4 SWAP3 POP POP POP JUMP JUMPDEST PUSH1 0x0 DUP3 PUSH1 0x1F DUP4 ADD SLT PUSH2 0x3A11 JUMPI PUSH2 0x3A10 PUSH2 0x38F5 JUMP JUMPDEST JUMPDEST DUP2 CALLDATALOAD PUSH2 0x3A21 DUP5 DUP3 PUSH1 0x20 DUP7 ADD PUSH2 0x39BA JUMP JUMPDEST SWAP2 POP POP SWAP3 SWAP2 POP POP JUMP JUMPDEST PUSH1 0x0 DUP1 PUSH1 0x0 DUP1 PUSH1 0x80 DUP6 DUP8 SUB SLT ISZERO PUSH2 0x3A44 JUMPI PUSH2 0x3A43 PUSH2 0x3425 JUMP JUMPDEST JUMPDEST PUSH1 0x0 PUSH2 0x3A52 DUP8 DUP3 DUP9 ADD PUSH2 0x3672 JUMP JUMPDEST SWAP5 POP POP PUSH1 0x20 PUSH2 0x3A63 DUP8 DUP3 DUP9 ADD PUSH2 0x3672 JUMP JUMPDEST SWAP4 POP POP PUSH1 0x40 PUSH2 0x3A74 DUP8 DUP3 DUP9 ADD PUSH2 0x35BD JUMP JUMPDEST SWAP3 POP POP PUSH1 0x60 DUP6 ADD CALLDATALOAD PUSH8 0xFFFFFFFFFFFFFFFF DUP2 GT ISZERO PUSH2 0x3A95 JUMPI PUSH2 0x3A94 PUSH2 0x342A JUMP JUMPDEST JUMPDEST PUSH2 0x3AA1 DUP8 DUP3 DUP9 ADD PUSH2 0x39FC JUMP JUMPDEST SWAP2 POP POP SWAP3 SWAP6 SWAP2 SWAP5 POP SWAP3 POP JUMP JUMPDEST PUSH1 0x0 PUSH32 0xFFFFFF0000000000000000000000000000000000000000000000000000000000 DUP3 AND SWAP1 POP SWAP2 SWAP1 POP JUMP JUMPDEST PUSH2 0x3AE2 DUP2 PUSH2 0x3AAD JUMP JUMPDEST DUP3 MSTORE POP POP JUMP JUMPDEST PUSH1 0x0 PUSH1 0x20 DUP3 ADD SWAP1 POP PUSH2 0x3AFD PUSH1 0x0 DUP4 ADD DUP5 PUSH2 0x3AD9 JUMP JUMPDEST SWAP3 SWAP2 POP POP JUMP JUMPDEST PUSH1 0x0 DUP1 PUSH1 0x40 DUP4 DUP6 SUB SLT ISZERO PUSH2 0x3B1A JUMPI PUSH2 0x3B19 PUSH2 0x3425 JUMP JUMPDEST JUMPDEST PUSH1 0x0 PUSH2 0x3B28 DUP6 DUP3 DUP7 ADD PUSH2 0x3672 JUMP JUMPDEST SWAP3 POP POP PUSH1 0x20 PUSH2 0x3B39 DUP6 DUP3 DUP7 ADD PUSH2 0x3672 JUMP JUMPDEST SWAP2 POP POP SWAP3 POP SWAP3 SWAP1 POP JUMP JUMPDEST PUSH32 0x4E487B7100000000000000000000000000000000000000000000000000000000 PUSH1 0x0 MSTORE PUSH1 0x22 PUSH1 0x4 MSTORE PUSH1 0x24 PUSH1 0x0 REVERT JUMPDEST PUSH1 0x0 PUSH1 0x2 DUP3 DIV SWAP1 POP PUSH1 0x1 DUP3 AND DUP1 PUSH2 0x3B8A JUMPI PUSH1 0x7F DUP3 AND SWAP2 POP JUMPDEST PUSH1 0x20 DUP3 LT DUP2 SUB PUSH2 0x3B9D JUMPI PUSH2 0x3B9C PUSH2 0x3B43 JUMP JUMPDEST JUMPDEST POP SWAP2 SWAP1 POP JUMP JUMPDEST PUSH32 0x4552433732313A20617070726F76616C20746F2063757272656E74206F776E65 PUSH1 0x0 DUP3 ADD MSTORE PUSH32 0x7200000000000000000000000000000000000000000000000000000000000000 PUSH1 0x20 DUP3 ADD MSTORE POP JUMP JUMPDEST PUSH1 0x0 PUSH2 0x3BFF PUSH1 0x21 DUP4 PUSH2 0x34F5 JUMP JUMPDEST SWAP2 POP PUSH2 0x3C0A DUP3 PUSH2 0x3BA3 JUMP JUMPDEST PUSH1 0x40 DUP3 ADD SWAP1 POP SWAP2 SWAP1 POP JUMP JUMPDEST PUSH1 0x0 PUSH1 0x20 DUP3 ADD SWAP1 POP DUP2 DUP2 SUB PUSH1 0x0 DUP4 ADD MSTORE PUSH2 0x3C2E DUP2 PUSH2 0x3BF2 JUMP JUMPDEST SWAP1 POP SWAP2 SWAP1 POP JUMP JUMPDEST PUSH32 0x4552433732313A20617070726F76652063616C6C6572206973206E6F7420746F PUSH1 0x0 DUP3 ADD MSTORE PUSH32 0x6B656E206F776E6572206F7220617070726F76656420666F7220616C6C000000 PUSH1 0x20 DUP3 ADD MSTORE POP JUMP JUMPDEST PUSH1 0x0 PUSH2 0x3C91 PUSH1 0x3D DUP4 PUSH2 0x34F5 JUMP JUMPDEST SWAP2 POP PUSH2 0x3C9C DUP3 PUSH2 0x3C35 JUMP JUMPDEST PUSH1 0x40 DUP3 ADD SWAP1 POP SWAP2 SWAP1 POP JUMP JUMPDEST PUSH1 0x0 PUSH1 0x20 DUP3 ADD SWAP1 POP DUP2 DUP2 SUB PUSH1 0x0 DUP4 ADD MSTORE PUSH2 0x3CC0 DUP2 PUSH2 0x3C84 JUMP JUMPDEST SWAP1 POP SWAP2 SWAP1 POP JUMP JUMPDEST PUSH32 0x416C6C207469636B657473206D696E7465640000000000000000000000000000 PUSH1 0x0 DUP3 ADD MSTORE POP JUMP JUMPDEST PUSH1 0x0 PUSH2 0x3CFD PUSH1 0x12 DUP4 PUSH2 0x34F5 JUMP JUMPDEST SWAP2 POP PUSH2 0x3D08 DUP3 PUSH2 0x3CC7 JUMP JUMPDEST PUSH1 0x20 DUP3 ADD SWAP1 POP SWAP2 SWAP1 POP JUMP JUMPDEST PUSH1 0x0 PUSH1 0x20 DUP3 ADD SWAP1 POP DUP2 DUP2 SUB PUSH1 0x0 DUP4 ADD MSTORE PUSH2 0x3D2C DUP2 PUSH2 0x3CF0 JUMP JUMPDEST SWAP1 POP SWAP2 SWAP1 POP JUMP JUMPDEST PUSH32 0x4D696E74696E6720657870697265640000000000000000000000000000000000 PUSH1 0x0 DUP3 ADD MSTORE POP JUMP JUMPDEST PUSH1 0x0 PUSH2 0x3D69 PUSH1 0xF DUP4 PUSH2 0x34F5 JUMP JUMPDEST SWAP2 POP PUSH2 0x3D74 DUP3 PUSH2 0x3D33 JUMP JUMPDEST PUSH1 0x20 DUP3 ADD SWAP1 POP SWAP2 SWAP1 POP JUMP JUMPDEST PUSH1 0x0 PUSH1 0x20 DUP3 ADD SWAP1 POP DUP2 DUP2 SUB PUSH1 0x0 DUP4 ADD MSTORE PUSH2 0x3D98 DUP2 PUSH2 0x3D5C JUMP JUMPDEST SWAP1 POP SWAP2 SWAP1 POP JUMP JUMPDEST PUSH32 0x45746865722076616C75652073656E7420696E636F7272656374000000000000 PUSH1 0x0 DUP3 ADD MSTORE POP JUMP JUMPDEST PUSH1 0x0 PUSH2 0x3DD5 PUSH1 0x1A DUP4 PUSH2 0x34F5 JUMP JUMPDEST SWAP2 POP PUSH2 0x3DE0 DUP3 PUSH2 0x3D9F JUMP JUMPDEST PUSH1 0x20 DUP3 ADD SWAP1 POP SWAP2 SWAP1 POP JUMP JUMPDEST PUSH1 0x0 PUSH1 0x20 DUP3 ADD SWAP1 POP DUP2 DUP2 SUB PUSH1 0x0 DUP4 ADD MSTORE PUSH2 0x3E04 DUP2 PUSH2 0x3DC8 JUMP JUMPDEST SWAP1 POP SWAP2 SWAP1 POP JUMP JUMPDEST PUSH32 0x4E487B7100000000000000000000000000000000000000000000000000000000 PUSH1 0x0 MSTORE PUSH1 0x11 PUSH1 0x4 MSTORE PUSH1 0x24 PUSH1 0x0 REVERT JUMPDEST PUSH1 0x0 PUSH2 0x3E45 DUP3 PUSH2 0x3744 JUMP JUMPDEST SWAP2 POP PUSH2 0xFFFF DUP3 SUB PUSH2 0x3E59 JUMPI PUSH2 0x3E58 PUSH2 0x3E0B JUMP JUMPDEST JUMPDEST PUSH1 0x1 DUP3 ADD SWAP1 POP SWAP2 SWAP1 POP JUMP JUMPDEST PUSH32 0x4552433732313A2063616C6C6572206973206E6F7420746F6B656E206F776E65 PUSH1 0x0 DUP3 ADD MSTORE PUSH32 0x72206F7220617070726F76656400000000000000000000000000000000000000 PUSH1 0x20 DUP3 ADD MSTORE POP JUMP JUMPDEST PUSH1 0x0 PUSH2 0x3EC0 PUSH1 0x2D DUP4 PUSH2 0x34F5 JUMP JUMPDEST SWAP2 POP PUSH2 0x3ECB DUP3 PUSH2 0x3E64 JUMP JUMPDEST PUSH1 0x40 DUP3 ADD SWAP1 POP SWAP2 SWAP1 POP JUMP JUMPDEST PUSH1 0x0 PUSH1 0x20 DUP3 ADD SWAP1 POP DUP2 DUP2 SUB PUSH1 0x0 DUP4 ADD MSTORE PUSH2 0x3EEF DUP2 PUSH2 0x3EB3 JUMP JUMPDEST SWAP1 POP SWAP2 SWAP1 POP JUMP JUMPDEST PUSH1 0x0 DUP2 SWAP1 POP SWAP3 SWAP2 POP POP JUMP JUMPDEST PUSH32 0x3C737667207072657365727665417370656374526174696F3D22784D696E594D PUSH1 0x0 DUP3 ADD MSTORE PUSH32 0x696E206D656574222076696577426F783D223020302033303020333030222078 PUSH1 0x20 DUP3 ADD MSTORE PUSH32 0x6D6C6E733D22687474703A2F2F7777772E77332E6F72672F323030302F737667 PUSH1 0x40 DUP3 ADD MSTORE PUSH32 0x22207374796C653D2266696C6C2D72756C653A6576656E6F64643B636C69702D PUSH1 0x60 DUP3 ADD MSTORE PUSH32 0x72756C653A6576656E6F64643B757365722D73656C6563743A206E6F6E653B22 PUSH1 0x80 DUP3 ADD MSTORE PUSH32 0x3E00000000000000000000000000000000000000000000000000000000000000 PUSH1 0xA0 DUP3 ADD MSTORE POP JUMP JUMPDEST PUSH1 0x0 PUSH2 0x3FF5 PUSH1 0xA1 DUP4 PUSH2 0x3EF6 JUMP JUMPDEST SWAP2 POP PUSH2 0x4000 DUP3 PUSH2 0x3F01 JUMP JUMPDEST PUSH1 0xA1 DUP3 ADD SWAP1 POP SWAP2 SWAP1 POP JUMP JUMPDEST PUSH1 0x0 PUSH2 0x4016 DUP3 PUSH2 0x34EA JUMP JUMPDEST PUSH2 0x4020 DUP2 DUP6 PUSH2 0x3EF6 JUMP JUMPDEST SWAP4 POP PUSH2 0x4030 DUP2 DUP6 PUSH1 0x20 DUP7 ADD PUSH2 0x3506 JUMP JUMPDEST DUP1 DUP5 ADD SWAP2 POP POP SWAP3 SWAP2 POP POP JUMP JUMPDEST PUSH32 0x3C7374796C653E2E73317B666F6E742D66616D696C793A22417269616C223B7D PUSH1 0x0 DUP3 ADD MSTORE PUSH32 0x202E7332617B66696C6C3A233030303B7D202E7332627B66696C6C3A23464646 PUSH1 0x20 DUP3 ADD MSTORE PUSH32 0x3B7D202E73337B666F6E742D73697A653A323470783B7D202E73347B666F6E74 PUSH1 0x40 DUP3 ADD MSTORE PUSH32 0x2D73697A653A313670783B7D202E73357B666F6E742D73697A653A313470783B PUSH1 0x60 DUP3 ADD MSTORE PUSH32 0x7D202E73367B66696C6C3A233139303033463B7D202E73377B66696C6C3A2330 PUSH1 0x80 DUP3 ADD MSTORE PUSH32 0x30314332453B7D202E73387B666F6E742D73697A653A3770783B7D3C2F737479 PUSH1 0xA0 DUP3 ADD MSTORE PUSH32 0x6C653E0000000000000000000000000000000000000000000000000000000000 PUSH1 0xC0 DUP3 ADD MSTORE POP JUMP JUMPDEST PUSH1 0x0 PUSH2 0x4156 PUSH1 0xC3 DUP4 PUSH2 0x3EF6 JUMP JUMPDEST SWAP2 POP PUSH2 0x4161 DUP3 PUSH2 0x403C JUMP JUMPDEST PUSH1 0xC3 DUP3 ADD SWAP1 POP SWAP2 SWAP1 POP JUMP JUMPDEST PUSH32 0x3C2F7376673E0000000000000000000000000000000000000000000000000000 PUSH1 0x0 DUP3 ADD MSTORE POP JUMP JUMPDEST PUSH1 0x0 PUSH2 0x41A2 PUSH1 0x6 DUP4 PUSH2 0x3EF6 JUMP JUMPDEST SWAP2 POP PUSH2 0x41AD DUP3 PUSH2 0x416C JUMP JUMPDEST PUSH1 0x6 DUP3 ADD SWAP1 POP SWAP2 SWAP1 POP JUMP JUMPDEST PUSH1 0x0 PUSH2 0x41C3 DUP3 PUSH2 0x3FE8 JUMP JUMPDEST SWAP2 POP PUSH2 0x41CF DUP3 DUP6 PUSH2 0x400B JUMP JUMPDEST SWAP2 POP PUSH2 0x41DB DUP3 DUP5 PUSH2 0x400B JUMP JUMPDEST SWAP2 POP PUSH2 0x41E6 DUP3 PUSH2 0x4149 JUMP JUMPDEST SWAP2 POP PUSH2 0x41F1 DUP3 PUSH2 0x4195 JUMP JUMPDEST SWAP2 POP DUP2 SWAP1 POP SWAP4 SWAP3 POP POP POP JUMP JUMPDEST PUSH32 0x646174613A696D6167652F7376672B786D6C3B6261736536342C000000000000 PUSH1 0x0 DUP3 ADD MSTORE POP JUMP JUMPDEST PUSH1 0x0 PUSH2 0x4233 PUSH1 0x1A DUP4 PUSH2 0x3EF6 JUMP JUMPDEST SWAP2 POP PUSH2 0x423E DUP3 PUSH2 0x41FD JUMP JUMPDEST PUSH1 0x1A DUP3 ADD SWAP1 POP SWAP2 SWAP1 POP JUMP JUMPDEST PUSH1 0x0 PUSH2 0x4254 DUP3 PUSH2 0x4226 JUMP JUMPDEST SWAP2 POP PUSH2 0x4260 DUP3 DUP5 PUSH2 0x400B JUMP JUMPDEST SWAP2 POP DUP2 SWAP1 POP SWAP3 SWAP2 POP POP JUMP JUMPDEST PUSH32 0x455243373231456E756D657261626C653A206F776E657220696E646578206F75 PUSH1 0x0 DUP3 ADD MSTORE PUSH32 0x74206F6620626F756E6473000000000000000000000000000000000000000000 PUSH1 0x20 DUP3 ADD MSTORE POP JUMP JUMPDEST PUSH1 0x0 PUSH2 0x42C7 PUSH1 0x2B DUP4 PUSH2 0x34F5 JUMP JUMPDEST SWAP2 POP PUSH2 0x42D2 DUP3 PUSH2 0x426B JUMP JUMPDEST PUSH1 0x40 DUP3 ADD SWAP1 POP SWAP2 SWAP1 POP JUMP JUMPDEST PUSH1 0x0 PUSH1 0x20 DUP3 ADD SWAP1 POP DUP2 DUP2 SUB PUSH1 0x0 DUP4 ADD MSTORE PUSH2 0x42F6 DUP2 PUSH2 0x42BA JUMP JUMPDEST SWAP1 POP SWAP2 SWAP1 POP JUMP JUMPDEST PUSH32 0x4E487B7100000000000000000000000000000000000000000000000000000000 PUSH1 0x0 MSTORE PUSH1 0x32 PUSH1 0x4 MSTORE PUSH1 0x24 PUSH1 0x0 REVERT JUMPDEST PUSH1 0x0 PUSH2 0x4337 DUP3 PUSH2 0x359C JUMP JUMPDEST SWAP2 POP PUSH32 0xFFFFFFFFFFFFFFFFFFFFFFFFFFFFFFFFFFFFFFFFFFFFFFFFFFFFFFFFFFFFFFFF DUP3 SUB PUSH2 0x4369 JUMPI PUSH2 0x4368 PUSH2 0x3E0B JUMP JUMPDEST JUMPDEST PUSH1 0x1 DUP3 ADD SWAP1 POP SWAP2 SWAP1 POP JUMP JUMPDEST PUSH32 0x455243373231456E756D657261626C653A20676C6F62616C20696E646578206F PUSH1 0x0 DUP3 ADD MSTORE PUSH32 0x7574206F6620626F756E64730000000000000000000000000000000000000000 PUSH1 0x20 DUP3 ADD MSTORE POP JUMP JUMPDEST PUSH1 0x0 PUSH2 0x43D0 PUSH1 0x2C DUP4 PUSH2 0x34F5 JUMP JUMPDEST SWAP2 POP PUSH2 0x43DB DUP3 PUSH2 0x4374 JUMP JUMPDEST PUSH1 0x40 DUP3 ADD SWAP1 POP SWAP2 SWAP1 POP JUMP JUMPDEST PUSH1 0x0 PUSH1 0x20 DUP3 ADD SWAP1 POP DUP2 DUP2 SUB PUSH1 0x0 DUP4 ADD MSTORE PUSH2 0x43FF DUP2 PUSH2 0x43C3 JUMP JUMPDEST SWAP1 POP SWAP2 SWAP1 POP JUMP JUMPDEST PUSH32 0x4552433732313A20696E76616C696420746F6B656E2049440000000000000000 PUSH1 0x0 DUP3 ADD MSTORE POP JUMP JUMPDEST PUSH1 0x0 PUSH2 0x443C PUSH1 0x18 DUP4 PUSH2 0x34F5 JUMP JUMPDEST SWAP2 POP PUSH2 0x4447 DUP3 PUSH2 0x4406 JUMP JUMPDEST PUSH1 0x20 DUP3 ADD SWAP1 POP SWAP2 SWAP1 POP JUMP JUMPDEST PUSH1 0x0 PUSH1 0x20 DUP3 ADD SWAP1 POP DUP2 DUP2 SUB PUSH1 0x0 DUP4 ADD MSTORE PUSH2 0x446B DUP2 PUSH2 0x442F JUMP JUMPDEST SWAP1 POP SWAP2 SWAP1 POP JUMP JUMPDEST PUSH32 0x4552433732313A2061646472657373207A65726F206973206E6F742061207661 PUSH1 0x0 DUP3 ADD MSTORE PUSH32 0x6C6964206F776E65720000000000000000000000000000000000000000000000 PUSH1 0x20 DUP3 ADD MSTORE POP JUMP JUMPDEST PUSH1 0x0 PUSH2 0x44CE PUSH1 0x29 DUP4 PUSH2 0x34F5 JUMP JUMPDEST SWAP2 POP PUSH2 0x44D9 DUP3 PUSH2 0x4472 JUMP JUMPDEST PUSH1 0x40 DUP3 ADD SWAP1 POP SWAP2 SWAP1 POP JUMP JUMPDEST PUSH1 0x0 PUSH1 0x20 DUP3 ADD SWAP1 POP DUP2 DUP2 SUB PUSH1 0x0 DUP4 ADD MSTORE PUSH2 0x44FD DUP2 PUSH2 0x44C1 JUMP JUMPDEST SWAP1 POP SWAP2 SWAP1 POP JUMP JUMPDEST PUSH32 0x6E6F742065786973740000000000000000000000000000000000000000000000 PUSH1 0x0 DUP3 ADD MSTORE POP JUMP JUMPDEST PUSH1 0x0 PUSH2 0x453A PUSH1 0x9 DUP4 PUSH2 0x34F5 JUMP JUMPDEST SWAP2 POP PUSH2 0x4545 DUP3 PUSH2 0x4504 JUMP JUMPDEST PUSH1 0x20 DUP3 ADD SWAP1 POP SWAP2 SWAP1 POP JUMP JUMPDEST PUSH1 0x0 PUSH1 0x20 DUP3 ADD SWAP1 POP DUP2 DUP2 SUB PUSH1 0x0 DUP4 ADD MSTORE PUSH2 0x4569 DUP2 PUSH2 0x452D JUMP JUMPDEST SWAP1 POP SWAP2 SWAP1 POP JUMP JUMPDEST PUSH32 0x5469636B65742023000000000000000000000000000000000000000000000000 PUSH1 0x0 DUP3 ADD MSTORE POP JUMP JUMPDEST PUSH1 0x0 PUSH2 0x45A6 PUSH1 0x8 DUP4 PUSH2 0x3EF6 JUMP JUMPDEST SWAP2 POP PUSH2 0x45B1 DUP3 PUSH2 0x4570 JUMP JUMPDEST PUSH1 0x8 DUP3 ADD SWAP1 POP SWAP2 SWAP1 POP JUMP JUMPDEST PUSH1 0x0 PUSH2 0x45C7 DUP3 PUSH2 0x4599 JUMP JUMPDEST SWAP2 POP PUSH2 0x45D3 DUP3 DUP5 PUSH2 0x400B JUMP JUMPDEST SWAP2 POP DUP2 SWAP1 POP SWAP3 SWAP2 POP POP JUMP JUMPDEST PUSH32 0x2041636365737300000000000000000000000000000000000000000000000000 PUSH1 0x0 DUP3 ADD MSTORE POP JUMP JUMPDEST PUSH1 0x0 PUSH2 0x4614 PUSH1 0x7 DUP4 PUSH2 0x3EF6 JUMP JUMPDEST SWAP2 POP PUSH2 0x461F DUP3 PUSH2 0x45DE JUMP JUMPDEST PUSH1 0x7 DUP3 ADD SWAP1 POP SWAP2 SWAP1 POP JUMP JUMPDEST PUSH1 0x0 PUSH2 0x4636 DUP3 DUP5 PUSH2 0x400B JUMP JUMPDEST SWAP2 POP PUSH2 0x4641 DUP3 PUSH2 0x4607 JUMP JUMPDEST SWAP2 POP DUP2 SWAP1 POP SWAP3 SWAP2 POP POP JUMP JUMPDEST PUSH32 0x7B226E616D65223A220000000000000000000000000000000000000000000000 PUSH1 0x0 DUP3 ADD MSTORE POP JUMP JUMPDEST PUSH1 0x0 PUSH2 0x4682 PUSH1 0x9 DUP4 PUSH2 0x3EF6 JUMP JUMPDEST SWAP2 POP PUSH2 0x468D DUP3 PUSH2 0x464C JUMP JUMPDEST PUSH1 0x9 DUP3 ADD SWAP1 POP SWAP2 SWAP1 POP JUMP JUMPDEST PUSH32 0x222C226465736372697074696F6E223A22000000000000000000000000000000 PUSH1 0x0 DUP3 ADD MSTORE POP JUMP JUMPDEST PUSH1 0x0 PUSH2 0x46CE PUSH1 0x11 DUP4 PUSH2 0x3EF6 JUMP JUMPDEST SWAP2 POP PUSH2 0x46D9 DUP3 PUSH2 0x4698 JUMP JUMPDEST PUSH1 0x11 DUP3 ADD SWAP1 POP SWAP2 SWAP1 POP JUMP JUMPDEST PUSH32 0x222C000000000000000000000000000000000000000000000000000000000000 PUSH1 0x0 DUP3 ADD MSTORE POP JUMP JUMPDEST PUSH1 0x0 PUSH2 0x471A PUSH1 0x2 DUP4 PUSH2 0x3EF6 JUMP JUMPDEST SWAP2 POP PUSH2 0x4725 DUP3 PUSH2 0x46E4 JUMP JUMPDEST PUSH1 0x2 DUP3 ADD SWAP1 POP SWAP2 SWAP1 POP JUMP JUMPDEST PUSH32 0x2261747472696275746573223A5B7B2274726169745F74797065223A22546963 PUSH1 0x0 DUP3 ADD MSTORE PUSH32 0x6B65742054797065222C202276616C7565223A22000000000000000000000000 PUSH1 0x20 DUP3 ADD MSTORE POP JUMP JUMPDEST PUSH1 0x0 PUSH2 0x478C PUSH1 0x34 DUP4 PUSH2 0x3EF6 JUMP JUMPDEST SWAP2 POP PUSH2 0x4797 DUP3 PUSH2 0x4730 JUMP JUMPDEST PUSH1 0x34 DUP3 ADD SWAP1 POP SWAP2 SWAP1 POP JUMP JUMPDEST PUSH32 0x227D5D2C00000000000000000000000000000000000000000000000000000000 PUSH1 0x0 DUP3 ADD MSTORE POP JUMP JUMPDEST PUSH1 0x0 PUSH2 0x47D8 PUSH1 0x4 DUP4 PUSH2 0x3EF6 JUMP JUMPDEST SWAP2 POP PUSH2 0x47E3 DUP3 PUSH2 0x47A2 JUMP JUMPDEST PUSH1 0x4 DUP3 ADD SWAP1 POP SWAP2 SWAP1 POP JUMP JUMPDEST PUSH32 0x226F776E6572223A220000000000000000000000000000000000000000000000 PUSH1 0x0 DUP3 ADD MSTORE POP JUMP JUMPDEST PUSH1 0x0 PUSH2 0x4824 PUSH1 0x9 DUP4 PUSH2 0x3EF6 JUMP JUMPDEST SWAP2 POP PUSH2 0x482F DUP3 PUSH2 0x47EE JUMP JUMPDEST PUSH1 0x9 DUP3 ADD SWAP1 POP SWAP2 SWAP1 POP JUMP JUMPDEST PUSH32 0x22696D616765223A220000000000000000000000000000000000000000000000 PUSH1 0x0 DUP3 ADD MSTORE POP JUMP JUMPDEST PUSH1 0x0 PUSH2 0x4870 PUSH1 0x9 DUP4 PUSH2 0x3EF6 JUMP JUMPDEST SWAP2 POP PUSH2 0x487B DUP3 PUSH2 0x483A JUMP JUMPDEST PUSH1 0x9 DUP3 ADD SWAP1 POP SWAP2 SWAP1 POP JUMP JUMPDEST PUSH32 0x227D000000000000000000000000000000000000000000000000000000000000 PUSH1 0x0 DUP3 ADD MSTORE POP JUMP JUMPDEST PUSH1 0x0 PUSH2 0x48BC PUSH1 0x2 DUP4 PUSH2 0x3EF6 JUMP JUMPDEST SWAP2 POP PUSH2 0x48C7 DUP3 PUSH2 0x4886 JUMP JUMPDEST PUSH1 0x2 DUP3 ADD SWAP1 POP SWAP2 SWAP1 POP JUMP JUMPDEST PUSH1 0x0 PUSH2 0x48DD DUP3 PUSH2 0x4675 JUMP JUMPDEST SWAP2 POP PUSH2 0x48E9 DUP3 DUP9 PUSH2 0x400B JUMP JUMPDEST SWAP2 POP PUSH2 0x48F4 DUP3 PUSH2 0x46C1 JUMP JUMPDEST SWAP2 POP PUSH2 0x4900 DUP3 DUP8 PUSH2 0x400B JUMP JUMPDEST SWAP2 POP PUSH2 0x490B DUP3 PUSH2 0x470D JUMP JUMPDEST SWAP2 POP PUSH2 0x4916 DUP3 PUSH2 0x477F JUMP JUMPDEST SWAP2 POP PUSH2 0x4922 DUP3 DUP7 PUSH2 0x400B JUMP JUMPDEST SWAP2 POP PUSH2 0x492D DUP3 PUSH2 0x47CB JUMP JUMPDEST SWAP2 POP PUSH2 0x4938 DUP3 PUSH2 0x4817 JUMP JUMPDEST SWAP2 POP PUSH2 0x4944 DUP3 DUP6 PUSH2 0x400B JUMP JUMPDEST SWAP2 POP PUSH2 0x494F DUP3 PUSH2 0x470D JUMP JUMPDEST SWAP2 POP PUSH2 0x495A DUP3 PUSH2 0x4863 JUMP JUMPDEST SWAP2 POP PUSH2 0x4966 DUP3 DUP5 PUSH2 0x400B JUMP JUMPDEST SWAP2 POP PUSH2 0x4971 DUP3 PUSH2 0x48AF JUMP JUMPDEST SWAP2 POP DUP2 SWAP1 POP SWAP7 SWAP6 POP POP POP POP POP POP JUMP JUMPDEST PUSH32 0x646174613A6170706C69636174696F6E2F6A736F6E3B6261736536342C000000 PUSH1 0x0 DUP3 ADD MSTORE POP JUMP JUMPDEST PUSH1 0x0 PUSH2 0x49B6 PUSH1 0x1D DUP4 PUSH2 0x3EF6 JUMP JUMPDEST SWAP2 POP PUSH2 0x49C1 DUP3 PUSH2 0x4980 JUMP JUMPDEST PUSH1 0x1D DUP3 ADD SWAP1 POP SWAP2 SWAP1 POP JUMP JUMPDEST PUSH1 0x0 PUSH2 0x49D7 DUP3 PUSH2 0x49A9 JUMP JUMPDEST SWAP2 POP PUSH2 0x49E3 DUP3 DUP5 PUSH2 0x400B JUMP JUMPDEST SWAP2 POP DUP2 SWAP1 POP SWAP3 SWAP2 POP POP JUMP JUMPDEST PUSH32 0x7B226E616D65223A224554482041746C616E746973222C000000000000000000 PUSH1 0x0 DUP3 ADD MSTORE POP JUMP JUMPDEST PUSH1 0x0 PUSH2 0x4A24 PUSH1 0x17 DUP4 PUSH2 0x3EF6 JUMP JUMPDEST SWAP2 POP PUSH2 0x4A2F DUP3 PUSH2 0x49EE JUMP JUMPDEST PUSH1 0x17 DUP3 ADD SWAP1 POP SWAP2 SWAP1 POP JUMP JUMPDEST PUSH32 0x226465736372697074696F6E223A2241207072656D6965722045746865726575 PUSH1 0x0 DUP3 ADD MSTORE PUSH32 0x6D206576656E742061742073656121227D000000000000000000000000000000 PUSH1 0x20 DUP3 ADD MSTORE POP JUMP JUMPDEST PUSH1 0x0 PUSH2 0x4A96 PUSH1 0x31 DUP4 PUSH2 0x3EF6 JUMP JUMPDEST SWAP2 POP PUSH2 0x4AA1 DUP3 PUSH2 0x4A3A JUMP JUMPDEST PUSH1 0x31 DUP3 ADD SWAP1 POP SWAP2 SWAP1 POP JUMP JUMPDEST PUSH1 0x0 PUSH2 0x4AB7 DUP3 PUSH2 0x4A17 JUMP JUMPDEST SWAP2 POP PUSH2 0x4AC2 DUP3 PUSH2 0x4A89 JUMP JUMPDEST SWAP2 POP DUP2 SWAP1 POP SWAP2 SWAP1 POP JUMP JUMPDEST PUSH1 0x0 DUP2 MLOAD SWAP1 POP SWAP2 SWAP1 POP JUMP JUMPDEST PUSH1 0x0 DUP2 SWAP1 POP SWAP3 SWAP2 POP POP JUMP JUMPDEST PUSH1 0x0 PUSH2 0x4AED DUP3 PUSH2 0x4ACC JUMP JUMPDEST PUSH2 0x4AF7 DUP2 DUP6 PUSH2 0x4AD7 JUMP JUMPDEST SWAP4 POP PUSH2 0x4B07 DUP2 DUP6 PUSH1 0x20 DUP7 ADD PUSH2 0x3506 JUMP JUMPDEST DUP1 DUP5 ADD SWAP2 POP POP SWAP3 SWAP2 POP POP JUMP JUMPDEST PUSH1 0x0 PUSH2 0x4B1F DUP3 DUP5 PUSH2 0x4AE2 JUMP JUMPDEST SWAP2 POP DUP2 SWAP1 POP SWAP3 SWAP2 POP POP JUMP JUMPDEST PUSH32 0x4F776E61626C653A206E6577206F776E657220697320746865207A65726F2061 PUSH1 0x0 DUP3 ADD MSTORE PUSH32 0x6464726573730000000000000000000000000000000000000000000000000000 PUSH1 0x20 DUP3 ADD MSTORE POP JUMP JUMPDEST PUSH1 0x0 PUSH2 0x4B86 PUSH1 0x26 DUP4 PUSH2 0x34F5 JUMP JUMPDEST SWAP2 POP PUSH2 0x4B91 DUP3 PUSH2 0x4B2A JUMP JUMPDEST PUSH1 0x40 DUP3 ADD SWAP1 POP SWAP2 SWAP1 POP JUMP JUMPDEST PUSH1 0x0 PUSH1 0x20 DUP3 ADD SWAP1 POP DUP2 DUP2 SUB PUSH1 0x0 DUP4 ADD MSTORE PUSH2 0x4BB5 DUP2 PUSH2 0x4B79 JUMP JUMPDEST SWAP1 POP SWAP2 SWAP1 POP JUMP JUMPDEST PUSH32 0x4552433732313A207472616E736665722066726F6D20696E636F727265637420 PUSH1 0x0 DUP3 ADD MSTORE PUSH32 0x6F776E6572000000000000000000000000000000000000000000000000000000 PUSH1 0x20 DUP3 ADD MSTORE POP JUMP JUMPDEST PUSH1 0x0 PUSH2 0x4C18 PUSH1 0x25 DUP4 PUSH2 0x34F5 JUMP JUMPDEST SWAP2 POP PUSH2 0x4C23 DUP3 PUSH2 0x4BBC JUMP JUMPDEST PUSH1 0x40 DUP3 ADD SWAP1 POP SWAP2 SWAP1 POP JUMP JUMPDEST PUSH1 0x0 PUSH1 0x20 DUP3 ADD SWAP1 POP DUP2 DUP2 SUB PUSH1 0x0 DUP4 ADD MSTORE PUSH2 0x4C47 DUP2 PUSH2 0x4C0B JUMP JUMPDEST SWAP1 POP SWAP2 SWAP1 POP JUMP JUMPDEST PUSH32 0x4552433732313A207472616E7366657220746F20746865207A65726F20616464 PUSH1 0x0 DUP3 ADD MSTORE PUSH32 0x7265737300000000000000000000000000000000000000000000000000000000 PUSH1 0x20 DUP3 ADD MSTORE POP JUMP JUMPDEST PUSH1 0x0 PUSH2 0x4CAA PUSH1 0x24 DUP4 PUSH2 0x34F5 JUMP JUMPDEST SWAP2 POP PUSH2 0x4CB5 DUP3 PUSH2 0x4C4E JUMP JUMPDEST PUSH1 0x40 DUP3 ADD SWAP1 POP SWAP2 SWAP1 POP JUMP JUMPDEST PUSH1 0x0 PUSH1 0x20 DUP3 ADD SWAP1 POP DUP2 DUP2 SUB PUSH1 0x0 DUP4 ADD MSTORE PUSH2 0x4CD9 DUP2 PUSH2 0x4C9D JUMP JUMPDEST SWAP1 POP SWAP2 SWAP1 POP JUMP JUMPDEST PUSH32 0x3C67207472616E73666F726D3D226D617472697828312C302C302C312C302C30 PUSH1 0x0 DUP3 ADD MSTORE PUSH32 0x2E31373738353929223E3C7061746820636C6173733D22000000000000000000 PUSH1 0x20 DUP3 ADD MSTORE POP JUMP JUMPDEST PUSH1 0x0 PUSH2 0x4D3C PUSH1 0x37 DUP4 PUSH2 0x3EF6 JUMP JUMPDEST SWAP2 POP PUSH2 0x4D47 DUP3 PUSH2 0x4CE0 JUMP JUMPDEST PUSH1 0x37 DUP3 ADD SWAP1 POP SWAP2 SWAP1 POP JUMP JUMPDEST PUSH32 0x2220643D224D3239352C3139392E3832324C352C3139392E3832324C352C3238 PUSH1 0x0 DUP3 ADD MSTORE PUSH32 0x342E39383843352C3239302E34313620392E3430362C3239342E383232203134 PUSH1 0x20 DUP3 ADD MSTORE PUSH32 0x2E3833342C3239342E3832324C3238352E3136362C3239342E38323243323930 PUSH1 0x40 DUP3 ADD MSTORE PUSH32 0x2E3539342C3239342E383232203239352C3239302E343136203239352C323834 PUSH1 0x60 DUP3 ADD MSTORE PUSH32 0x2E3938384C3239352C3139392E3832325A222F3E3C2F673E0000000000000000 PUSH1 0x80 DUP3 ADD MSTORE POP JUMP JUMPDEST PUSH1 0x0 PUSH2 0x4E20 PUSH1 0x98 DUP4 PUSH2 0x3EF6 JUMP JUMPDEST SWAP2 POP PUSH2 0x4E2B DUP3 PUSH2 0x4D52 JUMP JUMPDEST PUSH1 0x98 DUP3 ADD SWAP1 POP SWAP2 SWAP1 POP JUMP JUMPDEST PUSH32 0x3C67207472616E73666F726D3D226D617472697828312E363637392C302C302C PUSH1 0x0 DUP3 ADD MSTORE PUSH32 0x312E363637392C35302C31363029223E3C7465787420783D223230252220793D PUSH1 0x20 DUP3 ADD MSTORE PUSH32 0x2231342522207374796C653D22646F6D696E616E742D626173656C696E653A63 PUSH1 0x40 DUP3 ADD MSTORE PUSH32 0x656E7472616C3B20746578742D616E63686F723A6D6964646C653B2220636C61 PUSH1 0x60 DUP3 ADD MSTORE PUSH32 0x73733D22733120733262207334223E2300000000000000000000000000000000 PUSH1 0x80 DUP3 ADD MSTORE POP JUMP JUMPDEST PUSH1 0x0 PUSH2 0x4F04 PUSH1 0x90 DUP4 PUSH2 0x3EF6 JUMP JUMPDEST SWAP2 POP PUSH2 0x4F0F DUP3 PUSH2 0x4E36 JUMP JUMPDEST PUSH1 0x90 DUP3 ADD SWAP1 POP SWAP2 SWAP1 POP JUMP JUMPDEST PUSH32 0x3C2F746578743E3C2F673E000000000000000000000000000000000000000000 PUSH1 0x0 DUP3 ADD MSTORE POP JUMP JUMPDEST PUSH1 0x0 PUSH2 0x4F50 PUSH1 0xB DUP4 PUSH2 0x3EF6 JUMP JUMPDEST SWAP2 POP PUSH2 0x4F5B DUP3 PUSH2 0x4F1A JUMP JUMPDEST PUSH1 0xB DUP3 ADD SWAP1 POP SWAP2 SWAP1 POP JUMP JUMPDEST PUSH32 0x3C67207472616E73666F726D3D226D617472697828312E363637392C302C302C PUSH1 0x0 DUP3 ADD MSTORE PUSH32 0x312E363637392C35302C31393529223E3C7465787420783D223230252220793D PUSH1 0x20 DUP3 ADD MSTORE PUSH32 0x2231342522207374796C653D22646F6D696E616E742D626173656C696E653A63 PUSH1 0x40 DUP3 ADD MSTORE PUSH32 0x656E7472616C3B20746578742D616E63686F723A6D6964646C653B2220636C61 PUSH1 0x60 DUP3 ADD MSTORE PUSH32 0x73733D22733120733262207334223E0000000000000000000000000000000000 PUSH1 0x80 DUP3 ADD MSTORE POP JUMP JUMPDEST PUSH1 0x0 PUSH2 0x5034 PUSH1 0x8F DUP4 PUSH2 0x3EF6 JUMP JUMPDEST SWAP2 POP PUSH2 0x503F DUP3 PUSH2 0x4F66 JUMP JUMPDEST PUSH1 0x8F DUP3 ADD SWAP1 POP SWAP2 SWAP1 POP JUMP JUMPDEST PUSH1 0x0 PUSH2 0x5055 DUP3 PUSH2 0x4D2F JUMP JUMPDEST SWAP2 POP PUSH2 0x5061 DUP3 DUP7 PUSH2 0x400B JUMP JUMPDEST SWAP2 POP PUSH2 0x506C DUP3 PUSH2 0x4E13 JUMP JUMPDEST SWAP2 POP PUSH2 0x5077 DUP3 PUSH2 0x4EF7 JUMP JUMPDEST SWAP2 POP PUSH2 0x5083 DUP3 DUP6 PUSH2 0x400B JUMP JUMPDEST SWAP2 POP PUSH2 0x508E DUP3 PUSH2 0x4F43 JUMP JUMPDEST SWAP2 POP PUSH2 0x5099 DUP3 PUSH2 0x5027 JUMP JUMPDEST SWAP2 POP PUSH2 0x50A5 DUP3 DUP5 PUSH2 0x400B JUMP JUMPDEST SWAP2 POP PUSH2 0x50B0 DUP3 PUSH2 0x4F43 JUMP JUMPDEST SWAP2 POP DUP2 SWAP1 POP SWAP5 SWAP4 POP POP POP POP JUMP JUMPDEST PUSH32 0x3C6C696E6561724772616469656E742069643D22000000000000000000000000 PUSH1 0x0 DUP3 ADD MSTORE POP JUMP JUMPDEST PUSH1 0x0 PUSH2 0x50F3 PUSH1 0x14 DUP4 PUSH2 0x3EF6 JUMP JUMPDEST SWAP2 POP PUSH2 0x50FE DUP3 PUSH2 0x50BD JUMP JUMPDEST PUSH1 0x14 DUP3 ADD SWAP1 POP SWAP2 SWAP1 POP JUMP JUMPDEST PUSH32 0x223E3C73746F70206F66667365743D223525222073746F702D636F6C6F723D22 PUSH1 0x0 DUP3 ADD MSTORE PUSH32 0x2300000000000000000000000000000000000000000000000000000000000000 PUSH1 0x20 DUP3 ADD MSTORE POP JUMP JUMPDEST PUSH1 0x0 PUSH2 0x5165 PUSH1 0x21 DUP4 PUSH2 0x3EF6 JUMP JUMPDEST SWAP2 POP PUSH2 0x5170 DUP3 PUSH2 0x5109 JUMP JUMPDEST PUSH1 0x21 DUP3 ADD SWAP1 POP SWAP2 SWAP1 POP JUMP JUMPDEST PUSH32 0x22202F3E3C73746F70206F66667365743D22393525222073746F702D636F6C6F PUSH1 0x0 DUP3 ADD MSTORE PUSH32 0x723D222300000000000000000000000000000000000000000000000000000000 PUSH1 0x20 DUP3 ADD MSTORE POP JUMP JUMPDEST PUSH1 0x0 PUSH2 0x51D7 PUSH1 0x24 DUP4 PUSH2 0x3EF6 JUMP JUMPDEST SWAP2 POP PUSH2 0x51E2 DUP3 PUSH2 0x517B JUMP JUMPDEST PUSH1 0x24 DUP3 ADD SWAP1 POP SWAP2 SWAP1 POP JUMP JUMPDEST PUSH32 0x222F3E3C2F6C696E6561724772616469656E743E000000000000000000000000 PUSH1 0x0 DUP3 ADD MSTORE POP JUMP JUMPDEST PUSH1 0x0 PUSH2 0x5223 PUSH1 0x14 DUP4 PUSH2 0x3EF6 JUMP JUMPDEST SWAP2 POP PUSH2 0x522E DUP3 PUSH2 0x51ED JUMP JUMPDEST PUSH1 0x14 DUP3 ADD SWAP1 POP SWAP2 SWAP1 POP JUMP JUMPDEST PUSH32 0x3C67207472616E73666F726D3D226D617472697828302E3936363533392C302C PUSH1 0x0 DUP3 ADD MSTORE PUSH32 0x302C302E3936363533392C342E39333132362C342E393035383629223E3C7061 PUSH1 0x20 DUP3 ADD MSTORE PUSH32 0x7468207374796C653D2266696C6C3A75726C2823000000000000000000000000 PUSH1 0x40 DUP3 ADD MSTORE POP JUMP JUMPDEST PUSH1 0x0 PUSH2 0x52BB PUSH1 0x54 DUP4 PUSH2 0x3EF6 JUMP JUMPDEST SWAP2 POP PUSH2 0x52C6 DUP3 PUSH2 0x5239 JUMP JUMPDEST PUSH1 0x54 DUP3 ADD SWAP1 POP SWAP2 SWAP1 POP JUMP JUMPDEST PUSH32 0x293B2220643D224D302E3037312C3230312E3834384C3330302E3131312C3230 PUSH1 0x0 DUP3 ADD MSTORE PUSH32 0x312E3834384C3330302E3131312C31302E323732433330302E3131312C342E36 PUSH1 0x20 DUP3 ADD MSTORE PUSH32 0x3536203239352E3535322C302E303937203238392E3933362C302E3039374C31 PUSH1 0x40 DUP3 ADD MSTORE PUSH32 0x302E3234352C302E30393743342E36332C302E30393720302E3037312C342E36 PUSH1 0x60 DUP3 ADD MSTORE PUSH32 0x353620302E3037312C31302E3237324C302E3037312C3230312E3834385A222F PUSH1 0x80 DUP3 ADD MSTORE PUSH32 0x3E3C2F673E000000000000000000000000000000000000000000000000000000 PUSH1 0xA0 DUP3 ADD MSTORE POP JUMP JUMPDEST PUSH1 0x0 PUSH2 0x53C5 PUSH1 0xA5 DUP4 PUSH2 0x3EF6 JUMP JUMPDEST SWAP2 POP PUSH2 0x53D0 DUP3 PUSH2 0x52D1 JUMP JUMPDEST PUSH1 0xA5 DUP3 ADD SWAP1 POP SWAP2 SWAP1 POP JUMP JUMPDEST PUSH32 0x3C67207472616E73666F726D3D226D617472697828312E363637392C302C302C PUSH1 0x0 DUP3 ADD MSTORE PUSH32 0x312E363637392C2D32352C2D343029223E3C7465787420783D22323470782220 PUSH1 0x20 DUP3 ADD MSTORE PUSH32 0x793D22353470782220636C6173733D22733120733262207333223E4554482041 PUSH1 0x40 DUP3 ADD MSTORE PUSH32 0x746C616E7469733C2F746578743E3C2F673E0000000000000000000000000000 PUSH1 0x60 DUP3 ADD MSTORE POP JUMP JUMPDEST PUSH1 0x0 PUSH2 0x5483 PUSH1 0x72 DUP4 PUSH2 0x3EF6 JUMP JUMPDEST SWAP2 POP PUSH2 0x548E DUP3 PUSH2 0x53DB JUMP JUMPDEST PUSH1 0x72 DUP3 ADD SWAP1 POP SWAP2 SWAP1 POP JUMP JUMPDEST PUSH32 0x3C67207472616E73666F726D3D226D617472697828312E363637392C302C302C PUSH1 0x0 DUP3 ADD MSTORE PUSH32 0x312E363637392C2D32352C2D313029223E3C7465787420783D22323470782220 PUSH1 0x20 DUP3 ADD MSTORE PUSH32 0x793D22353470782220636C6173733D22733120733262207335223E323032342C PUSH1 0x40 DUP3 ADD MSTORE PUSH32 0x204A756C792034202F2000000000000000000000000000000000000000000000 PUSH1 0x60 DUP3 ADD MSTORE POP JUMP JUMPDEST PUSH1 0x0 PUSH2 0x5541 PUSH1 0x6A DUP4 PUSH2 0x3EF6 JUMP JUMPDEST SWAP2 POP PUSH2 0x554C DUP3 PUSH2 0x5499 JUMP JUMPDEST PUSH1 0x6A DUP3 ADD SWAP1 POP SWAP2 SWAP1 POP JUMP JUMPDEST PUSH32 0x3C67207472616E73666F726D3D226D617472697828312E363637392C302C302C PUSH1 0x0 DUP3 ADD MSTORE PUSH32 0x312E363637392C2D32352C383529223E3C7465787420783D2232347078222079 PUSH1 0x20 DUP3 ADD MSTORE PUSH32 0x3D22353470782220636C6173733D22733120733262207338223E000000000000 PUSH1 0x40 DUP3 ADD MSTORE POP JUMP JUMPDEST PUSH1 0x0 PUSH2 0x55D9 PUSH1 0x5A DUP4 PUSH2 0x3EF6 JUMP JUMPDEST SWAP2 POP PUSH2 0x55E4 DUP3 PUSH2 0x5557 JUMP JUMPDEST PUSH1 0x5A DUP3 ADD SWAP1 POP SWAP2 SWAP1 POP JUMP JUMPDEST PUSH1 0x0 PUSH2 0x55FA DUP3 PUSH2 0x50E6 JUMP JUMPDEST SWAP2 POP PUSH2 0x5606 DUP3 DUP10 PUSH2 0x400B JUMP JUMPDEST SWAP2 POP PUSH2 0x5611 DUP3 PUSH2 0x5158 JUMP JUMPDEST SWAP2 POP PUSH2 0x561D DUP3 DUP9 PUSH2 0x400B JUMP JUMPDEST SWAP2 POP PUSH2 0x5628 DUP3 PUSH2 0x51CA JUMP JUMPDEST SWAP2 POP PUSH2 0x5634 DUP3 DUP8 PUSH2 0x400B JUMP JUMPDEST SWAP2 POP PUSH2 0x563F DUP3 PUSH2 0x5216 JUMP JUMPDEST SWAP2 POP PUSH2 0x564A DUP3 PUSH2 0x52AE JUMP JUMPDEST SWAP2 POP PUSH2 0x5656 DUP3 DUP7 PUSH2 0x400B JUMP JUMPDEST SWAP2 POP PUSH2 0x5661 DUP3 PUSH2 0x53B8 JUMP JUMPDEST SWAP2 POP PUSH2 0x566C DUP3 PUSH2 0x5476 JUMP JUMPDEST SWAP2 POP PUSH2 0x5677 DUP3 PUSH2 0x5534 JUMP JUMPDEST SWAP2 POP PUSH2 0x5683 DUP3 DUP6 PUSH2 0x400B JUMP JUMPDEST SWAP2 POP PUSH2 0x568E DUP3 PUSH2 0x4F43 JUMP JUMPDEST SWAP2 POP PUSH2 0x5699 DUP3 PUSH2 0x55CC JUMP JUMPDEST SWAP2 POP PUSH2 0x56A5 DUP3 DUP5 PUSH2 0x400B JUMP JUMPDEST SWAP2 POP PUSH2 0x56B0 DUP3 PUSH2 0x4F43 JUMP JUMPDEST SWAP2 POP DUP2 SWAP1 POP SWAP8 SWAP7 POP POP POP POP POP POP POP JUMP JUMPDEST PUSH1 0x0 PUSH2 0x56CB DUP3 PUSH2 0x359C JUMP JUMPDEST SWAP2 POP PUSH2 0x56D6 DUP4 PUSH2 0x359C JUMP JUMPDEST SWAP3 POP DUP3 DUP3 ADD SWAP1 POP DUP1 DUP3 GT ISZERO PUSH2 0x56EE JUMPI PUSH2 0x56ED PUSH2 0x3E0B JUMP JUMPDEST JUMPDEST SWAP3 SWAP2 POP POP JUMP JUMPDEST PUSH32 0x4E487B7100000000000000000000000000000000000000000000000000000000 PUSH1 0x0 MSTORE PUSH1 0x12 PUSH1 0x4 MSTORE PUSH1 0x24 PUSH1 0x0 REVERT JUMPDEST PUSH1 0x0 PUSH2 0x572E DUP3 PUSH2 0x359C JUMP JUMPDEST SWAP2 POP PUSH2 0x5739 DUP4 PUSH2 0x359C JUMP JUMPDEST SWAP3 POP DUP3 PUSH2 0x5749 JUMPI PUSH2 0x5748 PUSH2 0x56F4 JUMP JUMPDEST JUMPDEST DUP3 DUP3 DIV SWAP1 POP SWAP3 SWAP2 POP POP JUMP JUMPDEST PUSH1 0x0 PUSH2 0x575F DUP3 PUSH2 0x359C JUMP JUMPDEST SWAP2 POP PUSH2 0x576A DUP4 PUSH2 0x359C JUMP JUMPDEST SWAP3 POP DUP3 DUP3 MUL PUSH2 0x5778 DUP2 PUSH2 0x359C JUMP JUMPDEST SWAP2 POP DUP3 DUP3 DIV DUP5 EQ DUP4 ISZERO OR PUSH2 0x578F JUMPI PUSH2 0x578E PUSH2 0x3E0B JUMP JUMPDEST JUMPDEST POP SWAP3 SWAP2 POP POP JUMP JUMPDEST PUSH32 0x4F776E61626C653A2063616C6C6572206973206E6F7420746865206F776E6572 PUSH1 0x0 DUP3 ADD MSTORE POP JUMP JUMPDEST PUSH1 0x0 PUSH2 0x57CC PUSH1 0x20 DUP4 PUSH2 0x34F5 JUMP JUMPDEST SWAP2 POP PUSH2 0x57D7 DUP3 PUSH2 0x5796 JUMP JUMPDEST PUSH1 0x20 DUP3 ADD SWAP1 POP SWAP2 SWAP1 POP JUMP JUMPDEST PUSH1 0x0 PUSH1 0x20 DUP3 ADD SWAP1 POP DUP2 DUP2 SUB PUSH1 0x0 DUP4 ADD MSTORE PUSH2 0x57FB DUP2 PUSH2 0x57BF JUMP JUMPDEST SWAP1 POP SWAP2 SWAP1 POP JUMP JUMPDEST PUSH32 0x4552433732313A20617070726F766520746F2063616C6C657200000000000000 PUSH1 0x0 DUP3 ADD MSTORE POP JUMP JUMPDEST PUSH1 0x0 PUSH2 0x5838 PUSH1 0x19 DUP4 PUSH2 0x34F5 JUMP JUMPDEST SWAP2 POP PUSH2 0x5843 DUP3 PUSH2 0x5802 JUMP JUMPDEST PUSH1 0x20 DUP3 ADD SWAP1 POP SWAP2 SWAP1 POP JUMP JUMPDEST PUSH1 0x0 PUSH1 0x20 DUP3 ADD SWAP1 POP DUP2 DUP2 SUB PUSH1 0x0 DUP4 ADD MSTORE PUSH2 0x5867 DUP2 PUSH2 0x582B JUMP JUMPDEST SWAP1 POP SWAP2 SWAP1 POP JUMP JUMPDEST PUSH32 0x4552433732313A207472616E7366657220746F206E6F6E204552433732315265 PUSH1 0x0 DUP3 ADD MSTORE PUSH32 0x63656976657220696D706C656D656E7465720000000000000000000000000000 PUSH1 0x20 DUP3 ADD MSTORE POP JUMP JUMPDEST PUSH1 0x0 PUSH2 0x58CA PUSH1 0x32 DUP4 PUSH2 0x34F5 JUMP JUMPDEST SWAP2 POP PUSH2 0x58D5 DUP3 PUSH2 0x586E JUMP JUMPDEST PUSH1 0x40 DUP3 ADD SWAP1 POP SWAP2 SWAP1 POP JUMP JUMPDEST PUSH1 0x0 PUSH1 0x20 DUP3 ADD SWAP1 POP DUP2 DUP2 SUB PUSH1 0x0 DUP4 ADD MSTORE PUSH2 0x58F9 DUP2 PUSH2 0x58BD JUMP JUMPDEST SWAP1 POP SWAP2 SWAP1 POP JUMP JUMPDEST PUSH1 0x0 PUSH2 0x590B DUP3 PUSH2 0x359C JUMP JUMPDEST SWAP2 POP PUSH1 0x0 DUP3 SUB PUSH2 0x591E JUMPI PUSH2 0x591D PUSH2 0x3E0B JUMP JUMPDEST JUMPDEST PUSH1 0x1 DUP3 SUB SWAP1 POP SWAP2 SWAP1 POP JUMP JUMPDEST PUSH32 0x455243373231456E756D657261626C653A20636F6E7365637574697665207472 PUSH1 0x0 DUP3 ADD MSTORE PUSH32 0x616E7366657273206E6F7420737570706F727465640000000000000000000000 PUSH1 0x20 DUP3 ADD MSTORE POP JUMP JUMPDEST PUSH1 0x0 PUSH2 0x5985 PUSH1 0x35 DUP4 PUSH2 0x34F5 JUMP JUMPDEST SWAP2 POP PUSH2 0x5990 DUP3 PUSH2 0x5929 JUMP JUMPDEST PUSH1 0x40 DUP3 ADD SWAP1 POP SWAP2 SWAP1 POP JUMP JUMPDEST PUSH1 0x0 PUSH1 0x20 DUP3 ADD SWAP1 POP DUP2 DUP2 SUB PUSH1 0x0 DUP4 ADD MSTORE PUSH2 0x59B4 DUP2 PUSH2 0x5978 JUMP JUMPDEST SWAP1 POP SWAP2 SWAP1 POP JUMP JUMPDEST PUSH32 0x537472696E67733A20686578206C656E67746820696E73756666696369656E74 PUSH1 0x0 DUP3 ADD MSTORE POP JUMP JUMPDEST PUSH1 0x0 PUSH2 0x59F1 PUSH1 0x20 DUP4 PUSH2 0x34F5 JUMP JUMPDEST SWAP2 POP PUSH2 0x59FC DUP3 PUSH2 0x59BB JUMP JUMPDEST PUSH1 0x20 DUP3 ADD SWAP1 POP SWAP2 SWAP1 POP JUMP JUMPDEST PUSH1 0x0 PUSH1 0x20 DUP3 ADD SWAP1 POP DUP2 DUP2 SUB PUSH1 0x0 DUP4 ADD MSTORE PUSH2 0x5A20 DUP2 PUSH2 0x59E4 JUMP JUMPDEST SWAP1 POP SWAP2 SWAP1 POP JUMP JUMPDEST PUSH1 0x0 DUP3 DUP3 MSTORE PUSH1 0x20 DUP3 ADD SWAP1 POP SWAP3 SWAP2 POP POP JUMP JUMPDEST PUSH1 0x0 PUSH2 0x5A43 DUP3 PUSH2 0x4ACC JUMP JUMPDEST PUSH2 0x5A4D DUP2 DUP6 PUSH2 0x5A27 JUMP JUMPDEST SWAP4 POP PUSH2 0x5A5D DUP2 DUP6 PUSH1 0x20 DUP7 ADD PUSH2 0x3506 JUMP JUMPDEST PUSH2 0x5A66 DUP2 PUSH2 0x3530 JUMP JUMPDEST DUP5 ADD SWAP2 POP POP SWAP3 SWAP2 POP POP JUMP JUMPDEST PUSH1 0x0 PUSH1 0x80 DUP3 ADD SWAP1 POP PUSH2 0x5A86 PUSH1 0x0 DUP4 ADD DUP8 PUSH2 0x3631 JUMP JUMPDEST PUSH2 0x5A93 PUSH1 0x20 DUP4 ADD DUP7 PUSH2 0x3631 JUMP JUMPDEST PUSH2 0x5AA0 PUSH1 0x40 DUP4 ADD DUP6 PUSH2 0x36C7 JUMP JUMPDEST DUP2 DUP2 SUB PUSH1 0x60 DUP4 ADD MSTORE PUSH2 0x5AB2 DUP2 DUP5 PUSH2 0x5A38 JUMP JUMPDEST SWAP1 POP SWAP6 SWAP5 POP POP POP POP POP JUMP JUMPDEST PUSH1 0x0 DUP2 MLOAD SWAP1 POP PUSH2 0x5ACC DUP2 PUSH2 0x345B JUMP JUMPDEST SWAP3 SWAP2 POP POP JUMP JUMPDEST PUSH1 0x0 PUSH1 0x20 DUP3 DUP5 SUB SLT ISZERO PUSH2 0x5AE8 JUMPI PUSH2 0x5AE7 PUSH2 0x3425 JUMP JUMPDEST JUMPDEST PUSH1 0x0 PUSH2 0x5AF6 DUP5 DUP3 DUP6 ADD PUSH2 0x5ABD JUMP JUMPDEST SWAP2 POP POP SWAP3 SWAP2 POP POP JUMP JUMPDEST PUSH32 0x4552433732313A206D696E7420746F20746865207A65726F2061646472657373 PUSH1 0x0 DUP3 ADD MSTORE POP JUMP JUMPDEST PUSH1 0x0 PUSH2 0x5B35 PUSH1 0x20 DUP4 PUSH2 0x34F5 JUMP JUMPDEST SWAP2 POP PUSH2 0x5B40 DUP3 PUSH2 0x5AFF JUMP JUMPDEST PUSH1 0x20 DUP3 ADD SWAP1 POP SWAP2 SWAP1 POP JUMP JUMPDEST PUSH1 0x0 PUSH1 0x20 DUP3 ADD SWAP1 POP DUP2 DUP2 SUB PUSH1 0x0 DUP4 ADD MSTORE PUSH2 0x5B64 DUP2 PUSH2 0x5B28 JUMP JUMPDEST SWAP1 POP SWAP2 SWAP1 POP JUMP JUMPDEST PUSH32 0x4552433732313A20746F6B656E20616C7265616479206D696E74656400000000 PUSH1 0x0 DUP3 ADD MSTORE POP JUMP JUMPDEST PUSH1 0x0 PUSH2 0x5BA1 PUSH1 0x1C DUP4 PUSH2 0x34F5 JUMP JUMPDEST SWAP2 POP PUSH2 0x5BAC DUP3 PUSH2 0x5B6B JUMP JUMPDEST PUSH1 0x20 DUP3 ADD SWAP1 POP SWAP2 SWAP1 POP JUMP JUMPDEST PUSH1 0x0 PUSH1 0x20 DUP3 ADD SWAP1 POP DUP2 DUP2 SUB PUSH1 0x0 DUP4 ADD MSTORE PUSH2 0x5BD0 DUP2 PUSH2 0x5B94 JUMP JUMPDEST SWAP1 POP SWAP2 SWAP1 POP JUMP JUMPDEST PUSH1 0x0 PUSH2 0x5BE2 DUP3 PUSH2 0x359C JUMP JUMPDEST SWAP2 POP PUSH2 0x5BED DUP4 PUSH2 0x359C JUMP JUMPDEST SWAP3 POP DUP3 DUP3 SUB SWAP1 POP DUP2 DUP2 GT ISZERO PUSH2 0x5C05 JUMPI PUSH2 0x5C04 PUSH2 0x3E0B JUMP JUMPDEST JUMPDEST SWAP3 SWAP2 POP POP JUMP JUMPDEST PUSH32 0x4E487B7100000000000000000000000000000000000000000000000000000000 PUSH1 0x0 MSTORE PUSH1 0x31 PUSH1 0x4 MSTORE PUSH1 0x24 PUSH1 0x0 REVERT INVALID COINBASE TIMESTAMP NUMBER PREVRANDAO GASLIMIT CHAINID SELFBALANCE BASEFEE 0x49 0x4A 0x4B 0x4C 0x4D 0x4E 0x4F POP MLOAD MSTORE MSTORE8 SLOAD SSTORE JUMP JUMPI PC MSIZE GAS PUSH2 0x6263 PUSH5 0x6566676869 PUSH11 0x6B6C6D6E6F707172737475 PUSH23 0x7778797A303132333435363738392B2FA2646970667358 0x22 SLT KECCAK256 0xF6 0xE STATICCALL 0x27 0xDC 0xA6 PUSH3 0x6DEB2 0x4F 0xC3 DUP16 TIMESTAMP 0x4B PUSH25 0x92D6A5FD50EA4313F250A492559EB60064736F6C6343000813 STOP CALLER "},"methodIdentifiers":{"MAX_SUPPLY()":"32cb6b0c","approve(address,uint256)":"095ea7b3","balanceOf(address)":"70a08231","color(uint256)":"d4e28c9c","contractURI()":"e8a3d485","gaTicketPrice()":"26ff40de","generateNftSvgByTokenId(uint256)":"2bb2c9cb","getApproved(uint256)":"081812fc","isApprovedForAll(address,address)":"e985e9c5","mintNFT()":"14f710fe","name()":"06fdde03","owner()":"8da5cb5b","ownerOf(uint256)":"6352211e","renounceOwnership()":"715018a6","safeTransferFrom(address,address,uint256)":"42842e0e","safeTransferFrom(address,address,uint256,bytes)":"b88d4fde","setApprovalForAll(address,bool)":"a22cb465","supportsInterface(bytes4)":"01ffc9a7","symbol()":"95d89b41","tokenByIndex(uint256)":"4f6ccce7","tokenOfOwnerByIndex(address,uint256)":"2f745c59","tokenURI(uint256)":"c87b56dd","totalSupply()":"18160ddd","transferFrom(address,address,uint256)":"23b872dd","transferOwnership(address)":"f2fde38b","vipTicketHolders(uint256)":"8146581a","vipTicketPrice()":"44c485a3","walletOfOwner(address)":"438b6300"}}}}}