{
  "_format": "hh-sol-artifact-1",
  "contractName": "ETHTickets",
  "sourceName": "contracts/ETHTickets.sol",
  "abi": [
    {
      "inputs": [],
      "stateMutability": "nonpayable",
      "type": "constructor"
    },
    {
      "anonymous": false,
      "inputs": [
        {
          "indexed": true,
          "internalType": "address",
          "name": "owner",
          "type": "address"
        },
        {
          "indexed": true,
          "internalType": "address",
          "name": "approved",
          "type": "address"
        },
        {
          "indexed": true,
          "internalType": "uint256",
          "name": "tokenId",
          "type": "uint256"
        }
      ],
      "name": "Approval",
      "type": "event"
    },
    {
      "anonymous": false,
      "inputs": [
        {
          "indexed": true,
          "internalType": "address",
          "name": "owner",
          "type": "address"
        },
        {
          "indexed": true,
          "internalType": "address",
          "name": "operator",
          "type": "address"
        },
        {
          "indexed": false,
          "internalType": "bool",
          "name": "approved",
          "type": "bool"
        }
      ],
      "name": "ApprovalForAll",
      "type": "event"
    },
    {
      "anonymous": false,
      "inputs": [
        {
          "indexed": true,
          "internalType": "address",
          "name": "previousOwner",
          "type": "address"
        },
        {
          "indexed": true,
          "internalType": "address",
          "name": "newOwner",
          "type": "address"
        }
      ],
      "name": "OwnershipTransferred",
      "type": "event"
    },
    {
      "anonymous": false,
      "inputs": [
        {
          "indexed": true,
          "internalType": "address",
          "name": "from",
          "type": "address"
        },
        {
          "indexed": true,
          "internalType": "address",
          "name": "to",
          "type": "address"
        },
        {
          "indexed": true,
          "internalType": "uint256",
          "name": "tokenId",
          "type": "uint256"
        }
      ],
      "name": "Transfer",
      "type": "event"
    },
    {
      "inputs": [],
      "name": "MAX_SUPPLY",
      "outputs": [
        {
          "internalType": "uint16",
          "name": "",
          "type": "uint16"
        }
      ],
      "stateMutability": "view",
      "type": "function"
    },
    {
      "inputs": [
        {
          "internalType": "address",
          "name": "to",
          "type": "address"
        },
        {
          "internalType": "uint256",
          "name": "tokenId",
          "type": "uint256"
        }
      ],
      "name": "approve",
      "outputs": [],
      "stateMutability": "nonpayable",
      "type": "function"
    },
    {
      "inputs": [
        {
          "internalType": "address",
          "name": "owner",
          "type": "address"
        }
      ],
      "name": "balanceOf",
      "outputs": [
        {
          "internalType": "uint256",
          "name": "",
          "type": "uint256"
        }
      ],
      "stateMutability": "view",
      "type": "function"
    },
    {
      "inputs": [
        {
          "internalType": "uint256",
          "name": "",
          "type": "uint256"
        }
      ],
      "name": "color",
      "outputs": [
        {
          "internalType": "bytes3",
          "name": "",
          "type": "bytes3"
        }
      ],
      "stateMutability": "view",
      "type": "function"
    },
    {
      "inputs": [],
      "name": "contractURI",
      "outputs": [
        {
          "internalType": "string",
          "name": "",
          "type": "string"
        }
      ],
      "stateMutability": "pure",
      "type": "function"
    },
    {
      "inputs": [],
      "name": "gaTicketPrice",
      "outputs": [
        {
          "internalType": "uint256",
          "name": "",
          "type": "uint256"
        }
      ],
      "stateMutability": "view",
      "type": "function"
    },
    {
      "inputs": [
        {
          "internalType": "uint256",
          "name": "id",
          "type": "uint256"
        }
      ],
      "name": "generateNftSvgByTokenId",
      "outputs": [
        {
          "internalType": "string",
          "name": "",
          "type": "string"
        }
      ],
      "stateMutability": "view",
      "type": "function"
    },
    {
      "inputs": [
        {
          "internalType": "uint256",
          "name": "tokenId",
          "type": "uint256"
        }
      ],
      "name": "getApproved",
      "outputs": [
        {
          "internalType": "address",
          "name": "",
          "type": "address"
        }
      ],
      "stateMutability": "view",
      "type": "function"
    },
    {
      "inputs": [
        {
          "internalType": "address",
          "name": "owner",
          "type": "address"
        },
        {
          "internalType": "address",
          "name": "operator",
          "type": "address"
        }
      ],
      "name": "isApprovedForAll",
      "outputs": [
        {
          "internalType": "bool",
          "name": "",
          "type": "bool"
        }
      ],
      "stateMutability": "view",
      "type": "function"
    },
    {
      "inputs": [],
      "name": "mintNFT",
      "outputs": [
        {
          "internalType": "uint256",
          "name": "",
          "type": "uint256"
        }
      ],
      "stateMutability": "payable",
      "type": "function"
    },
    {
      "inputs": [],
      "name": "name",
      "outputs": [
        {
          "internalType": "string",
          "name": "",
          "type": "string"
        }
      ],
      "stateMutability": "view",
      "type": "function"
    },
    {
      "inputs": [],
      "name": "owner",
      "outputs": [
        {
          "internalType": "address",
          "name": "",
          "type": "address"
        }
      ],
      "stateMutability": "view",
      "type": "function"
    },
    {
      "inputs": [
        {
          "internalType": "uint256",
          "name": "tokenId",
          "type": "uint256"
        }
      ],
      "name": "ownerOf",
      "outputs": [
        {
          "internalType": "address",
          "name": "",
          "type": "address"
        }
      ],
      "stateMutability": "view",
      "type": "function"
    },
    {
      "inputs": [],
      "name": "renounceOwnership",
      "outputs": [],
      "stateMutability": "nonpayable",
      "type": "function"
    },
    {
      "inputs": [
        {
          "internalType": "address",
          "name": "from",
          "type": "address"
        },
        {
          "internalType": "address",
          "name": "to",
          "type": "address"
        },
        {
          "internalType": "uint256",
          "name": "tokenId",
          "type": "uint256"
        }
      ],
      "name": "safeTransferFrom",
      "outputs": [],
      "stateMutability": "nonpayable",
      "type": "function"
    },
    {
      "inputs": [
        {
          "internalType": "address",
          "name": "from",
          "type": "address"
        },
        {
          "internalType": "address",
          "name": "to",
          "type": "address"
        },
        {
          "internalType": "uint256",
          "name": "tokenId",
          "type": "uint256"
        },
        {
          "internalType": "bytes",
          "name": "data",
          "type": "bytes"
        }
      ],
      "name": "safeTransferFrom",
      "outputs": [],
      "stateMutability": "nonpayable",
      "type": "function"
    },
    {
      "inputs": [
        {
          "internalType": "address",
          "name": "operator",
          "type": "address"
        },
        {
          "internalType": "bool",
          "name": "approved",
          "type": "bool"
        }
      ],
      "name": "setApprovalForAll",
      "outputs": [],
      "stateMutability": "nonpayable",
      "type": "function"
    },
    {
      "inputs": [
        {
          "internalType": "bytes4",
          "name": "interfaceId",
          "type": "bytes4"
        }
      ],
      "name": "supportsInterface",
      "outputs": [
        {
          "internalType": "bool",
          "name": "",
          "type": "bool"
        }
      ],
      "stateMutability": "view",
      "type": "function"
    },
    {
      "inputs": [],
      "name": "symbol",
      "outputs": [
        {
          "internalType": "string",
          "name": "",
          "type": "string"
        }
      ],
      "stateMutability": "view",
      "type": "function"
    },
    {
      "inputs": [
        {
          "internalType": "uint256",
          "name": "index",
          "type": "uint256"
        }
      ],
      "name": "tokenByIndex",
      "outputs": [
        {
          "internalType": "uint256",
          "name": "",
          "type": "uint256"
        }
      ],
      "stateMutability": "view",
      "type": "function"
    },
    {
      "inputs": [
        {
          "internalType": "address",
          "name": "owner",
          "type": "address"
        },
        {
          "internalType": "uint256",
          "name": "index",
          "type": "uint256"
        }
      ],
      "name": "tokenOfOwnerByIndex",
      "outputs": [
        {
          "internalType": "uint256",
          "name": "",
          "type": "uint256"
        }
      ],
      "stateMutability": "view",
      "type": "function"
    },
    {
      "inputs": [
        {
          "internalType": "uint256",
          "name": "id",
          "type": "uint256"
        }
      ],
      "name": "tokenURI",
      "outputs": [
        {
          "internalType": "string",
          "name": "",
          "type": "string"
        }
      ],
      "stateMutability": "view",
      "type": "function"
    },
    {
      "inputs": [],
      "name": "totalSupply",
      "outputs": [
        {
          "internalType": "uint256",
          "name": "",
          "type": "uint256"
        }
      ],
      "stateMutability": "view",
      "type": "function"
    },
    {
      "inputs": [
        {
          "internalType": "address",
          "name": "from",
          "type": "address"
        },
        {
          "internalType": "address",
          "name": "to",
          "type": "address"
        },
        {
          "internalType": "uint256",
          "name": "tokenId",
          "type": "uint256"
        }
      ],
      "name": "transferFrom",
      "outputs": [],
      "stateMutability": "nonpayable",
      "type": "function"
    },
    {
      "inputs": [
        {
          "internalType": "address",
          "name": "newOwner",
          "type": "address"
        }
      ],
      "name": "transferOwnership",
      "outputs": [],
      "stateMutability": "nonpayable",
      "type": "function"
    },
    {
      "inputs": [
        {
          "internalType": "uint256",
          "name": "",
          "type": "uint256"
        }
      ],
      "name": "vipTicketHolders",
      "outputs": [
        {
          "internalType": "bool",
          "name": "",
          "type": "bool"
        }
      ],
      "stateMutability": "view",
      "type": "function"
    },
    {
      "inputs": [],
      "name": "vipTicketPrice",
      "outputs": [
        {
          "internalType": "uint256",
          "name": "",
          "type": "uint256"
        }
      ],
      "stateMutability": "view",
      "type": "function"
    },
    {
      "inputs": [
        {
          "internalType": "address",
          "name": "_wallet",
          "type": "address"
        }
      ],
      "name": "walletOfOwner",
      "outputs": [
        {
          "internalType": "uint256[]",
          "name": "",
          "type": "uint256[]"
        }
      ],
      "stateMutability": "view",
      "type": "function"
    }
  ],
  "bytecode": "0x60806040526000600c60006101000a81548161ffff021916908361ffff160217905550612327600c60166101000a81548161ffff021916908361ffff16021790555062093a80426200005291906200026f565b600f553480156200006257600080fd5b506040518060400160405280600a81526020017f4554485469636b657473000000000000000000000000000000000000000000008152506040518060400160405280600581526020017f45544854580000000000000000000000000000000000000000000000000000008152508160009081620000e091906200051a565b508060019081620000f291906200051a565b50505062000115620001096200016860201b60201c565b6200017060201b60201c565b6103e7600b6000018190555033600c60026101000a81548173ffffffffffffffffffffffffffffffffffffffff021916908373ffffffffffffffffffffffffffffffffffffffff16021790555062000601565b600033905090565b6000600a60009054906101000a900473ffffffffffffffffffffffffffffffffffffffff16905081600a60006101000a81548173ffffffffffffffffffffffffffffffffffffffff021916908373ffffffffffffffffffffffffffffffffffffffff1602179055508173ffffffffffffffffffffffffffffffffffffffff168173ffffffffffffffffffffffffffffffffffffffff167f8be0079c531659141344cd1fd0a4f28419497f9722a3daafe3b4186f6b6457e060405160405180910390a35050565b6000819050919050565b7f4e487b7100000000000000000000000000000000000000000000000000000000600052601160045260246000fd5b60006200027c8262000236565b9150620002898362000236565b9250828201905080821115620002a457620002a362000240565b5b92915050565b600081519050919050565b7f4e487b7100000000000000000000000000000000000000000000000000000000600052604160045260246000fd5b7f4e487b7100000000000000000000000000000000000000000000000000000000600052602260045260246000fd5b600060028204905060018216806200032c57607f821691505b602082108103620003425762000341620002e4565b5b50919050565b60008190508160005260206000209050919050565b60006020601f8301049050919050565b600082821b905092915050565b600060088302620003ac7fffffffffffffffffffffffffffffffffffffffffffffffffffffffffffffffff826200036d565b620003b886836200036d565b95508019841693508086168417925050509392505050565b6000819050919050565b6000620003fb620003f5620003ef8462000236565b620003d0565b62000236565b9050919050565b6000819050919050565b6200041783620003da565b6200042f620004268262000402565b8484546200037a565b825550505050565b600090565b6200044662000437565b620004538184846200040c565b505050565b5b818110156200047b576200046f6000826200043c565b60018101905062000459565b5050565b601f821115620004ca57620004948162000348565b6200049f846200035d565b81016020851015620004af578190505b620004c7620004be856200035d565b83018262000458565b50505b505050565b600082821c905092915050565b6000620004ef60001984600802620004cf565b1980831691505092915050565b60006200050a8383620004dc565b9150826002028217905092915050565b6200052582620002aa565b67ffffffffffffffff811115620005415762000540620002b5565b5b6200054d825462000313565b6200055a8282856200047f565b600060209050601f8311600181146200059257600084156200057d578287015190505b620005898582620004fc565b865550620005f9565b601f198416620005a28662000348565b60005b82811015620005cc57848901518255600182019150602085019450602081019050620005a5565b86831015620005ec5784890151620005e8601f891682620004dc565b8355505b6001600288020188555050505b505050505050565b615cb080620006116000396000f3fe6080604052600436106101b75760003560e01c80634f6ccce7116100ec578063a22cb4651161008a578063d4e28c9c11610064578063d4e28c9c1461064d578063e8a3d4851461068a578063e985e9c5146106b5578063f2fde38b146106f2576101b7565b8063a22cb465146105be578063b88d4fde146105e7578063c87b56dd14610610576101b7565b8063715018a6116100c6578063715018a6146105145780638146581a1461052b5780638da5cb5b1461056857806395d89b4114610593576101b7565b80634f6ccce71461045d5780636352211e1461049a57806370a08231146104d7576101b7565b806326ff40de1161015957806332cb6b0c1161013357806332cb6b0c146103a157806342842e0e146103cc578063438b6300146103f557806344c485a314610432576101b7565b806326ff40de146102fc5780632bb2c9cb146103275780632f745c5914610364576101b7565b8063095ea7b311610195578063095ea7b31461026157806314f710fe1461028a57806318160ddd146102a857806323b872dd146102d3576101b7565b806301ffc9a7146101bc57806306fdde03146101f9578063081812fc14610224575b600080fd5b3480156101c857600080fd5b506101e360048036038101906101de9190613487565b61071b565b6040516101f091906134cf565b60405180910390f35b34801561020557600080fd5b5061020e610795565b60405161021b919061357a565b60405180910390f35b34801561023057600080fd5b5061024b600480360381019061024691906135d2565b610827565b6040516102589190613640565b60405180910390f35b34801561026d57600080fd5b5061028860048036038101906102839190613687565b61086d565b005b610292610984565b60405161029f91906136d6565b60405180910390f35b3480156102b457600080fd5b506102bd610b96565b6040516102ca91906136d6565b60405180910390f35b3480156102df57600080fd5b506102fa60048036038101906102f591906136f1565b610bb2565b005b34801561030857600080fd5b50610311610c12565b60405161031e91906136d6565b60405180910390f35b34801561033357600080fd5b5061034e600480360381019061034991906135d2565b610c1d565b60405161035b919061357a565b60405180910390f35b34801561037057600080fd5b5061038b60048036038101906103869190613687565b610c7f565b60405161039891906136d6565b60405180910390f35b3480156103ad57600080fd5b506103b6610d24565b6040516103c39190613761565b60405180910390f35b3480156103d857600080fd5b506103f360048036038101906103ee91906136f1565b610d38565b005b34801561040157600080fd5b5061041c6004803603810190610417919061377c565b610d58565b6040516104299190613867565b60405180910390f35b34801561043e57600080fd5b50610447610e06565b60405161045491906136d6565b60405180910390f35b34801561046957600080fd5b50610484600480360381019061047f91906135d2565b610e11565b60405161049191906136d6565b60405180910390f35b3480156104a657600080fd5b506104c160048036038101906104bc91906135d2565b610e82565b6040516104ce9190613640565b60405180910390f35b3480156104e357600080fd5b506104fe60048036038101906104f9919061377c565b610f08565b60405161050b91906136d6565b60405180910390f35b34801561052057600080fd5b50610529610fbf565b005b34801561053757600080fd5b50610552600480360381019061054d91906135d2565b610fd3565b60405161055f91906134cf565b60405180910390f35b34801561057457600080fd5b5061057d610ff3565b60405161058a9190613640565b60405180910390f35b34801561059f57600080fd5b506105a861101d565b6040516105b5919061357a565b60405180910390f35b3480156105ca57600080fd5b506105e560048036038101906105e091906138b5565b6110af565b005b3480156105f357600080fd5b5061060e60048036038101906106099190613a2a565b6110c5565b005b34801561061c57600080fd5b50610637600480360381019061063291906135d2565b611127565b604051610644919061357a565b60405180910390f35b34801561065957600080fd5b50610674600480360381019061066f91906135d2565b611384565b6040516106819190613ae8565b60405180910390f35b34801561069657600080fd5b5061069f6113a4565b6040516106ac919061357a565b60405180910390f35b3480156106c157600080fd5b506106dc60048036038101906106d79190613b03565b611415565b6040516106e991906134cf565b60405180910390f35b3480156106fe57600080fd5b506107196004803603810190610714919061377c565b6114a9565b005b60007f780e9d63000000000000000000000000000000000000000000000000000000007bffffffffffffffffffffffffffffffffffffffffffffffffffffffff1916827bffffffffffffffffffffffffffffffffffffffffffffffffffffffff1916148061078e575061078d8261152c565b5b9050919050565b6060600080546107a490613b72565b80601f01602080910402602001604051908101604052809291908181526020018280546107d090613b72565b801561081d5780601f106107f25761010080835404028352916020019161081d565b820191906000526020600020905b81548152906001019060200180831161080057829003601f168201915b5050505050905090565b60006108328261160e565b6004600083815260200190815260200160002060009054906101000a900473ffffffffffffffffffffffffffffffffffffffff169050919050565b600061087882610e82565b90508073ffffffffffffffffffffffffffffffffffffffff168373ffffffffffffffffffffffffffffffffffffffff16036108e8576040517f08c379a00000000000000000000000000000000000000000000000000000000081526004016108df90613c15565b60405180910390fd5b8073ffffffffffffffffffffffffffffffffffffffff16610907611659565b73ffffffffffffffffffffffffffffffffffffffff161480610936575061093581610930611659565b611415565b5b610975576040517f08c379a000000000000000000000000000000000000000000000000000000000815260040161096c90613ca7565b60405180910390fd5b61097f8383611661565b505050565b6000600c60169054906101000a900461ffff1661ffff16600c60009054906101000a900461ffff1661ffff16106109f0576040517f08c379a00000000000000000000000000000000000000000000000000000000081526004016109e790613d13565b60405180910390fd5b600f544210610a34576040517f08c379a0000000000000000000000000000000000000000000000000000000008152600401610a2b90613d7f565b60405180910390fd5b3466470de4df8200001480610a4f575034662386f26fc10000145b610a8e576040517f08c379a0000000000000000000000000000000000000000000000000000000008152600401610a8590613deb565b60405180910390fd5b610a98600b61171a565b6000610aa4600b611730565b9050610ab0338261173e565b66470de4df8200003403610aeb576001600d600083815260200190815260200160002060006101000a81548160ff0219169083151502179055505b600c600081819054906101000a900461ffff1680929190610b0b90613e3a565b91906101000a81548161ffff021916908361ffff16021790555050600c60029054906101000a900473ffffffffffffffffffffffffffffffffffffffff1673ffffffffffffffffffffffffffffffffffffffff166108fc349081150290604051600060405180830381858888f19350505050158015610b8e573d6000803e3d6000fd5b508091505090565b6000600c60009054906101000a900461ffff1661ffff16905090565b610bc3610bbd611659565b8261175c565b610c02576040517f08c379a0000000000000000000000000000000000000000000000000000000008152600401610bf990613ed6565b60405180910390fd5b610c0d8383836117f1565b505050565b662386f26fc1000081565b6060610c59610c2b83611aea565b610c3484611c51565b604051602001610c459291906141b8565b604051602081830303815290604052611fba565b604051602001610c699190614249565b6040516020818303038152906040529050919050565b6000610c8a83610f08565b8210610ccb576040517f08c379a0000000000000000000000000000000000000000000000000000000008152600401610cc2906142dd565b60405180910390fd5b600660008473ffffffffffffffffffffffffffffffffffffffff1673ffffffffffffffffffffffffffffffffffffffff168152602001908152602001600020600083815260200190815260200160002054905092915050565b600c60169054906101000a900461ffff1681565b610d53838383604051806020016040528060008152506110c5565b505050565b60606000610d6583610f08565b905060008167ffffffffffffffff811115610d8357610d826138ff565b5b604051908082528060200260200182016040528015610db15781602001602082028036833780820191505090505b50905060005b82811015610dfb57610dc98582610c7f565b828281518110610ddc57610ddb6142fd565b5b6020026020010181815250508080610df39061432c565b915050610db7565b508092505050919050565b66470de4df82000081565b6000610e1b612132565b8210610e5c576040517f08c379a0000000000000000000000000000000000000000000000000000000008152600401610e53906143e6565b60405180910390fd5b60088281548110610e7057610e6f6142fd565b5b90600052602060002001549050919050565b600080610e8e8361213f565b9050600073ffffffffffffffffffffffffffffffffffffffff168173ffffffffffffffffffffffffffffffffffffffff1603610eff576040517f08c379a0000000000000000000000000000000000000000000000000000000008152600401610ef690614452565b60405180910390fd5b80915050919050565b60008073ffffffffffffffffffffffffffffffffffffffff168273ffffffffffffffffffffffffffffffffffffffff1603610f78576040517f08c379a0000000000000000000000000000000000000000000000000000000008152600401610f6f906144e4565b60405180910390fd5b600360008373ffffffffffffffffffffffffffffffffffffffff1673ffffffffffffffffffffffffffffffffffffffff168152602001908152602001600020549050919050565b610fc761217c565b610fd160006121fa565b565b600d6020528060005260406000206000915054906101000a900460ff1681565b6000600a60009054906101000a900473ffffffffffffffffffffffffffffffffffffffff16905090565b60606001805461102c90613b72565b80601f016020809104026020016040519081016040528092919081815260200182805461105890613b72565b80156110a55780601f1061107a576101008083540402835291602001916110a5565b820191906000526020600020905b81548152906001019060200180831161108857829003601f168201915b5050505050905090565b6110c16110ba611659565b83836122c0565b5050565b6110d66110d0611659565b8361175c565b611115576040517f08c379a000000000000000000000000000000000000000000000000000000000815260040161110c90613ed6565b60405180910390fd5b6111218484848461242c565b50505050565b606061113282612488565b611171576040517f08c379a000000000000000000000000000000000000000000000000000000000815260040161116890614550565b60405180910390fd5b600061117c836124c9565b60405160200161118c91906145bc565b60405160208183030381529060405290506000600d600085815260200190815260200160002060009054906101000a900460ff166111ff576040518060400160405280600281526020017f4741000000000000000000000000000000000000000000000000000000000000815250611236565b6040518060400160405280600381526020017f56495000000000000000000000000000000000000000000000000000000000008152505b604051602001611246919061462a565b604051602081830303815290604052905060008282600d600088815260200190815260200160002060009054906101000a900460ff166112bb576040518060400160405280600281526020017f47410000000000000000000000000000000000000000000000000000000000008152506112f2565b6040518060400160405280600381526020017f56495000000000000000000000000000000000000000000000000000000000008152505b61132460146113008a610e82565b73ffffffffffffffffffffffffffffffffffffffff1661259790919063ffffffff16565b61132d89610c1d565b6040516020016113419594939291906148d2565b604051602081830303815290604052905061135b81611fba565b60405160200161136b91906149cc565b6040516020818303038152906040529350505050919050565b600e6020528060005260406000206000915054906101000a900460e81b81565b606060006040516020016113b790614aac565b60405160208183030381529060405290506113f0816040516020016113dc9190614b13565b604051602081830303815290604052611fba565b60405160200161140091906149cc565b60405160208183030381529060405291505090565b6000600560008473ffffffffffffffffffffffffffffffffffffffff1673ffffffffffffffffffffffffffffffffffffffff16815260200190815260200160002060008373ffffffffffffffffffffffffffffffffffffffff1673ffffffffffffffffffffffffffffffffffffffff16815260200190815260200160002060009054906101000a900460ff16905092915050565b6114b161217c565b600073ffffffffffffffffffffffffffffffffffffffff168173ffffffffffffffffffffffffffffffffffffffff1603611520576040517f08c379a000000000000000000000000000000000000000000000000000000000815260040161151790614b9c565b60405180910390fd5b611529816121fa565b50565b60007f80ac58cd000000000000000000000000000000000000000000000000000000007bffffffffffffffffffffffffffffffffffffffffffffffffffffffff1916827bffffffffffffffffffffffffffffffffffffffffffffffffffffffff191614806115f757507f5b5e139f000000000000000000000000000000000000000000000000000000007bffffffffffffffffffffffffffffffffffffffffffffffffffffffff1916827bffffffffffffffffffffffffffffffffffffffffffffffffffffffff1916145b80611607575061160682612790565b5b9050919050565b61161781612488565b611656576040517f08c379a000000000000000000000000000000000000000000000000000000000815260040161164d90614452565b60405180910390fd5b50565b600033905090565b816004600083815260200190815260200160002060006101000a81548173ffffffffffffffffffffffffffffffffffffffff021916908373ffffffffffffffffffffffffffffffffffffffff160217905550808273ffffffffffffffffffffffffffffffffffffffff166116d483610e82565b73ffffffffffffffffffffffffffffffffffffffff167f8c5be1e5ebec7d5bd14f71427d1e84f3dd0314c0f7b2291e5b200ac8c7c3b92560405160405180910390a45050565b6001816000016000828254019250508190555050565b600081600001549050919050565b6117588282604051806020016040528060008152506127fa565b5050565b60008061176883610e82565b90508073ffffffffffffffffffffffffffffffffffffffff168473ffffffffffffffffffffffffffffffffffffffff1614806117aa57506117a98185611415565b5b806117e857508373ffffffffffffffffffffffffffffffffffffffff166117d084610827565b73ffffffffffffffffffffffffffffffffffffffff16145b91505092915050565b8273ffffffffffffffffffffffffffffffffffffffff1661181182610e82565b73ffffffffffffffffffffffffffffffffffffffff1614611867576040517f08c379a000000000000000000000000000000000000000000000000000000000815260040161185e90614c2e565b60405180910390fd5b600073ffffffffffffffffffffffffffffffffffffffff168273ffffffffffffffffffffffffffffffffffffffff16036118d6576040517f08c379a00000000000000000000000000000000000000000000000000000000081526004016118cd90614cc0565b60405180910390fd5b6118e38383836001612855565b8273ffffffffffffffffffffffffffffffffffffffff1661190382610e82565b73ffffffffffffffffffffffffffffffffffffffff1614611959576040517f08c379a000000000000000000000000000000000000000000000000000000000815260040161195090614c2e565b60405180910390fd5b6004600082815260200190815260200160002060006101000a81549073ffffffffffffffffffffffffffffffffffffffff02191690556001600360008573ffffffffffffffffffffffffffffffffffffffff1673ffffffffffffffffffffffffffffffffffffffff168152602001908152602001600020600082825403925050819055506001600360008473ffffffffffffffffffffffffffffffffffffffff1673ffffffffffffffffffffffffffffffffffffffff16815260200190815260200160002060008282540192505081905550816002600083815260200190815260200160002060006101000a81548173ffffffffffffffffffffffffffffffffffffffff021916908373ffffffffffffffffffffffffffffffffffffffff160217905550808273ffffffffffffffffffffffffffffffffffffffff168473ffffffffffffffffffffffffffffffffffffffff167fddf252ad1be2c89b69c2b068fc378daa952ba7f163c4a11628f55a4df523b3ef60405160405180910390a4611ae583838360016129b3565b505050565b60606000600d600084815260200190815260200160002060009054906101000a900460ff16611b4e576040518060400160405280600281526020017f4741000000000000000000000000000000000000000000000000000000000000815250611b85565b6040518060400160405280600381526020017f56495000000000000000000000000000000000000000000000000000000000008152505b9050600d600084815260200190815260200160002060009054906101000a900460ff16611be7576040518060400160405280600281526020017f7337000000000000000000000000000000000000000000000000000000000000815250611c1e565b6040518060400160405280600281526020017f73360000000000000000000000000000000000000000000000000000000000008152505b611c27846124c9565b82604051602001611c3a9392919061504a565b604051602081830303815290604052915050919050565b60606000611c98600c60029054906101000a900473ffffffffffffffffffffffffffffffffffffffff1673ffffffffffffffffffffffffffffffffffffffff1660146129b9565b9050600d600084815260200190815260200160002060009054906101000a900460ff16611cfa576040518060400160405280600481526020017f6761426700000000000000000000000000000000000000000000000000000000815250611d31565b6040518060400160405280600481526020017f76704267000000000000000000000000000000000000000000000000000000008152505b600d600085815260200190815260200160002060009054906101000a900460ff16611d91576040518060400160405280600681526020017f3030333835440000000000000000000000000000000000000000000000000000815250611dc8565b6040518060400160405280600681526020017f34363030393000000000000000000000000000000000000000000000000000008152505b600d600086815260200190815260200160002060009054906101000a900460ff16611e28576040518060400160405280600681526020017f3030353238420000000000000000000000000000000000000000000000000000815250611e5f565b6040518060400160405280600681526020017f36313030384300000000000000000000000000000000000000000000000000008152505b600d600087815260200190815260200160002060009054906101000a900460ff16611ebf576040518060400160405280600481526020017f6761426700000000000000000000000000000000000000000000000000000000815250611ef6565b6040518060400160405280600481526020017f76704267000000000000000000000000000000000000000000000000000000008152505b600d600088815260200190815260200160002060009054906101000a900460ff16611f56576040518060400160405280600281526020017f4741000000000000000000000000000000000000000000000000000000000000815250611f8d565b6040518060400160405280600381526020017f56495000000000000000000000000000000000000000000000000000000000008152505b85604051602001611fa3969594939291906155ef565b604051602081830303815290604052915050919050565b60606000825103611fdc5760405180602001604052806000815250905061212d565b6000604051806060016040528060408152602001615c3b604091399050600060036002855161200b91906156c0565b6120159190615723565b60046120219190615754565b9050600060208261203291906156c0565b67ffffffffffffffff81111561204b5761204a6138ff565b5b6040519080825280601f01601f19166020018201604052801561207d5781602001600182028036833780820191505090505b509050818152600183018586518101602084015b818310156120ec576003830192508251603f8160121c168501518253600182019150603f81600c1c168501518253600182019150603f8160061c168501518253600182019150603f8116850151825360018201915050612091565b600389510660018114612106576002811461211657612121565b613d3d60f01b6002830352612121565b603d60f81b60018303525b50505050508093505050505b919050565b6000600880549050905090565b60006002600083815260200190815260200160002060009054906101000a900473ffffffffffffffffffffffffffffffffffffffff169050919050565b612184611659565b73ffffffffffffffffffffffffffffffffffffffff166121a2610ff3565b73ffffffffffffffffffffffffffffffffffffffff16146121f8576040517f08c379a00000000000000000000000000000000000000000000000000000000081526004016121ef906157e2565b60405180910390fd5b565b6000600a60009054906101000a900473ffffffffffffffffffffffffffffffffffffffff16905081600a60006101000a81548173ffffffffffffffffffffffffffffffffffffffff021916908373ffffffffffffffffffffffffffffffffffffffff1602179055508173ffffffffffffffffffffffffffffffffffffffff168173ffffffffffffffffffffffffffffffffffffffff167f8be0079c531659141344cd1fd0a4f28419497f9722a3daafe3b4186f6b6457e060405160405180910390a35050565b8173ffffffffffffffffffffffffffffffffffffffff168373ffffffffffffffffffffffffffffffffffffffff160361232e576040517f08c379a00000000000000000000000000000000000000000000000000000000081526004016123259061584e565b60405180910390fd5b80600560008573ffffffffffffffffffffffffffffffffffffffff1673ffffffffffffffffffffffffffffffffffffffff16815260200190815260200160002060008473ffffffffffffffffffffffffffffffffffffffff1673ffffffffffffffffffffffffffffffffffffffff16815260200190815260200160002060006101000a81548160ff0219169083151502179055508173ffffffffffffffffffffffffffffffffffffffff168373ffffffffffffffffffffffffffffffffffffffff167f17307eab39ab6107e8899845ad3d59bd9653f200f220920489ca2b5937696c318360405161241f91906134cf565b60405180910390a3505050565b6124378484846117f1565b61244384848484612bf5565b612482576040517f08c379a0000000000000000000000000000000000000000000000000000000008152600401612479906158e0565b60405180910390fd5b50505050565b60008073ffffffffffffffffffffffffffffffffffffffff166124aa8361213f565b73ffffffffffffffffffffffffffffffffffffffff1614159050919050565b6060600060016124d884612d7c565b01905060008167ffffffffffffffff8111156124f7576124f66138ff565b5b6040519080825280601f01601f1916602001820160405280156125295781602001600182028036833780820191505090505b509050600082602001820190505b60011561258c578080600190039150507f3031323334353637383961626364656600000000000000000000000000000000600a86061a8153600a85816125805761257f6156f4565b5b04945060008503612537575b819350505050919050565b6060600060028360026125aa9190615754565b6125b491906156c0565b67ffffffffffffffff8111156125cd576125cc6138ff565b5b6040519080825280601f01601f1916602001820160405280156125ff5781602001600182028036833780820191505090505b5090507f300000000000000000000000000000000000000000000000000000000000000081600081518110612637576126366142fd565b5b60200101907effffffffffffffffffffffffffffffffffffffffffffffffffffffffffffff1916908160001a9053507f78000000000000000000000000000000000000000000000000000000000000008160018151811061269b5761269a6142fd565b5b60200101907effffffffffffffffffffffffffffffffffffffffffffffffffffffffffffff1916908160001a905350600060018460026126db9190615754565b6126e591906156c0565b90505b6001811115612785577f3031323334353637383961626364656600000000000000000000000000000000600f861660108110612727576127266142fd565b5b1a60f81b82828151811061273e5761273d6142fd565b5b60200101907effffffffffffffffffffffffffffffffffffffffffffffffffffffffffffff1916908160001a905350600485901c94508061277e90615900565b90506126e8565b508091505092915050565b60007f01ffc9a7000000000000000000000000000000000000000000000000000000007bffffffffffffffffffffffffffffffffffffffffffffffffffffffff1916827bffffffffffffffffffffffffffffffffffffffffffffffffffffffff1916149050919050565b6128048383612ecf565b6128116000848484612bf5565b612850576040517f08c379a0000000000000000000000000000000000000000000000000000000008152600401612847906158e0565b60405180910390fd5b505050565b612861848484846130ec565b60018111156128a5576040517f08c379a000000000000000000000000000000000000000000000000000000000815260040161289c9061599b565b60405180910390fd5b6000829050600073ffffffffffffffffffffffffffffffffffffffff168573ffffffffffffffffffffffffffffffffffffffff16036128ec576128e7816130f2565b61292b565b8373ffffffffffffffffffffffffffffffffffffffff168573ffffffffffffffffffffffffffffffffffffffff161461292a57612929858261313b565b5b5b600073ffffffffffffffffffffffffffffffffffffffff168473ffffffffffffffffffffffffffffffffffffffff160361296d57612968816132a8565b6129ac565b8473ffffffffffffffffffffffffffffffffffffffff168473ffffffffffffffffffffffffffffffffffffffff16146129ab576129aa8482613379565b5b5b5050505050565b50505050565b6060600060028360026129cc9190615754565b6129d691906156c0565b67ffffffffffffffff8111156129ef576129ee6138ff565b5b6040519080825280601f01601f191660200182016040528015612a215781602001600182028036833780820191505090505b5090507f300000000000000000000000000000000000000000000000000000000000000081600081518110612a5957612a586142fd565b5b60200101907effffffffffffffffffffffffffffffffffffffffffffffffffffffffffffff1916908160001a9053507f780000000000000000000000000000000000000000000000000000000000000081600181518110612abd57612abc6142fd565b5b60200101907effffffffffffffffffffffffffffffffffffffffffffffffffffffffffffff1916908160001a90535060006001846002612afd9190615754565b612b0791906156c0565b90505b6001811115612ba7577f3031323334353637383961626364656600000000000000000000000000000000600f861660108110612b4957612b486142fd565b5b1a60f81b828281518110612b6057612b5f6142fd565b5b60200101907effffffffffffffffffffffffffffffffffffffffffffffffffffffffffffff1916908160001a905350600485901c945080612ba090615900565b9050612b0a565b5060008414612beb576040517f08c379a0000000000000000000000000000000000000000000000000000000008152600401612be290615a07565b60405180910390fd5b8091505092915050565b6000612c168473ffffffffffffffffffffffffffffffffffffffff166133f8565b15612d6f578373ffffffffffffffffffffffffffffffffffffffff1663150b7a02612c3f611659565b8786866040518563ffffffff1660e01b8152600401612c619493929190615a71565b6020604051808303816000875af1925050508015612c9d57506040513d601f19601f82011682018060405250810190612c9a9190615ad2565b60015b612d1f573d8060008114612ccd576040519150601f19603f3d011682016040523d82523d6000602084013e612cd2565b606091505b506000815103612d17576040517f08c379a0000000000000000000000000000000000000000000000000000000008152600401612d0e906158e0565b60405180910390fd5b805181602001fd5b63150b7a0260e01b7bffffffffffffffffffffffffffffffffffffffffffffffffffffffff1916817bffffffffffffffffffffffffffffffffffffffffffffffffffffffff191614915050612d74565b600190505b949350505050565b600080600090507a184f03e93ff9f4daa797ed6e38ed64bf6a1f0100000000000000008310612dda577a184f03e93ff9f4daa797ed6e38ed64bf6a1f0100000000000000008381612dd057612dcf6156f4565b5b0492506040810190505b6d04ee2d6d415b85acef81000000008310612e17576d04ee2d6d415b85acef81000000008381612e0d57612e0c6156f4565b5b0492506020810190505b662386f26fc100008310612e4657662386f26fc100008381612e3c57612e3b6156f4565b5b0492506010810190505b6305f5e1008310612e6f576305f5e1008381612e6557612e646156f4565b5b0492506008810190505b6127108310612e94576127108381612e8a57612e896156f4565b5b0492506004810190505b60648310612eb75760648381612ead57612eac6156f4565b5b0492506002810190505b600a8310612ec6576001810190505b80915050919050565b600073ffffffffffffffffffffffffffffffffffffffff168273ffffffffffffffffffffffffffffffffffffffff1603612f3e576040517f08c379a0000000000000000000000000000000000000000000000000000000008152600401612f3590615b4b565b60405180910390fd5b612f4781612488565b15612f87576040517f08c379a0000000000000000000000000000000000000000000000000000000008152600401612f7e90615bb7565b60405180910390fd5b612f95600083836001612855565b612f9e81612488565b15612fde576040517f08c379a0000000000000000000000000000000000000000000000000000000008152600401612fd590615bb7565b60405180910390fd5b6001600360008473ffffffffffffffffffffffffffffffffffffffff1673ffffffffffffffffffffffffffffffffffffffff16815260200190815260200160002060008282540192505081905550816002600083815260200190815260200160002060006101000a81548173ffffffffffffffffffffffffffffffffffffffff021916908373ffffffffffffffffffffffffffffffffffffffff160217905550808273ffffffffffffffffffffffffffffffffffffffff16600073ffffffffffffffffffffffffffffffffffffffff167fddf252ad1be2c89b69c2b068fc378daa952ba7f163c4a11628f55a4df523b3ef60405160405180910390a46130e86000838360016129b3565b5050565b50505050565b6008805490506009600083815260200190815260200160002081905550600881908060018154018082558091505060019003906000526020600020016000909190919091505550565b6000600161314884610f08565b6131529190615bd7565b9050600060076000848152602001908152602001600020549050818114613237576000600660008673ffffffffffffffffffffffffffffffffffffffff1673ffffffffffffffffffffffffffffffffffffffff168152602001908152602001600020600084815260200190815260200160002054905080600660008773ffffffffffffffffffffffffffffffffffffffff1673ffffffffffffffffffffffffffffffffffffffff168152602001908152602001600020600084815260200190815260200160002081905550816007600083815260200190815260200160002081905550505b6007600084815260200190815260200160002060009055600660008573ffffffffffffffffffffffffffffffffffffffff1673ffffffffffffffffffffffffffffffffffffffff16815260200190815260200160002060008381526020019081526020016000206000905550505050565b600060016008805490506132bc9190615bd7565b90506000600960008481526020019081526020016000205490506000600883815481106132ec576132eb6142fd565b5b90600052602060002001549050806008838154811061330e5761330d6142fd565b5b90600052602060002001819055508160096000838152602001908152602001600020819055506009600085815260200190815260200160002060009055600880548061335d5761335c615c0b565b5b6001900381819060005260206000200160009055905550505050565b600061338483610f08565b905081600660008573ffffffffffffffffffffffffffffffffffffffff1673ffffffffffffffffffffffffffffffffffffffff168152602001908152602001600020600083815260200190815260200160002081905550806007600084815260200190815260200160002081905550505050565b6000808273ffffffffffffffffffffffffffffffffffffffff163b119050919050565b6000604051905090565b600080fd5b600080fd5b60007fffffffff0000000000000000000000000000000000000000000000000000000082169050919050565b6134648161342f565b811461346f57600080fd5b50565b6000813590506134818161345b565b92915050565b60006020828403121561349d5761349c613425565b5b60006134ab84828501613472565b91505092915050565b60008115159050919050565b6134c9816134b4565b82525050565b60006020820190506134e460008301846134c0565b92915050565b600081519050919050565b600082825260208201905092915050565b60005b83811015613524578082015181840152602081019050613509565b60008484015250505050565b6000601f19601f8301169050919050565b600061354c826134ea565b61355681856134f5565b9350613566818560208601613506565b61356f81613530565b840191505092915050565b600060208201905081810360008301526135948184613541565b905092915050565b6000819050919050565b6135af8161359c565b81146135ba57600080fd5b50565b6000813590506135cc816135a6565b92915050565b6000602082840312156135e8576135e7613425565b5b60006135f6848285016135bd565b91505092915050565b600073ffffffffffffffffffffffffffffffffffffffff82169050919050565b600061362a826135ff565b9050919050565b61363a8161361f565b82525050565b60006020820190506136556000830184613631565b92915050565b6136648161361f565b811461366f57600080fd5b50565b6000813590506136818161365b565b92915050565b6000806040838503121561369e5761369d613425565b5b60006136ac85828601613672565b92505060206136bd858286016135bd565b9150509250929050565b6136d08161359c565b82525050565b60006020820190506136eb60008301846136c7565b92915050565b60008060006060848603121561370a57613709613425565b5b600061371886828701613672565b935050602061372986828701613672565b925050604061373a868287016135bd565b9150509250925092565b600061ffff82169050919050565b61375b81613744565b82525050565b60006020820190506137766000830184613752565b92915050565b60006020828403121561379257613791613425565b5b60006137a084828501613672565b91505092915050565b600081519050919050565b600082825260208201905092915050565b6000819050602082019050919050565b6137de8161359c565b82525050565b60006137f083836137d5565b60208301905092915050565b6000602082019050919050565b6000613814826137a9565b61381e81856137b4565b9350613829836137c5565b8060005b8381101561385a57815161384188826137e4565b975061384c836137fc565b92505060018101905061382d565b5085935050505092915050565b600060208201905081810360008301526138818184613809565b905092915050565b613892816134b4565b811461389d57600080fd5b50565b6000813590506138af81613889565b92915050565b600080604083850312156138cc576138cb613425565b5b60006138da85828601613672565b92505060206138eb858286016138a0565b9150509250929050565b600080fd5b600080fd5b7f4e487b7100000000000000000000000000000000000000000000000000000000600052604160045260246000fd5b61393782613530565b810181811067ffffffffffffffff82111715613956576139556138ff565b5b80604052505050565b600061396961341b565b9050613975828261392e565b919050565b600067ffffffffffffffff821115613995576139946138ff565b5b61399e82613530565b9050602081019050919050565b82818337600083830152505050565b60006139cd6139c88461397a565b61395f565b9050828152602081018484840111156139e9576139e86138fa565b5b6139f48482856139ab565b509392505050565b600082601f830112613a1157613a106138f5565b5b8135613a218482602086016139ba565b91505092915050565b60008060008060808587031215613a4457613a43613425565b5b6000613a5287828801613672565b9450506020613a6387828801613672565b9350506040613a74878288016135bd565b925050606085013567ffffffffffffffff811115613a9557613a9461342a565b5b613aa1878288016139fc565b91505092959194509250565b60007fffffff000000000000000000000000000000000000000000000000000000000082169050919050565b613ae281613aad565b82525050565b6000602082019050613afd6000830184613ad9565b92915050565b60008060408385031215613b1a57613b19613425565b5b6000613b2885828601613672565b9250506020613b3985828601613672565b9150509250929050565b7f4e487b7100000000000000000000000000000000000000000000000000000000600052602260045260246000fd5b60006002820490506001821680613b8a57607f821691505b602082108103613b9d57613b9c613b43565b5b50919050565b7f4552433732313a20617070726f76616c20746f2063757272656e74206f776e6560008201527f7200000000000000000000000000000000000000000000000000000000000000602082015250565b6000613bff6021836134f5565b9150613c0a82613ba3565b604082019050919050565b60006020820190508181036000830152613c2e81613bf2565b9050919050565b7f4552433732313a20617070726f76652063616c6c6572206973206e6f7420746f60008201527f6b656e206f776e6572206f7220617070726f76656420666f7220616c6c000000602082015250565b6000613c91603d836134f5565b9150613c9c82613c35565b604082019050919050565b60006020820190508181036000830152613cc081613c84565b9050919050565b7f416c6c207469636b657473206d696e7465640000000000000000000000000000600082015250565b6000613cfd6012836134f5565b9150613d0882613cc7565b602082019050919050565b60006020820190508181036000830152613d2c81613cf0565b9050919050565b7f4d696e74696e6720657870697265640000000000000000000000000000000000600082015250565b6000613d69600f836134f5565b9150613d7482613d33565b602082019050919050565b60006020820190508181036000830152613d9881613d5c565b9050919050565b7f45746865722076616c75652073656e7420696e636f7272656374000000000000600082015250565b6000613dd5601a836134f5565b9150613de082613d9f565b602082019050919050565b60006020820190508181036000830152613e0481613dc8565b9050919050565b7f4e487b7100000000000000000000000000000000000000000000000000000000600052601160045260246000fd5b6000613e4582613744565b915061ffff8203613e5957613e58613e0b565b5b600182019050919050565b7f4552433732313a2063616c6c6572206973206e6f7420746f6b656e206f776e6560008201527f72206f7220617070726f76656400000000000000000000000000000000000000602082015250565b6000613ec0602d836134f5565b9150613ecb82613e64565b604082019050919050565b60006020820190508181036000830152613eef81613eb3565b9050919050565b600081905092915050565b7f3c737667207072657365727665417370656374526174696f3d22784d696e594d60008201527f696e206d656574222076696577426f783d22302030203330302033303022207860208201527f6d6c6e733d22687474703a2f2f7777772e77332e6f72672f323030302f73766760408201527f22207374796c653d2266696c6c2d72756c653a6576656e6f64643b636c69702d60608201527f72756c653a6576656e6f64643b757365722d73656c6563743a206e6f6e653b2260808201527f3e0000000000000000000000000000000000000000000000000000000000000060a082015250565b6000613ff560a183613ef6565b915061400082613f01565b60a182019050919050565b6000614016826134ea565b6140208185613ef6565b9350614030818560208601613506565b80840191505092915050565b7f3c7374796c653e2e73317b666f6e742d66616d696c793a22417269616c223b7d60008201527f202e7332617b66696c6c3a233030303b7d202e7332627b66696c6c3a2346464660208201527f3b7d202e73337b666f6e742d73697a653a323470783b7d202e73347b666f6e7460408201527f2d73697a653a313670783b7d202e73357b666f6e742d73697a653a313470783b60608201527f7d202e73367b66696c6c3a233139303033463b7d202e73377b66696c6c3a233060808201527f30314332453b7d202e73387b666f6e742d73697a653a3770783b7d3c2f73747960a08201527f6c653e000000000000000000000000000000000000000000000000000000000060c082015250565b600061415660c383613ef6565b91506141618261403c565b60c382019050919050565b7f3c2f7376673e0000000000000000000000000000000000000000000000000000600082015250565b60006141a2600683613ef6565b91506141ad8261416c565b600682019050919050565b60006141c382613fe8565b91506141cf828561400b565b91506141db828461400b565b91506141e682614149565b91506141f182614195565b91508190509392505050565b7f646174613a696d6167652f7376672b786d6c3b6261736536342c000000000000600082015250565b6000614233601a83613ef6565b915061423e826141fd565b601a82019050919050565b600061425482614226565b9150614260828461400b565b915081905092915050565b7f455243373231456e756d657261626c653a206f776e657220696e646578206f7560008201527f74206f6620626f756e6473000000000000000000000000000000000000000000602082015250565b60006142c7602b836134f5565b91506142d28261426b565b604082019050919050565b600060208201905081810360008301526142f6816142ba565b9050919050565b7f4e487b7100000000000000000000000000000000000000000000000000000000600052603260045260246000fd5b60006143378261359c565b91507fffffffffffffffffffffffffffffffffffffffffffffffffffffffffffffffff820361436957614368613e0b565b5b600182019050919050565b7f455243373231456e756d657261626c653a20676c6f62616c20696e646578206f60008201527f7574206f6620626f756e64730000000000000000000000000000000000000000602082015250565b60006143d0602c836134f5565b91506143db82614374565b604082019050919050565b600060208201905081810360008301526143ff816143c3565b9050919050565b7f4552433732313a20696e76616c696420746f6b656e2049440000000000000000600082015250565b600061443c6018836134f5565b915061444782614406565b602082019050919050565b6000602082019050818103600083015261446b8161442f565b9050919050565b7f4552433732313a2061646472657373207a65726f206973206e6f74206120766160008201527f6c6964206f776e65720000000000000000000000000000000000000000000000602082015250565b60006144ce6029836134f5565b91506144d982614472565b604082019050919050565b600060208201905081810360008301526144fd816144c1565b9050919050565b7f6e6f742065786973740000000000000000000000000000000000000000000000600082015250565b600061453a6009836134f5565b915061454582614504565b602082019050919050565b600060208201905081810360008301526145698161452d565b9050919050565b7f5469636b65742023000000000000000000000000000000000000000000000000600082015250565b60006145a6600883613ef6565b91506145b182614570565b600882019050919050565b60006145c782614599565b91506145d3828461400b565b915081905092915050565b7f2041636365737300000000000000000000000000000000000000000000000000600082015250565b6000614614600783613ef6565b915061461f826145de565b600782019050919050565b6000614636828461400b565b915061464182614607565b915081905092915050565b7f7b226e616d65223a220000000000000000000000000000000000000000000000600082015250565b6000614682600983613ef6565b915061468d8261464c565b600982019050919050565b7f222c226465736372697074696f6e223a22000000000000000000000000000000600082015250565b60006146ce601183613ef6565b91506146d982614698565b601182019050919050565b7f222c000000000000000000000000000000000000000000000000000000000000600082015250565b600061471a600283613ef6565b9150614725826146e4565b600282019050919050565b7f2261747472696275746573223a5b7b2274726169745f74797065223a2254696360008201527f6b65742054797065222c202276616c7565223a22000000000000000000000000602082015250565b600061478c603483613ef6565b915061479782614730565b603482019050919050565b7f227d5d2c00000000000000000000000000000000000000000000000000000000600082015250565b60006147d8600483613ef6565b91506147e3826147a2565b600482019050919050565b7f226f776e6572223a220000000000000000000000000000000000000000000000600082015250565b6000614824600983613ef6565b915061482f826147ee565b600982019050919050565b7f22696d616765223a220000000000000000000000000000000000000000000000600082015250565b6000614870600983613ef6565b915061487b8261483a565b600982019050919050565b7f227d000000000000000000000000000000000000000000000000000000000000600082015250565b60006148bc600283613ef6565b91506148c782614886565b600282019050919050565b60006148dd82614675565b91506148e9828861400b565b91506148f4826146c1565b9150614900828761400b565b915061490b8261470d565b91506149168261477f565b9150614922828661400b565b915061492d826147cb565b915061493882614817565b9150614944828561400b565b915061494f8261470d565b915061495a82614863565b9150614966828461400b565b9150614971826148af565b91508190509695505050505050565b7f646174613a6170706c69636174696f6e2f6a736f6e3b6261736536342c000000600082015250565b60006149b6601d83613ef6565b91506149c182614980565b601d82019050919050565b60006149d7826149a9565b91506149e3828461400b565b915081905092915050565b7f7b226e616d65223a224554482041746c616e746973222c000000000000000000600082015250565b6000614a24601783613ef6565b9150614a2f826149ee565b601782019050919050565b7f226465736372697074696f6e223a2241207072656d696572204574686572657560008201527f6d206576656e742061742073656121227d000000000000000000000000000000602082015250565b6000614a96603183613ef6565b9150614aa182614a3a565b603182019050919050565b6000614ab782614a17565b9150614ac282614a89565b9150819050919050565b600081519050919050565b600081905092915050565b6000614aed82614acc565b614af78185614ad7565b9350614b07818560208601613506565b80840191505092915050565b6000614b1f8284614ae2565b915081905092915050565b7f4f776e61626c653a206e6577206f776e657220697320746865207a65726f206160008201527f6464726573730000000000000000000000000000000000000000000000000000602082015250565b6000614b866026836134f5565b9150614b9182614b2a565b604082019050919050565b60006020820190508181036000830152614bb581614b79565b9050919050565b7f4552433732313a207472616e736665722066726f6d20696e636f72726563742060008201527f6f776e6572000000000000000000000000000000000000000000000000000000602082015250565b6000614c186025836134f5565b9150614c2382614bbc565b604082019050919050565b60006020820190508181036000830152614c4781614c0b565b9050919050565b7f4552433732313a207472616e7366657220746f20746865207a65726f2061646460008201527f7265737300000000000000000000000000000000000000000000000000000000602082015250565b6000614caa6024836134f5565b9150614cb582614c4e565b604082019050919050565b60006020820190508181036000830152614cd981614c9d565b9050919050565b7f3c67207472616e73666f726d3d226d617472697828312c302c302c312c302c3060008201527f2e31373738353929223e3c7061746820636c6173733d22000000000000000000602082015250565b6000614d3c603783613ef6565b9150614d4782614ce0565b603782019050919050565b7f2220643d224d3239352c3139392e3832324c352c3139392e3832324c352c323860008201527f342e39383843352c3239302e34313620392e3430362c3239342e38323220313460208201527f2e3833342c3239342e3832324c3238352e3136362c3239342e3832324332393060408201527f2e3539342c3239342e383232203239352c3239302e343136203239352c32383460608201527f2e3938384c3239352c3139392e3832325a222f3e3c2f673e0000000000000000608082015250565b6000614e20609883613ef6565b9150614e2b82614d52565b609882019050919050565b7f3c67207472616e73666f726d3d226d617472697828312e363637392c302c302c60008201527f312e363637392c35302c31363029223e3c7465787420783d223230252220793d60208201527f2231342522207374796c653d22646f6d696e616e742d626173656c696e653a6360408201527f656e7472616c3b20746578742d616e63686f723a6d6964646c653b2220636c6160608201527f73733d22733120733262207334223e2300000000000000000000000000000000608082015250565b6000614f04609083613ef6565b9150614f0f82614e36565b609082019050919050565b7f3c2f746578743e3c2f673e000000000000000000000000000000000000000000600082015250565b6000614f50600b83613ef6565b9150614f5b82614f1a565b600b82019050919050565b7f3c67207472616e73666f726d3d226d617472697828312e363637392c302c302c60008201527f312e363637392c35302c31393529223e3c7465787420783d223230252220793d60208201527f2231342522207374796c653d22646f6d696e616e742d626173656c696e653a6360408201527f656e7472616c3b20746578742d616e63686f723a6d6964646c653b2220636c6160608201527f73733d22733120733262207334223e0000000000000000000000000000000000608082015250565b6000615034608f83613ef6565b915061503f82614f66565b608f82019050919050565b600061505582614d2f565b9150615061828661400b565b915061506c82614e13565b915061507782614ef7565b9150615083828561400b565b915061508e82614f43565b915061509982615027565b91506150a5828461400b565b91506150b082614f43565b9150819050949350505050565b7f3c6c696e6561724772616469656e742069643d22000000000000000000000000600082015250565b60006150f3601483613ef6565b91506150fe826150bd565b601482019050919050565b7f223e3c73746f70206f66667365743d223525222073746f702d636f6c6f723d2260008201527f2300000000000000000000000000000000000000000000000000000000000000602082015250565b6000615165602183613ef6565b915061517082615109565b602182019050919050565b7f22202f3e3c73746f70206f66667365743d22393525222073746f702d636f6c6f60008201527f723d222300000000000000000000000000000000000000000000000000000000602082015250565b60006151d7602483613ef6565b91506151e28261517b565b602482019050919050565b7f222f3e3c2f6c696e6561724772616469656e743e000000000000000000000000600082015250565b6000615223601483613ef6565b915061522e826151ed565b601482019050919050565b7f3c67207472616e73666f726d3d226d617472697828302e3936363533392c302c60008201527f302c302e3936363533392c342e39333132362c342e393035383629223e3c706160208201527f7468207374796c653d2266696c6c3a75726c2823000000000000000000000000604082015250565b60006152bb605483613ef6565b91506152c682615239565b605482019050919050565b7f293b2220643d224d302e3037312c3230312e3834384c3330302e3131312c323060008201527f312e3834384c3330302e3131312c31302e323732433330302e3131312c342e3660208201527f3536203239352e3535322c302e303937203238392e3933362c302e3039374c3160408201527f302e3234352c302e30393743342e36332c302e30393720302e3037312c342e3660608201527f353620302e3037312c31302e3237324c302e3037312c3230312e3834385a222f60808201527f3e3c2f673e00000000000000000000000000000000000000000000000000000060a082015250565b60006153c560a583613ef6565b91506153d0826152d1565b60a582019050919050565b7f3c67207472616e73666f726d3d226d617472697828312e363637392c302c302c60008201527f312e363637392c2d32352c2d343029223e3c7465787420783d2232347078222060208201527f793d22353470782220636c6173733d22733120733262207333223e455448204160408201527f746c616e7469733c2f746578743e3c2f673e0000000000000000000000000000606082015250565b6000615483607283613ef6565b915061548e826153db565b607282019050919050565b7f3c67207472616e73666f726d3d226d617472697828312e363637392c302c302c60008201527f312e363637392c2d32352c2d313029223e3c7465787420783d2232347078222060208201527f793d22353470782220636c6173733d22733120733262207335223e323032342c60408201527f204a756c792034202f2000000000000000000000000000000000000000000000606082015250565b6000615541606a83613ef6565b915061554c82615499565b606a82019050919050565b7f3c67207472616e73666f726d3d226d617472697828312e363637392c302c302c60008201527f312e363637392c2d32352c383529223e3c7465787420783d223234707822207960208201527f3d22353470782220636c6173733d22733120733262207338223e000000000000604082015250565b60006155d9605a83613ef6565b91506155e482615557565b605a82019050919050565b60006155fa826150e6565b9150615606828961400b565b915061561182615158565b915061561d828861400b565b9150615628826151ca565b9150615634828761400b565b915061563f82615216565b915061564a826152ae565b9150615656828661400b565b9150615661826153b8565b915061566c82615476565b915061567782615534565b9150615683828561400b565b915061568e82614f43565b9150615699826155cc565b91506156a5828461400b565b91506156b082614f43565b9150819050979650505050505050565b60006156cb8261359c565b91506156d68361359c565b92508282019050808211156156ee576156ed613e0b565b5b92915050565b7f4e487b7100000000000000000000000000000000000000000000000000000000600052601260045260246000fd5b600061572e8261359c565b91506157398361359c565b925082615749576157486156f4565b5b828204905092915050565b600061575f8261359c565b915061576a8361359c565b92508282026157788161359c565b9150828204841483151761578f5761578e613e0b565b5b5092915050565b7f4f776e61626c653a2063616c6c6572206973206e6f7420746865206f776e6572600082015250565b60006157cc6020836134f5565b91506157d782615796565b602082019050919050565b600060208201905081810360008301526157fb816157bf565b9050919050565b7f4552433732313a20617070726f766520746f2063616c6c657200000000000000600082015250565b60006158386019836134f5565b915061584382615802565b602082019050919050565b600060208201905081810360008301526158678161582b565b9050919050565b7f4552433732313a207472616e7366657220746f206e6f6e20455243373231526560008201527f63656976657220696d706c656d656e7465720000000000000000000000000000602082015250565b60006158ca6032836134f5565b91506158d58261586e565b604082019050919050565b600060208201905081810360008301526158f9816158bd565b9050919050565b600061590b8261359c565b91506000820361591e5761591d613e0b565b5b600182039050919050565b7f455243373231456e756d657261626c653a20636f6e736563757469766520747260008201527f616e7366657273206e6f7420737570706f727465640000000000000000000000602082015250565b60006159856035836134f5565b915061599082615929565b604082019050919050565b600060208201905081810360008301526159b481615978565b9050919050565b7f537472696e67733a20686578206c656e67746820696e73756666696369656e74600082015250565b60006159f16020836134f5565b91506159fc826159bb565b602082019050919050565b60006020820190508181036000830152615a20816159e4565b9050919050565b600082825260208201905092915050565b6000615a4382614acc565b615a4d8185615a27565b9350615a5d818560208601613506565b615a6681613530565b840191505092915050565b6000608082019050615a866000830187613631565b615a936020830186613631565b615aa060408301856136c7565b8181036060830152615ab28184615a38565b905095945050505050565b600081519050615acc8161345b565b92915050565b600060208284031215615ae857615ae7613425565b5b6000615af684828501615abd565b91505092915050565b7f4552433732313a206d696e7420746f20746865207a65726f2061646472657373600082015250565b6000615b356020836134f5565b9150615b4082615aff565b602082019050919050565b60006020820190508181036000830152615b6481615b28565b9050919050565b7f4552433732313a20746f6b656e20616c7265616479206d696e74656400000000600082015250565b6000615ba1601c836134f5565b9150615bac82615b6b565b602082019050919050565b60006020820190508181036000830152615bd081615b94565b9050919050565b6000615be28261359c565b9150615bed8361359c565b9250828203905081811115615c0557615c04613e0b565b5b92915050565b7f4e487b7100000000000000000000000000000000000000000000000000000000600052603160045260246000fdfe4142434445464748494a4b4c4d4e4f505152535455565758595a6162636465666768696a6b6c6d6e6f707172737475767778797a303132333435363738392b2fa264697066735822122089155ff5f565212c8d0a13ac6ed498f191587ba578d3886f15c41e57a8ba7bd764736f6c63430008130033",
  "linkReferences": {},
  "deployedLinkReferences": {}
}